:020000040800F2
:100000000004002047010008A10600081D050008A3
:100010009D060008270300080D10000800000000DE
:10002000000000000000000000000000390A000885
:100030002B03000800000000A30600083F0B000887
:1000400067010008670100086701000867010008F0
:1000500067010008670100086701000867010008E0
:1000600067010008670100086701000867010008D0
:1000700067010008670100086701000867010008C0
:1000800067010008670100086701000867010008B0
:1000900067010008670100086701000867010008A0
:1000A0006701000867010008670100086701000890
:1000B0006701000867010008670100086701000880
:1000C0006701000867010008670100086701000870
:1000D0006701000867010008670100086701000860
:1000E0006701000867010008670100086701000850
:1000F0006701000867010008670100086701000840
:10010000670100086701000867010008670100082F
:10011000670100086701000867010008670100081F
:10012000670100086701000867010008670100080F
:10013000DFF80CD000F0C6F800480047992300080B
:1001400048240020704708488047084981F3088800
:1001500007480047FEE7FEE7FEE7FEE7FEE7FEE7AB
:10016000FEE7FEE7FEE7FEE7450100084824002021
:100170003101000840EA01039B0703D009E008C9E8
:10018000121F08C0042AFAD203E011F8013B00F85C
:10019000013B521EF9D27047D2B201E000F8012BA8
:1001A000491EFBD270470022F6E710B513460A46F7
:1001B00004461946FFF7F0FF204610BD10B504466F
:1001C00004E00B7800F8013B03B1491C521EF8D241
:1001D000204610BDCAB2401E10F8011F8A4202D04C
:1001E0000029F9D100207047421C10F8011B00299A
:1001F000FBD1801A704730B504460020034600E06A
:100200005B1C934203D2E05CCD5C401BF8D030BD58
:10021000034611F8012B00F8012B002AF9D11846EA
:10022000704730B505460020034600E05B1C934252
:1002300005D2EC5CC85C201A01D1002CF6D130BD8F
:100240000246C9B200E0401C0378002BFBD102E05B
:1002500003788B4203D0401E9042F9D200207047B1
:100260002DE9F05F0546002092469B4688460646EB
:10027000814640241BE0284641464746224600F07E
:1002800042F853465A46C01A914110D311461846B7
:10029000224600F029F82D1A67EB01084F46224646
:1002A0000120002100F020F817EB00094E41201E2C
:1002B000A4F10104DFDC484631462A464346BDE846
:1002C000F09F0000064C074D06E0E06840F0010397
:1002D00094E8070098471034AC42F6D3FFF72CFFA0
:1002E000185D0008385D0008202A04DB203A00FA77
:1002F00002F1002070479140C2F1200320FA03F37D
:10030000194390407047202A04DB203A21FA02F07A
:100310000021704721FA02F3D040C2F1200291403F
:1003200008431946704700BFFEE7704701B502E079
:100330000098401E009000980028F9D108BD0000E8
:1003400010B502A104A000F0ADF910BD323031307B
:100350002D30372D32320000754950312E30205467
:1003600043502044656D6F0008B5012144F27C00C4
:1003700000F042FA4FF40070ADF8000010208DF844
:10038000030003208DF802006946134800F028F8A6
:100390004FF48060ADF8000069460F4800F020F887
:1003A0004FF48070ADF8000069460C4800F018F872
:1003B0004FF48071094800F09EF84AF6FF70FFF78D
:1003C000B5FF4FF48071054800F097F84AF6FF70CA
:1003D000FFF7ACFF08BD000000080140000C014021
:1003E0002DE9F041024600250026002000230024CC
:1003F000002791F803C00CF00F0591F803C00CF032
:10040000100CBCF1000F03D091F802C04CEA0505B6
:1004100091F800C0BCF1000F31D0146800202BE02F
:100420004FF0010C0CFA00F3B1F800C00CEA03061F
:100430009E4220D183004FF00F0C0CFA03F7BC430F
:1004400005FA03FC4CEA040491F803C0BCF1280F40
:1004500006D14FF0010C0CFA00FCC2F814C00AE0FF
:1004600091F803C0BCF1480F05D14FF0010C0CFA14
:1004700000FCC2F810C0401C0828D1D31460B1F8A9
:1004800000C0BCF1FF0F34DD546800202EE000F105
:10049000080C4FF0010808FA0CF3B1F800C00CEAA0
:1004A00003069E4221D183004FF00F0C0CFA03F794
:1004B000BC4305FA03FC4CEA040491F803C0BCF108
:1004C000280F05D100F1080C08FA0CF8C2F81480C6
:1004D00091F803C0BCF1480F07D100F1080C4FF0B0
:1004E000010808FA0CF8C2F81080401C0828CED386
:1004F0005460BDE8F08141617047016170470000C0
:10050000012080F3108800BF03480168002080F3B9
:10051000108800BF084670471400002000BFFEE7A7
:1005200008B502F06DFA23A000F072FD02F0C2FDE2
:1005300023A000F06DFD00BF4AF6C000ADF800003A
:100540004FF47060ADF8020000BF00BFBDF80000BE
:1005500023490880BDF80200488000BF21A000F0B8
:1005600057FD00BF4AF6C000ADF800004FF48070A0
:10057000ADF8020000BF00BFBDF8000022490880AE
:10058000BDF80200488000BF20A000F041FD00BF80
:100590004FF6FF70ADF80000FF20ADF8020000BF7D
:1005A00000BFBDF8000021490880BDF80200488066
:1005B00000BF08BD7569705F696E69740A0D00003F
:1005C0007569702069702061646472657373203A84
:1005D000203139322C3136382C302C31350A0D008F
:1005E0003000002075697020726F75746520616439
:1005F0006472657373203A203139322C3136382CCD
:10060000302C310A0D000000340000207569702084
:100610006E6574206D61736B203A203235352C3253
:1006200035352C3235352C300A0D000038000020CD
:1006300070B500F0B3FAFFF797FE00F0C9FB14485D
:1006400000684FF47A72B0FBF2F1B1F1807F00D311
:100650001DE021F07F40401E4FF0E0225061501716
:100660000F22002807DA13071D0E0A4B00F00F04B3
:10067000241F1D5503E013071C0E074B1C5400BF1D
:1006800000204FF0E02290610720106100BF70BD94
:10069000DC41000818ED00E000E400E000BFFEE7E8
:1006A0007047704770B504460D460FA000F0B0FCCF
:1006B00021461DA000F0ACFC294621A000F0A8FCBA
:1006C00025A000F0A5FC2DA000F0A2FC2DA000F0BC
:1006D0009FFC34A000F09CFC38A000F099FC02A024
:1006E00000F096FC70BD00002A2A2A2A2A2A2A2A0B
:1006F0002A2A2A2A2A2A2A2A2A2A2A2A2A2A2A2A5A
:100700002A2A2A2A2A2A2A2A2A2A2A2A2A2A2A2A49
:100710002A2A2A2A2A2A2A2A2A2A2A2A2A2A2A2A39
:100720002A2A2A2A2A0A0D002A204578616D706C2F
:1007300065204E616D65203A2025730D0A0000008A
:100740002A20557064617465204461746520203AE4
:100750002025730D0A0000002A205374645065722E
:100760006970685F4C69622056657273696F6E20AC
:100770003A2056332E312E320A0D00002A200A0D5F
:10078000000000002A20436F707972696768742046
:100790006F757273746D2E356436642E636F6D20C1
:1007A0000D0A00002A205151202020203A20393102
:1007B0003931323734200D0A000000002A20456DFF
:1007C00061696C203A2073756E36384071712E6302
:1007D0006F6D200D0A00000029B1064AD26902435C
:1007E000044BDA6104E0034AD2698243014BDA61C7
:1007F000704700000010024029B1064A9269024386
:10080000044B9A6104E0034A92698243014B9A6166
:10081000704700000010024030B500210022002483
:1008200000232D4D6D6805F00C0121B1042905D080
:10083000082923D105E0294D056022E0274D0560F8
:100840001FE0254D6D6805F47012234D6D6805F4A9
:100850008034022505EB92421CB9214D55430560B9
:100860000BE01D4D6D6805F400351DB11C4D554361
:10087000056002E0194D5543056002E0174D056023
:1008800000BF00BF144D6D6805F0F0010909154D5A
:100890006B5C0568DD4045600F4D6D6805F4E061F7
:1008A000090A104D6B5C4568DD4085600A4D6D6836
:1008B00005F46051C90A0B4D6B5C4568DD40C560AD
:1008C000054D6D6805F44041890B074D6B5CC568AB
:1008D000B5FBF3F5056130BD0010024000127A004F
:1008E00000093D00190000202900002010B5044631
:1008F00000BF02210A4800F073F80028F9D0214611
:10090000074800F079F800BF0121054800F068F8B9
:100910000028F9D0024800F06CF8C0B210BD000009
:100920000030014000B587B001210803FFF764FFE4
:10093000E020ADF8040001208DF8060018208DF8A5
:10094000070001A91E48FFF74BFD1020ADF8040079
:1009500001208DF8060010208DF8070001A9184825
:10096000FFF73EFD10211648FFF7C7FD0020ADF848
:1009700008004FF48270ADF80A000020ADF80C00BA
:10098000ADF80E00ADF810004FF40070ADF8120095
:100990002820ADF814000020ADF816000720ADF8AF
:1009A000180002A9074800F029F80121054800F0C5
:1009B0000BF810210248FFF7A0FD07B000BD0000B2
:1009C000000801400030014021B1028842F040029D
:1009D000028004E002884FF6BF731A40028070471D
:1009E0000246002013890B400BB1012000E00020DB
:1009F00070470146888970478181704710B5002291
:100A0000028802F441520B884C8823438C8823438C
:100A1000CC8823430C8923434C8923438C8923436B
:100A2000CC8923431A430280838B4FF2FF74234007
:100A300083830B8A038210BD704710B500F002F863
:100A400010BD00000CB500200190009034480068F3
:100A500040F480303249086000BF3148006800F43B
:100A6000003000900198401C0190009818B901983E
:100A7000B0F5A06FF1D12A48006800F4003010B141
:100A80000120009001E0002000900098012844D14E
:100A90002448006840F010002249086008460068B9
:100AA00020F0030008600846006840F0020008607B
:100AB0001B4840681A494860084640684860084634
:100AC000406840F4806048600846406820F47C102C
:100AD00048600846406840F4E810486008460068EE
:100AE00040F08070086000BF0D48006800F00070A2
:100AF0000028F9D00A48406820F0030008494860FF
:100B00000846406840F00200486000BF0448406862
:100B100000F00C000828F9D101E000BFFEE70CBD91
:100B20000010024000200240017939B9016829B162
:100B30000168491E016009B901210171704710B5B2
:100B400000F002F810BD000010B5002406E01049C6
:100B500001EBC400FFF7E8FF601CC4B2042CF6DB15
:100B60000C480078401CC0B20A4908700A280DDB06
:100B70000020087008480068401C074908600846C3
:100B80000068B0F1004F01D10020086010BD0000E6
:100B9000F4000020180000201400002010B51148B7
:100BA000006840F001000F490860084640680E499F
:100BB00008400C494860084600680C49084009494B
:100BC00008600846006820F48020086008464068F5
:100BD00020F4FE0048604FF41F008860FFF72DFFEF
:100BE00010BD0000001002400000FFF8FFFFF6FEFD
:100BF00070B5044641480088072827D1062240489E
:100C0000016840A0FFF7F7FA00BB3D48006885790E
:100C1000312D0AD14FF400713C48FFF76CFC3CA029
:100C200000F0F6F93DA060600BE0322D09D14FF4E1
:100C300080613648FFF75FFC3BA000F0E9F93DA07A
:100C400060606068FFF7D0FAA06056E02B4800882B
:100C5000082827D107222A48016839A0FFF7CBFAD4
:100C600000BB27480068C579312D0AD14FF40071C7
:100C70002648FFF742FC34A000F0CAF935A06060B6
:100C80000BE0322D09D14FF480612048FFF735FC8D
:100C900033A000F0BDF935A060606068FFF7A4FAEA
:100CA000A0602AE01548008806280ED106221448C4
:100CB000016831A0FFF79FFA38B901202070304851
:100CC00060604FF4AF60A06017E00C480088062811
:100CD0000DD106220A4801682AA0FFF78CFA30B924
:100CE0000220207029A060600220A06005E028A0FA
:100CF00060606068FFF778FAA06070BD4C0000206B
:100D0000440000206C65646F6E2000000008014004
:100D10006C65642031206F6E0D0A00004C65642004
:100D200031204F6E210000006C65642032206F6E10
:100D30000D0A00004C65642032204F6E2100000037
:100D40006C65646F666620006C65642031206F6698
:100D5000660D0A004C65642031204F666621000054
:100D60006C65642032206F66660D0A004C65642055
:100D700032204F6666210000747874657374000039
:100D80004818002072787465737400004F6B00007F
:100D9000556E6B6E6F7720436F6D6D616E64210DC4
:100DA0000A00000001F40072B2F5007F00D100BF1C
:100DB000CA430280704721B1828942F40052828185
:100DC00004E082894DF6FF731A408281704700006B
:100DD00000B585B001210520FFF70EFD0121480473
:100DE000FFF7FAFC0420ADF8100018208DF813006E
:100DF00003208DF8120004A91648FFF7F1FA082025
:100E0000ADF8100004208DF8130004A91148FFF775
:100E1000E7FA04A90F48FFF7E3FA4FF4E130009036
:100E20000020ADF80400ADF80600ADF80800ADF8FC
:100E30000C000C20ADF80A006946074800F01CF8C9
:100E400001210548FFF7B7FF40210348FFF7AAFF3C
:100E500005B000BD000801400044004002460020EB
:100E6000B1F5007F00D100BF13880B400BB101200A
:100E700000E00020704700002DE9F04786B00546ED
:100E80000E460024A24600BF00BF0027B08900B173
:100E900000BF2F462C8A4CF6FF700440F0880443B4
:100EA0002C82AC894EF6F3100440B0883189084397
:100EB000718908430443AC81AC8A4FF6FF4004407B
:100EC000B0890443AC8201A8FFF7A6FC1148874211
:100ED00002D1DDF810A001E0DDF80CA00AEBCA0099
:100EE00000EB0A1031688900B0FBF1F86420B8FB10
:100EF000F0F004012009642101FB1089322000EB8D
:100F00000910B0FBF1F000F00F0004432C8106B093
:100F1000BDE8F08700380140C1F3080282807047C5
:100F200010B53348007858B9012031490870322192
:100F3000304801F05AFE4FF47A712F4801F055FE07
:100F400001F062FD2D49088008460088002824DD54
:100F50004FF4006001F034F92949898988420BD1A6
:100F6000012002F023F92548008800283FDD01F028
:100F700013FF01F053FD3AE040F6060001F020F9BE
:100F80001F498989884232D101F092FE1B480088AE
:100F900000282CDD01F042FD29E0164801F013FE87
:100FA00028B3144801F01CFE002415E000BF04EB38
:100FB0008400144901EBC00013490860022002F0CC
:100FC000F5F800BF0D480088002803DD01F0E4FEBD
:100FD00001F024FD601CC4B2282CE7DB064801F0B8
:100FE000F2FD20B1044801F0FBFD01F0A5FF10BDAA
:100FF0001000002000000020080000204C0000200D
:1010000014010020181100205400002000BFFEE74A
:101010000FB4054B10B503A9044A029800F02CF850
:1010200010BC5DF814FB0000F11B0008F00000206C
:101030000FB41CB50A46521ECDE9000207A9054BA4
:101040006A46069800F018F8009A002111701CBC3E
:101050005DF814FBD314000802E008C8121F08C191
:10106000002AFAD170477047002001E001C1121F29
:10107000002AFBD1704700002DE9FF4F8DB00F46CD
:101080000546002606E025280BD0DDE90F12904723
:101090006D1C761C28780028F5D111B03046BDE8CB
:1010A000F08F0024A246A1460122EA4900E0044351
:1010B00015F8013F203B02FA03F00842F7D12878E7
:1010C0002A2810D06FF02F022878A0F130010929CA
:1010D00014D80AEB8A0102EB410144F0020400EB50
:1010E000010A6D1CF0E701CF5FEA000A03D544F462
:1010F0000054CAF1000A44F002046D1C28782E281E
:1011000017D115F8010F44F004042A280ED06FF00F
:101110002F022878A0F1300109290AD809EB8901AA
:1011200002EB410100EB01096D1CF2E757F8049B4B
:101130006D1C28786C280FD006DC4C2817D0682846
:101140000DD06A2814D104E0742810D07A280FD169
:101150000DE044F400140AE044F4801401E044F487
:1011600040146978814202D104F580146D1C6D1C15
:101170002A786E2A1FD00CDC632A31D004DC002AC6
:101180008BD0582A11D19FE0642A68D0692A0CD1EB
:1011900065E0732A2ED004DC6F2A73D0702A04D144
:1011A00097E0752A6FD0782A6ED01046DDE90F12CD
:1011B0009047761C4CE1C4F30250022806D0032865
:1011C00009D0042801CF09D0066041E101CFF11711
:1011D000C0E900613CE101CF068039E1067037E1EA
:1011E00017F8040B8DF8000000208DF80100EB4685
:1011F000012003E057F804BB4FF0FF3061074FF0C8
:10120000000102D40DE008F10101884649450FDADA
:101210008045F8DB1BF808100029F4D108E008F13C
:10122000010188468142FADB1BF808100029F6D13B
:10123000DDE90F23AAEB08008146214600F032F9D0
:10124000304400EB080604E0DDE90F121BF8010B47
:101250009047B8F10108F7D221464846F3E00A2149
:10126000C4F302534FF0000B0891022B04D001CFBE
:10127000C117032B09D00AE0FF1D27F00707F7E885
:10128000020108E02EE01DE01EE000B2C117042BB1
:1012900001D140B2C117002907DA4FF0000CD0EBA2
:1012A0000C006CEB01012D2302E0230504D52B2358
:1012B0008DF82430012303E0E30701D02023F7E772
:1012C000984656E00A210EE010204FF0000B0890DF
:1012D0000CE010214FF0000B44F004044FF008091B
:1012E000089103E008214FF0000B0891C4F302536A
:1012F000022B04D001CF0021032B06D006E0FF1DF6
:1013000027F00707F7E8020103E080B2042B00D1C1
:10131000C0B24FF0000823072BD5702A07D0DDF8A4
:1013200020C08CF0100C5CEA0B0C05D00EE04023C2
:101330008DF82430012308E050EA010306D0302361
:101340008DF824308DF8252002239846DDF820C042
:101350008CF0080C5CEA0B0C0BD150EA010301D1B4
:10136000630706D530238DF824304FF00108A9F12A
:101370000109582A04D038A20B9208AA0A920BE05D
:101380003AA2F9E75B46089AFEF76AFF0B9B9B5C63
:101390000A9A521E0A92137050EA0102F2D10A9878
:1013A000ADEB000000F1200B600702D524F480347F
:1013B00001E04FF00109D94502DDA9EB0B0000E087
:1013C000002000EB0B0141440890AAEB010AE00366
:1013D00006D4DDE90F232146504600F063F80644A9
:1013E0004FF0000908E009A911F80900DDE90F1222
:1013F000904709F10109761CC145F4DBE0030CD5E7
:10140000DDE90F232146504600F04CF8064404E085
:10141000DDE90F1230209047761C0899481E08908D
:101420000029F5DC08E00A980A990078491C0A911D
:10143000DDE90F129047761CBBF10001ABF1010B07
:10144000F1DC21465046DDE90F2300F019F806448F
:101450006D1C1FE609280100303132333435363730
:1014600038396162636465660000000030313233F0
:101470003435363738394142434445460000000090
:101480002DE9F041044600251E461746880404D481
:1014900005E039462020B0476D1C641EF9D528466A
:1014A000BDE8F0812DE9F041044600251E46904636
:1014B000C80301D5302700E02027880404D505E0C3
:1014C00041463846B0476D1C641EF9D52846BDE834
:1014D000F0814A68002A06D00A68531C0B6010701D
:1014E0004868401E486070477047000010B50E48BD
:1014F000006800F11C04207820B1012808D00228DF
:101500000FD10BE00020A06008A0FFF781FD08E0EC
:101510000A4860604FF4AF60A06002E00020A06065
:1015200000BF00BF10BD0000540000207569705F4F
:1015300061636B6564210D0A0000000048180020FB
:1015400030B5044613E0106805782068057010680F
:10155000401C10602068401C20601888401E1880C5
:10156000A088401EA0808D4201D1022030BDA088FD
:10157000002802DD18880028E5DC188808B900205A
:10158000F4E70BE0106805781888401E1880106892
:10159000401C10608D4201D10320E7E71888002825
:1015A000F0DC0120E2E7016082807047F0B50B4675
:1015B000144619461E19751E0BE04E780F7806EB7F
:1015C0000726B2B28618B0B2904201DA461CB0B219
:1015D000891CA942F1D3A9420AD10E78002707EB52
:1015E0000626B2B28618B0B2904201DA461CB0B2FA
:1015F000F0BD10B5FEF784FF10BD704710B5074869
:10160000006800F11C0400202070A06004A060604D
:101610006068FEF7E9FDA06010BD000054000020E6
:10162000436F6E6E6563742053544D33322D4644C0
:1016300020426F6172642053756363657373210088
:10164000014691F82000062821D11248007800F0C8
:101650000100E0B1088A104A1268528A90420CDDFB
:10166000088A0D4A1268528A801A08820A4A486813
:101670001268528A1044486005E00A8A486810449B
:10168000486000200882012081F820007047002077
:10169000FCE70000500000205400002070B5044614
:1016A0000025102066490860FF220021104600F046
:1016B0002DFA0020634908600021082000F002FA9A
:1016C0000021092000F0FEF900210C2000F0FAF9B9
:1016D00000210D2000F0F6F9FE210A2000F0F2F9B9
:1016E00019210B2000F0EEF9FF21042000F0EAF9A7
:1016F0001921052000F0E6F9FF21062000F0E2F9AB
:101700001F21072000F0DEF9B021382000F0DAF9BF
:101710003F21282000F0D6F93021292000F0D2F90D
:10172000F921302000F0CEF9F721312000F0CAF97C
:101730000D21C02000F0C6F90021C12000F0C2F93F
:101740003322C221802000F0E1F91221C62000F0EE
:10175000B9F90C21C72000F0B5F91521C42000F01B
:10176000B1F9DC21CA2000F0ADF90521CB2000F051
:10177000A9F92178E42000F0A5F96178E52000F0CE
:10178000A1F9A178E22000F09DF9E178E32000F0D2
:1017900099F92179E02000F095F96179E12000F0D4
:1017A00091F9E42000F02CF9217888422FD1E4202F
:1017B00000F026F90646314623A0FFF729FCE52074
:1017C00000F01EF90646314623A0FFF721FCE22077
:1017D00000F016F90646314623A0FFF719FCE32076
:1017E00000F00EF90646314623A0FFF711FCE02079
:1017F00000F006F90646314623A0FFF709FCE12078
:1018000000F0FEF80646314623A0FFF701FC4FF436
:101810008071002000F0DBF84FF48071102000F0A0
:10182000D6F81F2000F034F9C0221B21802000F0E0
:101830006DF904221F21802000F068F970BD0000BE
:1018400010080140A80000204D4141445235203D80
:1018500020307825780D0A004D4141445234203D16
:1018600020307825780D0A004D4141445233203D07
:1018700020307825780D0A004D4141445232203DF8
:1018800020307825780D0A004D4141445231203DE9
:1018900020307825780D0A004D4141445230203DDA
:1018A00020307825780D0A002DE9F04105460F46D5
:1018B000392000F0A5F810B90020BDE8F0812948D2
:1018C0000178002000F0FEF826480088C0F30721C8
:1018D000012000F0F7F800213A2000F0B7F8214984
:1018E000086000213A2000F0B1F81E49096841EA79
:1018F00000201C49086000213A2000F0A7F80446A7
:1019000000213A2000F0A2F844EA0024241F00211C
:101910003A2000F09BF8064600213A2000F096F8A5
:1019200046EA0026681EA04200D26C1E06F0800027
:1019300008B9002403E03946204600F06BF8094856
:1019400001780C2000F0BEF806480088C0F307219B
:101950000D2000F0B7F840221E21802000F0D6F8BC
:101960002046AAE7A800002070B504460D46FF21D6
:10197000022000F0A7F81921032000F0A3F8FF20AF
:101980002044C1B2062000F09DF841F6FF1020442B
:10199000C0F30721072000F095F8002211467A20B5
:1019A00000F0B4F82946204600F098F808221F21DC
:1019B000802000F0ABF81C2000F022F800F00200BC
:1019C00020B108221F21A02000F0A0F870BD70B542
:1019D00005460C462946D42000F074F8E1B2D62022
:1019E00000F070F8C4F30721D72000F06BF800BFB7
:1019F000EA2000F005F800F001000028F8D170BDE1
:101A000010B50446204600F043F82146002000F0BF
:101A10001DF810BD70B505460C4610200A49086037
:101A20003A20FEF763FF05E06D1E0020FEF75EFF23
:101A30002070641C002DF7D1002020701020024976
:101A4000091F086070BD00001408014070B505460C
:101A50000C46002610200D49086004F01F0040EAE3
:101A600005063046FEF742FFFF20FEF73FFF064621
:101A700004F0800018B1FF20FEF738FF0646102062
:101A80000249091F0860304670BD0000140801407B
:101A900010B5044604F060000949097888420ED068
:101AA00003221F21A02000F031F8C4F341121F21AE
:101AB000802000F02BF804F060000149087010BD90
:101AC000A400002070B504460D462046FFF7E0FF55
:101AD0002A462146402000F019F870BD70B5044632
:101AE0000D461020084908607A20FEF7FFFE04E04A
:101AF000641E2878FEF7FAFE6D1C002CF8D1102029
:101B00000149091F086070BD140801402DE9F0412A
:101B100004460D461646002710200949086005F0C6
:101B20001F0040EA04073846FEF7E0FE3746384615
:101B3000FEF7DCFE10200249091F0860BDE8F081B5
:101B40001408014010B5044604F007017520FFF7A2
:101B5000B9FF10BD10B50E48FFF7A0FD0D48027883
:101B60000D490B4800F0FAFB002405E00848005D31
:101B70000A490855601CC4B2062CF7DB40F27641D6
:101B80001420FFF724FF0220FFF7DCFF10BD000048
:101B9000C8000020E8000020CE0000203C0000200B
:101BA0002DE9F04104460D460127208D10B1612832
:101BB00015D103E000BF6120208500BF2021284609
:101BC000FEF708FB461C3246084904F1280000F0E5
:101BD00097FC10B90020BDE8F08100BF00BF00BF36
:101BE0000027002020850220F5E70000151C0008D2
:101BF00070B504460D46E1B20548FFF78DF900BF08
:101C000040210348FFF72AF90028F9D0204670BD8B
:101C10000044004070B504462546284600F046FBC7
:101C20000646334604A240F6CA7104480068FFF72E
:101C3000FFF980B270BD000025357500440000201A
:101C400070B504462546B5F8AC00064931F81030A9
:101C500005A240F6CA7106480068FFF7E9F980B2AC
:101C600070BD0000A81700202535750A000000008F
:101C70004400002070B505462C469C2000590D49B3
:101C80000968498A884205DD0A480068408AC4F824
:101C9000A00003E09C200059C4F8A0009834064836
:101CA000A26821680068FEF765FA2089983C80B236
:101CB00070BD000054000020440000202DE9F04FCA
:101CC0008BB005460A950A9DB5F8AC0000EB800084
:101CD000234901EBC004E08800F072FA06466088F0
:101CE00000F06EFAC7B2608800F06AFA4FEA202866
:101CF000208800F065FA00F0FF09208800F060FA03
:101D00004FEA202AA08800F05BFA8346607E00F04C
:101D1000100008B1212200E02022208A08B12A23E5
:101D200000E02023A07EE17ECDE90832CDE9061057
:101D3000607E00F00F000B4951F820005B460A4A14
:101D400040F6CA71CDE900A9CDE90287CDE904606A
:101D500006480068FFF76CF980B20BB0BDE8F08F61
:101D60001811002080000020905C00084400002032
:101D700010B50446204600F009F894F896000128B2
:101D800002D1204600F0D4F810BD000070B5044622
:101D90000125A08840B1FE280AD0B0F5827F24D06A
:101DA000B0F5947F7CD199E000BFFE20A08000BFF9
:101DB0002021201D00F01AFC08B9002070BD00BFD2
:101DC0000422554904F15000FEF72BFA40B100BF40
:101DD00010205249087000BF0020A0800120EDE7CC
:101DE00000BF4FF48270A08000BF2021201D00F0B2
:101DF000FDFB08B90020E1E700BF94F850002F2850
:101E000008D000BF10204549087000BF0020A08006
:101E10000120D3E75120005D202803D05120005D30
:101E20003F2806D114223E4904F18200FEF7C6F98C
:101E30000CE0201D00F05DFB401E04F1500100226B
:101E40000A54142204F18200FEF7B8F95120005D13
:101E50003F2810D15620005D31280CD12021314877
:101E6000FEF74BFB40213048FEF745FB08212E488A
:101E7000FEF741FB29E05120005D3F2811D156209B
:101E8000005D32280DD140212748FEF736FB202186
:101E90002448FEF730FB08212348FEF72CFB14E012
:101EA00034E05120005D3F280FD15620005D3328DB
:101EB0000BD108211C48FEF720FB20211948FEF712
:101EC0001AFB40211848FEF716FB012084F8960003
:101ED0001BE000BF4FF49470A08000BF0A21201DBA
:101EE00000F084FB08B9002068E700BF08220F4912
:101EF00004F15000FEF795F938B9201D00F0F9FA09
:101F0000801E04F1500100220A54E2E700BF0025C0
:101F10000020A080022051E75B5A000850000020FA
:101F2000A05A0008000C014000140140B65A0008F5
:101F300070B504460126B4F84C00E9283AD005DC17
:101F400048B1E3281DD0E62868D127E0EF284ED01D
:101F5000F12863D157E004F1980104F1820000F008
:101F6000BFF910BB04F19801304800F0B9F92F49CE
:101F700004F18200FEF74CF900BFE320A4F84C0006
:101F800000BF2B49204600F00FFC08B9002070BDAF
:101F900000BF00BFE620A4F84C0000BF204600F0C0
:101FA000D1FB08B90020F2E734E000BFE920A4F833
:101FB0004C0000BF1F49204600F0F6FB08B9002086
:101FC000E5E700BF2E2104F18200FEF703F9054684
:101FD000A5B1062218492846FEF723F970B900205A
:101FE000A4F84E0000BFEF20A4F84C0000BF20462C
:101FF00000F026F808B90020C9E70BE000BFF12087
:10200000A4F84C0000BF204600F09CFB08B900205B
:10201000BDE700BF10200949087000BF00BF0026BF
:102020000020A4F84C000220B1E70000AC5A0008E0
:10203000135B0008BF5A0008645C000850000020D1
:102040002DE9F04104464FF00108B4F84E0030B1DC
:1020500091282BD0932836D0B2287DD18CE09FE0F8
:10206000D4F898000078252846D1D4F89800407814
:10207000212841D1D4F89800C01CC4F8A4009C20A9
:102080000059C01EC4F8A800D4F8A40010F8010C30
:102090003A2813D1D4F8A410481C04F1980100F098
:1020A0001FF900BF9120A4F84E0000BF204600F0A9
:1020B00049FB10B90020BDE8F08112E000BF932079
:1020C000A4F84E0000BFD4F8A40000F0D1F80746F1
:1020D000D4F8A46031462046B84708B90020EAE7A2
:1020E00000BF204600F0E8F99834E06820602169DC
:1020F000983C9C20015153E09C2000592F490968CD
:10210000498A884205DD2D480068408AC4F8A0004D
:1021100003E09C200059C4F8A000D4F8980000788F
:10212000252807D1D4F89810481C2521FEF752F82D
:10213000054605E02521D4F89800FEF74BF8054642
:10214000ADB1D4F89800A84211D054F8980F281ACD
:10215000A060A068983C00E028E018490968498A16
:10216000884204DB15480068408AC4F8A00000BF1C
:10217000B220A4F84E0000BF204600F011FC08B9C0
:10218000002098E700BF54F8980FA168084444F86D
:1021900098099C200059D4F8A010411A9C200151A4
:1021A0009C20005900283FF75BAF00BF00BF4FF0F5
:1021B00000080020A4F84E0002207CE75400002014
:1021C0000146080240EA212080B2704710B5264837
:1021D000006800F11C042548007800F01000002879
:1021E00040D12248007800F0200000283AD11F4852
:1021F000007800F08000002834D11C48007800F0FE
:102200004000B0B1312204F15001201D00F0C0F9AE
:10221000312204F1500104F1280000F0B9F9002046
:10222000A4F84C0084F8960020702046FFF7A0FD2B
:1022300018E0A4B10D48007800F0080048B12078FB
:10224000401C20702078142805DB202007490870E6
:1022500001E0002020702046FFF78AFD02E02020E8
:102260000249087010BD00005400002050000020FA
:1022700070B505460B4C0FE021680868FDF7B4FF08
:1022800006462168324608682946FDF7CAFF10B99C
:102290002068406870BD241D20680028ECD10248E9
:1022A000F8E7000070000020DB24000870B5064647
:1022B0000025094C0BE03046616800F037F818B98A
:1022C000064830F8150070BD681C85B22468002CE3
:1022D000F1D10020F7E70000305A00083418002040
:1022E0002DE9F04107460D4600260E4C15E0384614
:1022F000616800F01BF868B9A0682860E068686051
:10230000094830F81600401C074921F81600012042
:10231000BDE8F081701C86B22468002CE7D1002053
:10232000F6E70000305A00083418002010B50246C5
:102330000B46002100BF585C28B1505C0D2802D02C
:10234000505C0A2801D1002010BD505C5C5CA042AA
:1023500001D00120F8E7481CC1B2ECE730B50346D4
:1023600000200A4C227004E00C5C094D2C54441CE3
:10237000E0B20428F8DB002004E01C5C054D2C547E
:10238000441CE0B20628F8DB30BD0000AC000020A1
:10239000B3000020AD000020FEF74AF9FDF7D0FFA2
:1023A000FEF7C0FAFEF7BCF84BF2040000F0CAFEDC
:1023B00048F6135000F0C6FE01E0FEF7B1FDFCE761
:1023C00070B504460E460125208D10B1C3281CD1DE
:1023D00007E00020A4F8AC0012E000BFC320208575
:1023E00000BF22460C4904F1280000F089F808B922
:1023F000002070BD00BFB4F8AC00401CA4F8AC00D5
:10240000B4F8AC001628E8D300BF00BF00250020B8
:1024100020850220EDE70000411C000810B51C4893
:10242000006800F11C04207830B91AA0FEF7F0FD16
:102430002046FEF7DDFB29E0207801280CD1194861
:102440000088012804D118480068007841281DD070
:1024500000202070A06019E02078022816D11148D1
:10246000008804280AD104220F4801680FA0FDF754
:10247000C2FE18B900202070A06007E0094800885B
:102480000C490860084660600420A06010BD000090
:10249000540000207569705F6E6577646174612116
:1024A0000D0A00004C0000204400002073746F707F
:1024B00000000000C400002070B5044654F8A40FCA
:1024C0000A21FDF787FE451C2188691A89B26068D8
:1024D000401A606044F8A45970BD02460B460121C1
:1024E000108D00B900BF00BF002100201085022020
:1024F000704701468A8B088B101A80B27047000023
:102500002DE9F04104460D4616460127608810B1BA
:10251000EE2832D11BE02DB900BF002060800120E1
:10252000BDE8F0813046A847208217480068606007
:10253000002084F8200000BF1448007800F0040058
:1025400008B13046A84700BFEE20608000BF20469B
:10255000FFF776F88046204600F0CCF808EA00083D
:10256000B8F1000F01D10020DAE700BF208A00286F
:10257000E2DC002084F8200000BF00BF002700201C
:1025800060800220CCE700004400002050000020C2
:1025900070B504460E461546002084F8200060827F
:1025A000E660E561AAB2314604F11400FEF7FBFFD4
:1025B00000202080608070BD0146488A002801DD2F
:1025C0000120704791F82000022804D1032081F8EF
:1025D00020000020F5E70448007800F0020008B170
:1025E0000120EEE70020ECE75000002070B5044623
:1025F0000D460126608820B1A0F21B10002836D1BC
:102600000EE0A08B82B204F11400E168FEF7CBFF6C
:1026100000BF608AA0B900BF40F21B10608000BFFD
:102620002046FFF7C9FF08B9002070BD00BF022097
:1026300084F8200011480068A0601148008860827A
:1026400004F1120304F108022946981CFEF778FFF2
:1026500000F002000028DCD02046FFF74AFF28B92E
:10266000002084F8200000BF6080DEE700BF00BFCC
:102670000026002060800220D7E7000044000020F0
:102680004C0000202DE9F04104460E461546012776
:10269000608810B1CF2827D110E02DB900BF0020ED
:1026A00060800120BDE8F08166602582002084F80A
:1026B000200012E000BFCF20608000BF2046FEF760
:1026C000BFFF8046204600F015F808EA0008B8F180
:1026D000000F01D10020E5E700BF208A0028E9DCD7
:1026E000002084F8200000BF00BF00270020608089
:1026F0000220D7E710B5044694F82000062804D13C
:102700000E48007800F00400A8B1208A0C4909683E
:10271000498A884206DD0A4A1268518A606801F0D7
:102720001BFD03E0218A606801F016FD062084F895
:102730002000012010BD0020FCE700005000002018
:102740005400002070B504460125208D10B1652885
:1027500021D104E000BF00BF6520208500BF2246D4
:10276000104904F12800FFF7CBFE08B9002070BD26
:1027700000BF9C200059D4F8A010411A9C200151A0
:1027800054F8980FA168084444F898099C2000590F
:102790000028E0DC00BF00BF0025002020850220CB
:1027A000E5E70000751C00082DE9F04104460E46DF
:1027B0000127208DCC2865D007DC78B1C32811D043
:1027C000C72829D0CA287CD144E0CE2872D0D0288E
:1027D00078D0D22877D0D428F5D1B1E000BFC3207B
:1027E000208500BF3046FDF7FFFC8046424631465B
:1027F00004F12800FFF746FF10B90020BDE8F08182
:1028000000BF2E2104F18200FDF71AFD05468DB9A7
:1028100000BFC720208500BF5448FDF7E5FC804677
:102820004246524904F12800FFF72CFF08B9002066
:10283000E4E793E0052229464D48FDF7F2FC28B174
:10284000062229464B48FDF7ECFC88B900BFCA2098
:10285000208500BF4848FDF7C7FC804642464649F0
:1028600004F12800FFF70EFF08B90020C6E775E065
:10287000042229464148FDF7D4FC88B900BFCC208A
:10288000208500BF3E48FDF7AFFC804642463C49EC
:1028900004F12800FFF7F6FE08B90020AEE75DE07E
:1028A000042229463748FDF7BCFCA8B900BFCE205A
:1028B000208500BF3448FDF797FC804642463249E8
:1028C00002E04CE012E029E004F12800FFF7DAFE14
:1028D00008B9002092E741E0042229462B48FDF781
:1028E000A0FC88B900BFD020208500BF2848FDF794
:1028F0007BFC80464246264904F12800FFF7C2FED1
:1029000008B900207AE729E0042229462148FDF78A
:1029100088FC88B900BFD220208500BF1E48FDF783
:1029200063FC804642461C4904F12800FFF7AAFEDA
:1029300008B9002062E711E000BFD420208500BF65
:102940001648FDF751FC80464246144904F1280020
:10295000FFF798FE08B9002050E700BF00BF00BF96
:10296000002700202085022048E70000335C000893
:102970005E5C0008645C00088B5B0008705C00080B
:10298000A75B0008755C0008DE5B00087A5C000845
:10299000FA5B00087F5C0008165C00086E5B0008AC
:1029A00070B504460125208D10B1722811D103E0C5
:1029B00000BF7220208500BF04F12800D4F8A020B9
:1029C000D4F89810FFF75EFE08B9002070BD00BF74
:1029D00000BF00BF0025002020850220F6E7000090
:1029E00010B50648006800F11C04A068002803DD4B
:1029F000D4E9010101F0B0FB10BD0000540000203B
:102A000010B5FFF7A7F810BD10B5034940F2DC5030
:102A1000FEF74AFF80B210BD1401002010B5034933
:102A200003480088FEF7A0FF10BD0000140100203D
:102A30004C00002010B52948007800F0200020B19B
:102A400027A0FEF7E5FAFEF74FFD2448007800F0D6
:102A5000800020B126A0FEF7DBFA00F0B3F81F4893
:102A6000007800F0100020B125A0FEF7D1FAFEF7A3
:102A7000C4FD1A48007800F0400020B124A0FEF701
:102A8000C7FAFEF7BBFD1548007800F0010008B159
:102A9000FEF72CFD1148007800F0020008B1FFF7A6
:102AA000BDFC0E48007800F0040098B90B4800788F
:102AB00000F0020070B90948007800F0010048B940
:102AC0000648007800F0400020B90448007800F083
:102AD000080008B1FFF784FF10BD0000500000207F
:102AE0007569705F61626F72746564210D0A000020
:102AF0007569705F74696D65646F7574210D0A0086
:102B00007569705F636C6F736564210D0A00000066
:102B10007569705F636F6E6E6563746564210D0A1D
:102B20000000000010B5094800688088B0F5A04F8B
:102B300004D0A0F53040043830B902E0FFF746FB7E
:102B400002E0FFF777FF00BF00BF10BD5400002078
:102B500070B504460E460125208D10B1AB2827D153
:102B600012E00020A4F8AC001DE0B4F8AC0000EBCB
:102B70008000124901EBC000407E00F00F0068B1F8
:102B800000BFAB20208500BF22460D4904F128007C
:102B9000FFF7B6FC08B9002070BD00BFB4F8AC0068
:102BA000401CA4F8AC00B4F8AC002828DDDB00BF62
:102BB00000BF0025002020850220EDE7181100202D
:102BC000BD1C0008704710B50446FEF712FD2168D1
:102BD000401A6168884201DB012010BD0020FCE73B
:102BE000D0E9001211440160704770B504460D46EB
:102BF0006560FEF7FEFC206070BD0000C2780A44EC
:102C0000194BDA70827802EB21229A7042785A705E
:102C100002781A701A469278B2EB212F0ADA1A4615
:102C20005278521C5A701A4652781AB91A461278BB
:102C3000521C1A700C4AD278CBB29A4212DA0A4A63
:102C40009278521C084B9A701A46927852B91A46DA
:102C50005278521C5A701A4652781AB91A4612788B
:102C6000521C1A70704700006000002010B5044626
:102C700021460D4800680830FFF7C0FF0B48007878
:102C80000949096808720948417807480068417293
:102C9000064881780448006881720448C178024877
:102CA0000068C17210BD00005400002060000020C8
:102CB00010B5354800882A2803D200203249088000
:102CC00010BD0020304908803048808AB0F5807FF0
:102CD00003D0B0F5007F54D141E02C48C08C2C4982
:102CE000098888423AD12948008D29494988884273
:102CF00034D126491631881D00F04AF94FF400708E
:102D0000224988820846D1F816200262498B8184C4
:102D100020490A68C0F81620898841831D490A683D
:102D2000C0F806208988418101460A6A0260898CC0
:102D30008180808B1549C8840846C18B0185144861
:102D4000008812498883124841881048C1834FF493
:102D5000C1600E4988812A200B49088011E00B4888
:102D6000C08C0B49098888420AD10848008D08495F
:102D70004988884204D105491631881D00F008F9B8
:102D800000BF00BF00BF9BE74C00002014010020E3
:102D9000300000203C00002010B55B48C08B5B4930
:102DA000098888420CD15848008C58494988884283
:102DB00006D1554856490A6802608988818091E0A9
:102DC0005148C08B53490988084053490988514AE2
:102DD0001288114088420BD14B48008C4D494988DC
:102DE00008404D4949884B4A52881140884208D0D2
:102DF00000BF4A4800884A490880484840884880BF
:102E000008E000BF4048C08B454908803E48008C20
:102E1000488000BF00204349087016E04148007810
:102E200000EB4000404901EB80043D4800882188C8
:102E3000884205D13A4840886188884200D108E03C
:102E400038480078401C3749087036480078082810
:102E5000E4DB00BF3348007808283ED1FF2206217A
:102E60002948FDF799F928480021016281842F49FA
:102E70000A68C0F80620898841812C490A68C0F890
:102E800016208988418300BF254800881E49C884D0
:102E9000234841881C48018500BF00BF1E480088A8
:102EA000194988831C4841881748C18300BF4FF4E3
:102EB000807015498882C88108200882062088749D
:102EC0000420C8744FF4C160888101F136001849AC
:102ED00008602A201749088010BD0B48616801600E
:102EE00021898180084811490A68C0F8062089882C
:102EF00041810820044988810E4800880E300D4920
:102F0000088000BFE8E7000014010020FE4100082F
:102F1000F841000838000020300000203400002074
:102F2000680000206C000020D41700203C00002026
:102F3000440000204C00002012490978491C114A25
:102F400011700021104A117017E00F49097801EB48
:102F500041010E4A02EB810001884288114339B1D8
:102F6000817A084A1278511A782901DB0021016020
:102F700005490978491C044A117003490978082950
:102F8000E3DB70476E0000206C000020D4170020A7
:102F900010B502460023424C23701FE0404B1B78C3
:102FA00003EB43033F4C04EB830003888BB143885E
:102FB0007BB113880488A3420BD153884488A34271
:102FC00007D10B6843608B880381374B1B78837272
:102FD00010BD334B1B785B1C314C2370304B1B787E
:102FE000082BDBDB00232E4C237010E02C4B1B78CE
:102FF00003EB43032B4C04EB8300038813B9438892
:1030000003B908E0264B1B785B1C254C2370244B2E
:103010001B78082BEADB00BF214B1B78082B34D12F
:103020000023224C2370224C23701D4C23701DE082
:103030001B4B1B7803EB43031A4C04EB8300837A8E
:10304000194C2478E31A194C2478A34209DD837AB9
:10305000154C2478E31A154C2370114B1B78144C33
:1030600023700F4B1B785B1C0D4C23700C4B1B7893
:10307000082BDDDB0E4B1B78094C237023461B7895
:1030800003EB4303074C04EB8300136803600B68F6
:1030900043608B880381044B1B78837200BF97E7E2
:1030A0006C000020D41700206E0000206F0000206C
:1030B0006D0000200020164908700AE00020154924
:1030C000134A127821F8120011480078401C104968
:1030D00008700F4800782828F0DB00200C490870A1
:1030E0000DE000200A49097801EB81010A4A02EB50
:1030F000C101487606480078401C0549087004481C
:1031000000782828EDDB4FF4806004490880704780
:103110006400002058170020181100205E000020D5
:1031200010B5142206490020FEF740FA044614B9EF
:103130004FF6FF7010BD2046FFF742F8FAE7000097
:103140002201002000210D4A117010E00C490B4AA9
:10315000127831F8121029B90949084A127821F871
:103160001200704705490978491C044A1170034947
:1031700009782829EADB00BFF3E70000640000209B
:103180005817002010B50446214602A0FDF740FF65
:1031900010BD0000754950206C6F67206D6573731A
:1031A0006167653A2025730D0A00000070B5054679
:1031B000FA480468FA48FB490860FB490860032D97
:1031C0000ED1607E00F00F00032807D1208A28B9B5
:1031D0000820F6490870FFF7A5FCF8E300F0A9BF46
:1031E000022D73D1F248C078401CC0B2F049C870BB
:1031F00078B908468078401CC0B2887048B9084643
:103200004078401CC0B2487018B908460078401C8D
:1032100008700020E7490880E7490880607E072899
:1032200002D0607E052808D1A07E401CA076A07E3A
:10323000782860D1002060765DE0607E00285AD05A
:10324000208A00284CD0A17E481EA076002952D1A9
:10325000E07E082808D0607E022802D0607E012827
:103260000FD1E07E05280CD1002060768020CF4968
:103270000870FFF757FC1421C948363880F82F1022
:10328000FEE3E07E042801DD042000E0E07E03216F
:103290008140A176E07E401CE076C848C08C401C8E
:1032A00081B2C648C184607E00F00F00092822D296
:1032B000DFE800F02105060D13211421150057E366
:1032C0000021B748363880F82F1056E314E0042068
:1032D000B6490870FFF726FCDFE300BF00BFDDE35F
:1032E000607E00F00F00032805D10820AF49087068
:1032F000FFF718FC71E771E7B0484088401CAF4900
:103300004880A7483638807B45280BD0084600887F
:10331000401C08800846C088401CC880A8A0FFF751
:1033200031FF5BE79E483638417C007C01EB002092
:10333000A0490988884208DC99483638417C007CDD
:1033400001EB00209B49088003E0A7A0FFF71AFFCC
:1033500044E793483638007D00F03F0018B99048A4
:103360003638407D60B195480088401C93490880FC
:1033700008468089401C8881A7A0FFF703FF2DE73E
:10338000AB480088AB490988884205D1A8484088E5
:10339000A8494988884213D081483638C08BA4494F
:1033A0000988884206D17E483638008CA049498871
:1033B000884205D081480088401C804908800DE77C
:1033C000FFF7AEFE4FF6FF7188420CD07B480088B5
:1033D000401C7A4908800846C089401CC88196A0D4
:1033E000FFF7D0FEFAE66E483638C07D062800D1D9
:1033F00062E06B483638C07D01280CD06F480088E9
:10340000401C6E4908800846008A401C08828FA034
:10341000FFF7B8FEE2E66948808A401C81B267483F
:1034200081825F48363890F8220008280ED0634821
:10343000408A401C614948820846008B401C81B28A
:103440005E48018388A0FFF79DFEC7E6002154482F
:10345000363880F82210808C4FF6F771884208DBEE
:103460004F483638808C093081B24D4836388184D7
:1034700007E04B483638808C083081B248483638EF
:10348000818400BF46483638418BC183818B0184DB
:1034900000BF00BF66480188414836384183644810
:1034A00041883F483638818300BF4448C08A401C69
:1034B00081B24248C182F4E34048808B401C81B213
:1034C0003E48818300F060FE4FF6FF7188420ED0C7
:1034D0003A48408B401C394948830846008C401CC0
:1034E00081B23648018466A0FFF74CFE76E6694C4F
:1034F0001BE0607EC0B12A483638808CA1888842A3
:1035000012D127483638408CE18888420CD12448B3
:103510003638408B2188884206D121483638808B46
:103520006188884200D144E228345B488442E0D973
:103530001B48363890F82F0000F03F00022800D0DA
:1035400022E017483638808C5449088000205449BE
:1035500008700EE053485249097830F811004F497D
:103560000988884200D123E14D480078401C4C492D
:1035700008704B4800782828ECDB1048408D401C30
:1035800081B20E48418500BF0548363890F82F00BB
:1035900000F0040000B121E686E0000054000020A5
:1035A0004A01002044000020480000205000002074
:1035B0005A0000204C0000204E000020A8170020D8
:1035C00069703A20696E76616C6964207665727301
:1035D000696F6E206F7220686561646572206C652A
:1035E0006E6774682E00000069703A207061636B2A
:1035F00065742073686F72746572207468616E20E0
:103600007265706F7274656420696E20495020681D
:1036100065616465722E000069703A2066726167A8
:103620006D656E742064726F707065642E000000AA
:1036300030000020F441000869703A206261642083
:10364000636865636B73756D2E00000069703A20C6
:103650006E65697468657220746370206E6F722085
:1036600069636D702E00000069636D703A206E6FA3
:10367000742069636D70206563686F2E0000000020
:103680007463703A2062616420636865636B73756C
:103690006D2E000018110020301700206600002059
:1036A0006400002058170020FD48808C401C81B227
:1036B000FB4881841421FB4880F82F102820FA4908
:1036C00008805021F74880F82E1090F82900F7491B
:1036D0000870F44890F82D1080F82910F34801780C
:1036E000F04880F82D1090F82800F0490870ED4857
:1036F00090F82C1080F82810EC480178E94880F800
:103700002C1090F82700E9490870E64890F82B1033
:1037100080F82710E5480178E24880F82B1090F8EF
:103720002600E2490870DF4890F82A1080F8261039
:10373000DE480178DB4880F82A1090F82D00401C04
:10374000C1B2D84880F82D10B1B990F82C00401CB7
:10375000C1B2D44880F82C1071B990F82B00401CED
:10376000C1B2D04880F82B1031B990F82A00401C23
:10377000C1B2CC4880F82A10CA48408CCC49088095
:10378000C848818C4184CA480188C648818400BFEA
:10379000418BC183818B018400BF00BFC548018874
:1037A000C0484183C3484188BE48818300BFF5E3D8
:1037B00000240020BD49087030E0BC48007800EBD0
:1037C0008000BD4901EBC000407E30B9B7480078A9
:1037D00000EB800001EBC00424E0B448007800EB6B
:1037E0008000B54901EBC000407E072811D14CB1E3
:1037F000AE48007800EB800001EBC000807EA17E27
:10380000884206DDA948007800EB8000AA4901EB58
:10381000C004A6480078401CA4490870A34800785A
:103820002828CADB00BF4CB99D48008D401C81B2DE
:103830009B480185A1A0FFF7A5FCCFE4A848046040
:103840000320A07620760020A0750420E0750020DB
:10385000E0769448808CA0809248408CE08000BF45
:103860009048408B20808F48808B608000BF012073
:1038700060769C48007820739A484178617381781B
:10388000A173C178E17301202082864890F8291045
:10389000E17290F82810A17290F82710617290F8E8
:1038A000260020720120FFF7E1F97E4890F82E00F3
:1038B00000F0F00050285ADD00207C4908704AE0F2
:1038C0007A48007836307749085C8749087008469E
:1038D000007800B94AE084480078012805D173488F
:1038E0000078401C7149087035E07F480078022854
:1038F00020D16E48007837306A49085C042819D115
:103900006A4800783930095C684800783830654A80
:10391000105C41EA0020664908800846008840F6AD
:10392000CA71884201DD084601E061480088608272
:10393000A0821BE05D48007837305A49085C00B926
:1039400014E05A48007837305649085C57490978DE
:10395000084456490870534890F82E000521C1EBE1
:10396000201052490978B1EB800FA9DB00BF00BFDE
:1039700010214C4880F82F1000BF4A4890F82F00C3
:1039800040F00201474880F82F10022180F83610DD
:10399000042180F837100F2180F83810CA2180F8F0
:1039A00039102C204049088060213E4880F82E10B4
:1039B00037E34B48046000204C490870394890F8C0
:1039C0002F0000F0040060B10020607600E02FE2DC
:1039D00047A0FFF7D7FB202044490870FFF7A2F863
:1039E000A7E3304890F82E00001180002F4908709E
:1039F0002D4800880978401A14382B490880607EC9
:103A000000F00F00022806D1264890F82F0000F0A1
:103A10003F00122822D024480088002805DC2148D5
:103A200090F82F0000F00300C0B11E4890F8260067
:103A3000217A884211D11B4890F82710607A814280
:103A40000BD1184890F82810A07A814205D115486A
:103A500090F82910E07A814200D0D4E2114890F821
:103A60002F0000F01000D0B1208AC0B1218A04F1EB
:103A70000C00FFF7C3F80B4890F82A00264900E035
:103A8000C6E2097888420AD1064890F82B002249FC
:103A9000497888427ED1034840E00BE26CE179E04E
:103AA000A8170020140100204C0000206400002012
:103AB0006600002030000020181100207463703A66
:103AC00020666F756E64206E6F20756E7573656409
:103AD00020636F6E6E656374696F6E732E000000F5
:103AE000540000205A0000206500002050000020F3
:103AF0007463703A20676F742072657365742C204C
:103B000061626F7274696E6720636F6E6E65637455
:103B1000696F6E2E000000006000002090F82C00FD
:103B2000FC498978884235D1FB4890F82D00F94945
:103B3000C97888422ED1F74800782073F54841783B
:103B400061738178A173C178E173E07ED8B9217E79
:103B5000A27E891A48B2A17DA0EBE10148B2A17D05
:103B60000144A175002801DA414248B2E17DA0EB91
:103B7000A10148B2E17D0144E175E17DA27D01EB47
:103B8000E201217600BF0120E4490870207EA07682
:103B900000202082607E00F00F0009286BD2DFE851
:103BA00000F06A0525C0F4F3F2F1F000DB4800787C
:103BB00000F00100C8B1032060764020D7490870AA
:103BC00000202082D6480088002808DD08460078BA
:103BD00040F002000870D2480088FFF747F8002044
:103BE000D0490880FEF79EFF22E1A2E2CB48007890
:103BF00000F00100F0B3C84890F82F0000F03F003B
:103C0000122837D1C44890F82E0000F0F000502858
:103C10005EDD0020C44908704EE0C34800783630AD
:103C2000BD49085CC14908700846007800B94EE0FB
:103C3000BE480078012805D1BB480078401CBA492D
:103C4000087039E0B9480078022823D1B6480078D6
:103C50003730B149085C04281CD1B34800783930AA
:103C6000095CB14800783830AB4A105C41EA00206A
:103C7000AF4901E04BE0C4E108800846008840F607
:103C8000CA71884201DD084601E0A94800886082C7
:103C9000A0821CE0A448007837309F49085C08B92E
:103CA00015E03DE2A048007837309B49085C9E490A
:103CB000097808449C490870974890F82E0005211F
:103CC000C1EB201098490978B1EB800FA5DB00BF4C
:103CD00003206076904890F8260020728E4890F875
:103CE0002710617290F82810A17290F82910E172E3
:103CF0000120FEF7BBFF4220884908700020208287
:103D00008749088087490880FEF70CFF90E0202053
:103D100082490870FEF706FF002086490968487648
:103D200032E47D4890F82F0000F0010070B3607E0F
:103D300000F0100050BB208A00B1FAE178490988F0
:103D4000491C88B2FEF792FF7448007840F01000DA
:103D50007249087072480088002804DD084600781F
:103D600040F002000870FEF7DDFE012020820820EE
:103D700060760020E07600BF1121674880F82F10A0
:103D800046E1B9E032E132E10FE1D9E0FFE7624814
:103D900090F82F0000F02000B8B15F4890F835107F
:103DA00090F8340041EA00206349096808446249F8
:103DB0000860594890F8351090F8340041EA002026
:103DC00057490988081A564908805548008800282C
:103DD0000DDD607E00F0100048B95048007840F0DA
:103DE00002004E4908704E480088FEF73FFF4A48DF
:103DF00090F8311090F8300001EB00204C49088019
:103E0000A08A0988884202DB4948008810B9A08A44
:103E1000474908804648008860824048007800F0A2
:103E20000300E8B300203F490880FEF77BFE00BF97
:103E30003A48007800F0200040B10020394908805D
:103E400060761421344880F82F10E1E03348007880
:103E500000F0100068B10020324908800120208263
:103E6000042060760020E07611212B4880F82F1086
:103E7000CEE02C480088002819DD2848007800F0A2
:103E8000010008B100202082208A68B9608A254993
:103E90000988884202DA608A22490880214800E0C5
:103EA00029E00088208202E0208A1E490880002044
:103EB000E07600BF214800681F4908601948008863
:103EC00000280BDD208A002808DD208A28301449CC
:103ED00008801821104880F82F109DE00F480078C6
:103EE00000F0020038B128200D49088010210A484E
:103EF00080F82F1090E01CE10848007800F00100E5
:103F000030B100206076102004490870FEF70AFEE8
:103F100077E0000060000020140100205000002025
:103F20004C0000204E0000206400002065000020AE
:103F300066000020540000204400002048000020BB
:103F40007F480088002803DD7D480088FEF78EFE4C
:103F50007C4890F82F0000F00100A8B17A48007862
:103F600000F0010028B1072060760020A0762082B2
:103F700001E0062060760120FEF778FE10207249ED
:103F80000870FEF7CFFD3EE06F48007800F00100BA
:103F900028B10520607600202082CAE083E06848CE
:103FA0000088002800DD2EE0C3E065480088002876
:103FB00003DD63480088FEF759FE624890F82F0041
:103FC00000F0010060B1072060760020A07601209B
:103FD000FEF74CFE10205C490870FEF7A3FD12E0CE
:103FE00057480088002800DD0DE0A2E00BE05648AD
:103FF000007800F0010018B1072060760020A0765C
:1040000000BF00BF95E010214E4880F82F1000BF80
:1040100028204B49088000BF50214A4880F82E10C4
:1040200000BF217A474880F82A10617A80F82B1067
:10403000A17A80F82C10E17A80F82D10217B80F88D
:104040002610617B80F82710A17B80F82810E17B87
:1040500080F829100621C175A1884184E1888184F6
:1040600000BF3A480188374841833848418835487D
:10407000818300BF00BF2188C1836188018400BFA4
:10408000607E00F0100030B100212E4880F8311021
:1040900080F8301006E00F212A4880F83010CA213D
:1040A00080F8311000BF40212648817524480088DF
:1040B00001122448017422480178224841740021E9
:1040C00080F8351080F83410418600F05DF8C04368
:1040D00081B21C48418645201A498873002119483D
:1040E000C173417501751A480088401C1849088041
:1040F0000846008801121348817415480178114858
:10410000C17400210183FFF70BF8C04381B20D4851
:1041100001831048C08B401C81B20E48C18300BF90
:104120000C488088401C0B49888000200649087094
:1041300070BD0020024908800349087000BFF7E7FE
:104140004C0000201401002050000020300000200E
:1041500058000020A817002070B504460D46002D19
:104160000CDD07490D8007480068844206D00846E8
:104170000288214603480068FBF7FCFF70BD000081
:104180004E0000204800002010B5062000F002F884
:1041900010BD000070B504460F48417C007C01EB67
:1041A0000020143885B2281986B208220A491A312B
:1041B0003046FDF7FBF906462A46074922313046CC
:1041C000FDF7F4F9064616B94FF6FF7070BD30469C
:1041D000FDF7F6FFFAE700001401002000A24A04F0
:1041E00000A24A0400A24A040051250200A24A0487
:1041F000FFFFFFFF00000000FFFFFFFFFFFFFFFFCB
:10420000FFFF0000005D0008A11B0008F05C000833
:10421000512B00080C5D0008C1230008434C4F538C
:1042200045440053594E2D524356440053594E2D88
:1042300053454E540045535441424C49534845441C
:104240000046494E2D574149542D310046494E2DC7
:10425000574149542D3200434C4F53494E47005467
:10426000494D452D57414954004C4153542D41432C
:104270004B0000002F70726F6365737365732E734C
:1042800068746D6C0025213A202F68656164657241
:104290002E68746D6C0A3C68313E53797374656D99
:1042A0002070726F6365737365733C2F68313E3C99
:1042B00062723E3C7461626C652077696474683D2B
:1042C0002231303025223E0A3C74723E3C74683EF6
:1042D00049443C2F74683E3C74683E4E616D653CB9
:1042E0002F74683E3C74683E5072696F72697479CD
:1042F0003C2F74683E3C74683E506F6C6C20686163
:104300006E646C65723C2F74683E3C74683E457602
:10431000656E742068616E646C65723C2F74683ED3
:104320003C74683E50726F6373746174653C2F74A3
:10433000683E3C2F74723E0A25212070726F6365BF
:10434000737365730A25213A202F666F6F74657247
:104350002E68746D6C002F3430342E68746D6C00D0
:104360003C68746D6C3E0A20203C626F6479206268
:1043700067636F6C6F723D227768697465223E0ACD
:10438000202020203C63656E7465723E0A20202048
:104390002020203C68313E343034202D2066696C6A
:1043A00065206E6F7420666F756E643C2F68313EB9
:1043B0000A2020202020203C68333E476F203C61AB
:1043C00020687265663D222F223E686572653C2F2B
:1043D000613E20696E73746561642E3C2F68333EC4
:1043E0000A202020203C2F63656E7465723E0A20EF
:1043F000203C2F626F64793E0A3C2F68746D6C3EDE
:10440000002F66696C65732E7368746D6C002521CE
:104410003A202F6865616465722E68746D6C0A3C81
:1044200068313E46696C65207374617469737469A0
:1044300063733C2F68313E0A3C63656E7465723E5F
:104440000A3C7461626C652077696474683D22334C
:104450003030223E0A3C74723E3C74643E3C612023
:10446000687265663D222F696E6465782E68746D8A
:104470006C223E2F696E6465782E68746D6C3C2FDB
:10448000613E3C2F74643E0A3C74643E25212066E4
:10449000696C652D7374617473202F696E6465781F
:1044A0002E68746D6C0A3C2F74643E3C74643E3C10
:1044B000696D67207372633D222F666164652E709B
:1044C0006E6722206865696768743D3130207769BE
:1044D0006474683D25212066696C652D7374617470
:1044E00073202F696E6465782E68746D6C0A3E20A7
:1044F0003C2F74643E3C2F74723E0A3C74723E3C06
:1045000074643E3C6120687265663D222F66696C6A
:1045100065732E7368746D6C223E2F66696C6573CB
:104520002E7368746D6C3C2F613E3C2F74643E0AA0
:104530003C74643E25212066696C652D737461743A
:1045400073202F66696C65732E7368746D6C0A3CFA
:104550002F74643E3C74643E3C696D6720737263E3
:104560003D222F666164652E706E67222068656942
:104570006768743D31302077696474683D25212077
:1045800066696C652D7374617473202F66696C6540
:10459000732E7368746D6C0A3E203C2F74643E3C2D
:1045A0002F74723E0A3C74723E3C74643E3C61203F
:1045B000687265663D222F7463702E7368746D6C2B
:1045C000223E2F7463702E7368746D6C3C2F613EB5
:1045D0003C2F74643E0A3C74643E25212066696C5D
:1045E000652D7374617473202F7463702E736874F7
:1045F0006D6C0A3C2F74643E3C74643E3C696D678C
:10460000207372633D222F666164652E706E67228F
:10461000206865696768743D313020776964746823
:104620003D25212066696C652D7374617473202F9C
:104630007463702E7368746D6C0A3E203C2F746432
:104640003E3C2F74723E0A3C74723E3C74643E3CA5
:104650006120687265663D222F73746174732E73D6
:1046600068746D6C223E2F73746174732E7368745A
:104670006D6C3C2F613E3C2F74643E0A3C74643E7A
:1046800025212066696C652D7374617473202F7306
:10469000746174732E7368746D6C0A3C2F74643E7D
:1046A0003C74643E3C696D67207372633D222F66E3
:1046B0006164652E706E6722206865696768743D65
:1046C00031302077696474683D25212066696C6506
:1046D0002D7374617473202F73746174732E7368F7
:1046E000746D6C0A3E203C2F74643E3C2F74723E05
:1046F0000A3C74723E3C74643E3C6120687265669C
:104700003D222F7374796C652E637373223E2F7371
:1047100074796C652E6373733C2F613E3C2F746417
:104720003E0A3C74643E25212066696C652D7374D5
:10473000617473202F7374796C652E6373730A3CF4
:104740002F74643E3C74643E3C696D6720737263F1
:104750003D222F666164652E706E67222068656950
:104760006768743D31302077696474683D25212085
:1047700066696C652D7374617473202F7374796C22
:10478000652E6373730A3E203C2F74643E3C2F7485
:10479000723E0A3C74723E3C74643E3C6120687216
:1047A00065663D222F3430342E68746D6C223E2FA6
:1047B0003430342E68746D6C3C2F613E3C2F746431
:1047C0003E0A3C74643E25212066696C652D737435
:1047D000617473202F3430342E68746D6C0A3C2F52
:1047E00074643E3C74643E3C696D67207372633D43
:1047F000222F666164652E706E6722206865696786
:1048000068743D31302077696474683D25212066E5
:10481000696C652D7374617473202F3430342E6885
:10482000746D6C0A3E203C2F74643E3C2F74723EC3
:104830000A3C74723E3C74643E3C6120687265665A
:104840003D222F666164652E706E67223E2F666181
:1048500064652E706E673C2F613E3C2F74643E0A87
:104860003C74643E25212066696C652D7374617407
:1048700073202F666164652E706E670A3C2F746426
:104880003E3C74643E3C696D67207372633D222F29
:10489000666164652E706E6722206865696768745A
:1048A0003D31302077696474683D25212066696C4C
:1048B000652D7374617473202F666164652E706E4C
:1048C000670A3E203C2F74643E3C2F74723E0A3CC3
:1048D0002F7461626C653E0A3C2F63656E7465726D
:1048E0003E0A25213A202F666F6F7465722E687418
:1048F0006D6C0A002F666F6F7465722E68746D6C34
:104900000020203C2F626F64793E0A3C2F68746D52
:104910006C3E002F6865616465722E68746D6C0072
:104920003C21444F43545950452048544D4C20504D
:1049300055424C494320222D2F2F5733432F2F44CC
:1049400054442048544D4C20342E30312054726150
:104950006E736974696F6E616C2F2F454E22202231
:10496000687474703A2F2F7777772E77332E6F72A3
:10497000672F54522F68746D6C342F6C6F6F736592
:104980002E647464223E0A3C68746D6C3E0A2020DA
:104990003C686561643E0A202020203C7469746C88
:1049A000653E57656C636F6D6520746F2074686534
:1049B0002075495020776562207365727665722193
:1049C0003C2F7469746C653E0A202020203C6C6981
:1049D0006E6B2072656C3D227374796C65736865CB
:1049E00065742220747970653D22746578742F6334
:1049F00073732220687265663D227374796C652E2C
:104A0000637373223E20200A20203C2F6865616476
:104A10003E0A20203C626F6479206267636F6C6F8E
:104A2000723D22236666666565632220746578742C
:104A30003D22626C61636B223E0A0A20203C64695D
:104A40007620636C6173733D226D656E75223E0A3C
:104A500020203C64697620636C6173733D226D6530
:104A60006E75626F78223E3C6120687265663D22F9
:104A70002F223E46726F6E7420706167653C2F6115
:104A80003E3C2F6469763E0A20203C6469762063B0
:104A90006C6173733D226D656E75626F78223E3C6A
:104AA0006120687265663D2266696C65732E736865
:104AB000746D6C223E46696C652073746174697311
:104AC000746963733C2F613E3C2F6469763E0A2013
:104AD000203C64697620636C6173733D226D656E62
:104AE00075626F78223E3C6120687265663D227374
:104AF000746174732E7368746D6C223E4E657477A6
:104B00006F726B20737461746973746963733C2F83
:104B1000613E3C2F6469763E0A20203C6469762021
:104B2000636C6173733D226D656E75626F78223EB2
:104B30003C6120687265663D227463702E736874F0
:104B40006D6C223E4E6574776F726B0A2020636F26
:104B50006E6E656374696F6E733C2F613E3C2F64AB
:104B600069763E0A20203C62723E0A20203C2F6477
:104B700069763E0A20200A20203C64697620636C16
:104B80006173733D22636F6E74656E74626C6F63E4
:104B90006B223E0A002F696E6465782E68746D6C16
:104BA000003C21444F43545950452048544D4C201B
:104BB0005055424C494320222D2F2F5733432F2F3E
:104BC0004454442048544D4C20342E3020547261BB
:104BD0006E736974696F6E616C2F2F454E223E0DA6
:104BE0000A3C212D2D2073617665642066726F6DFD
:104BF0002075726C3D283030323629687474703AF2
:104C00002F2F3139322E3136382E302E31352F318B
:104C10003233343536202D2D3E0D0A3C48544D4C50
:104C20003E3C484541443E0D0A3C7469746C653E07
:104C3000BBB6D3ADBDF8C8EBB7DCB6B753544D33F4
:104C400032BFAAB7A2B0E5C7B6C8EB574542D2B348
:104C5000C3E620506F776572204279207549503144
:104C60002E30213C2F7469746C653E0D0A3C4D4515
:104C7000544120687474702D65717569763D436F79
:104C80006E74656E742D5479706520636F6E7465F3
:104C90006E743D22746578742F68746D6C3B20636C
:104CA0006861727365743D676232333132223E0D42
:104CB0000A3C464F524D20616374696F6E3D2F2050
:104CC0006D6574686F643D6765743E0D0A3C4D45C3
:104CD000544120636F6E74656E743D224D53485489
:104CE0004D4C20362E30302E323930302E35353185
:104CF0003222206E616D653D47454E455241544F0D
:104D0000523E3C2F484541443E0D0A3C626F647957
:104D1000206267636F6C6F723D222366666665650D
:104D2000632220746578743D22626C61636B223E5D
:104D30000D0A0D0A20203C64697620636C61737350
:104D40003D226D656E75223E0D0A20203C64697619
:104D500020636C6173733D226D656E75626F78229E
:104D60003E3C6120687265663D222F223E46726F8E
:104D70006E7420706167653C2F613E3C2F646976DC
:104D80003E0D0A20203C64697620636C6173733D9C
:104D9000226D656E75626F78223E3C612068726597
:104DA000663D2266696C65732E7368746D6C223E75
:104DB00046696C6520737461746973746963733CCC
:104DC0002F613E3C2F6469763E0D0A20203C6469C9
:104DD0007620636C6173733D226D656E75626F78CA
:104DE000223E3C6120687265663D22737461747373
:104DF0002E7368746D6C223E4E6574776F726B20F3
:104E0000737461746973746963733C2F613E3C2FE2
:104E10006469763E0D0A20203C64697620636C61EB
:104E200073733D226D656E75626F78223E3C612022
:104E3000687265663D227463702E7368746D6C22AF
:104E40003E4E6574776F726B0D0A2020636F6E6E35
:104E5000656374696F6E733C2F613E3C2F646976A5
:104E60003E0D0A20203C62723E0D0A20203C2F6439
:104E700069763E0D0A20203C64697620636C61737C
:104E8000733D22636F6E74656E74626C6F636B2228
:104E90003E0D0A203C2F626F64793E0D0A3C424F62
:104EA00044593E3C464F4E542073697A653D353E29
:104EB0000D0A3C43454E5445523EBBF9D3DAB7DCAC
:104EC000B6B7B0E653544D3332BFAAB7A2B0E5B57A
:104ED000C4576562B7FECEF1C6F7A3A8504F574539
:104EE0005220425920754950312E30293C2F4345DC
:104EF0004E5445523E3C2F464F4E543E3C42523E4D
:104F00000D0A3C503E0D0A3C503E0D0A3C43454EB6
:104F10005445523E4D4355A3BA53544D3332463156
:104F20003033564554362C3531324B20466C617344
:104F3000682C2036344B205352414D3C2F43454E74
:104F40005445523E0D0A3C43454E5445523ECDF821
:104F5000C2E7A3BA454E4332384A363020203130BA
:104F60004DD2D4CCABCDF8A3AC49503A3139322E26
:104F70003136382E302E3135203C2F43454E5445A6
:104F8000523E0D0A3C503E0D0A3C43454E5445529C
:104F90003ECAE4C8EBD2AAB5E3C1C1B5C44C45448E
:104FA0003A3C494E505554206E616D653D6C6564C8
:104FB0003E3C2F43454E5445523E3C42523E0D0A24
:104FC0003C43454E5445523E3C494E505554207446
:104FD0007970653D7375626D69742076616C756575
:104FE0003DC8B7B6A83E3C494E5055542074797020
:104FF000653D72657365742076616C75653DD6D8C4
:10500000C9E83E3C2F43454E5445523E0D0A3C4DA7
:105010004152515545453E51513A39313931323776
:10502000343C2F4D4152515545453E0D0A3C4D41B2
:1050300052515545453E4242533A206F7572737442
:105040006D2E356436642E636F6D200D0ACCD4B19D
:10505000A6B5EAC6CC3A6F757273746D2E74616F23
:1050600062616F2E636F6D3C2F4D41525155454526
:105070003E3C2F464F524D3E3C2F424F44593E3C02
:105080002F48544D4C3E0D0A20002F7374796C65E7
:105090002E637373006831200A7B0A2020746578C0
:1050A000742D616C69676E3A2063656E7465723B3E
:1050B0000A2020666F6E742D73697A653A313470F8
:1050C000743B0A2020666F6E742D66616D696C7981
:1050D0003A617269616C2C68656C766574696361AC
:1050E0003B0A2020666F6E742D7765696768743A95
:1050F000626F6C643B0A202070616464696E673A79
:10510000313070783B200A7D0A0A626F64790A7B2D
:105110000A0A20206261636B67726F756E642D638B
:105120006F6C6F723A20236666666565633B0A2082
:1051300020636F6C6F723A626C61636B3B0A0A208A
:1051400020666F6E742D73697A653A3870743B0A05
:105150002020666F6E742D66616D696C793A61729C
:1051600069616C2C68656C7665746963613B0A7D66
:105170000A0A2E6D656E750A7B0A20206D617267C2
:10518000696E3A203470783B0A202077696474682D
:105190003A3630253B0A0A202070616464696E67E4
:1051A0003A3270783B0A090A2020626F7264657295
:1051B0003A20736F6C6964203170783B0A2020625A
:1051C00061636B67726F756E642D636F6C6F723A9B
:1051D00020236666666364323B0A20207465787417
:1051E0002D616C69676E3A6C6566743B0A20200A13
:1051F0002020666F6E742D73697A653A3970743B3E
:105200000A2020666F6E742D66616D696C793A6153
:105210007269616C2C68656C7665746963613B20AA
:10522000200A7D0A0A6469762E6D656E75626F7854
:105230000A7B0A202077696474683A203235253B5E
:105240000A2020626F726465723A20303B0A202087
:10525000666C6F61743A206C6566743B0A7465789D
:10526000742D616C69676E3A2063656E7465723B7C
:105270000A7D0A0A2E636F6E74656E74626C6F63CA
:105280006B0A7B20200A20206D617267696E3A20CC
:105290003470783B0A202077696474683A36302588
:1052A0003B0A0A202070616464696E673A32707844
:1052B0003B0A0A2020626F726465723A203170786E
:1052C00020646F747465643B0A20206261636B67BD
:1052D000726F756E642D636F6C6F723A20776869B8
:1052E00074653B0A0A2020666F6E742D73697A65B7
:1052F0003A3870743B0A2020666F6E742D66616DBB
:10530000696C793A617269616C2C68656C76657458
:105310006963613B20200A0A7D0A0A702E696E7457
:10532000726F0A7B0A20206D617267696E2D6C6551
:1053300066743A323070783B0A20206D617267697A
:105340006E2D72696768743A323070783B0A0A20B1
:1053500020666F6E742D73697A653A313070743BD4
:105360000A2F2A2020666F6E742D7765696768742E
:105370003A626F6C643B202A2F0A2020666F6E749D
:105380002D66616D696C793A617269616C2C686532
:105390006C7665746963613B20200A7D0A0A702E71
:1053A000636C696E6B0A7B0A2020666F6E742D73C6
:1053B000697A653A313270743B0A2020666F6E74E8
:1053C0002D66616D696C793A636F75726965722CCF
:1053D0006D6F6E6F73706163653B20200A202074CF
:1053E0006578742D616C69676E3A63656E74657279
:1053F0003B0A7D0A0A702E636C696E6B390A7B0A60
:105400002020666F6E742D73697A653A3970743B2B
:105410000A2020666F6E742D66616D696C793A633F
:105420006F75726965722C6D6F6E6F7370616365F5
:105430003B20200A2020746578742D616C69676EAA
:105440003A63656E7465723B0A7D0A0A0A700A7BCC
:105450000A202070616464696E672D6C6566743A19
:10546000313070783B0A7D0A0A702E726967687461
:105470000A7B0A2020746578742D616C69676E3A26
:1054800072696768743B200A7D0A0A002F74637092
:105490002E7368746D6C0025213A202F6865616455
:1054A00065722E68746D6C0A3C68313E4375727289
:1054B000656E7420636F6E6E656374696F6E733CA6
:1054C0002F68313E3C62723E3C7461626C652077AD
:1054D000696474683D2231303025223E0A3C747282
:1054E0003E3C74683E4C6F63616C3C2F74683E3C7C
:1054F00074683E52656D6F74653C2F74683E3C74F1
:10550000683E53746174653C2F74683E3C74683E19
:1055100052657472616E736D697373696F6E733CFB
:105520002F74683E3C74683E54696D65723C2F74FC
:10553000683E3C74683E466C6167733C2F74683EFD
:105540003C2F74723E0A2521207463702D636F6EA8
:105550006E656374696F6E730A25213A202F666F3A
:105560006F7465722E68746D6C002F666164652EB1
:10557000706E670089504E470D0A1A0A0000000D30
:1055800049484452000000040000000A08020000DC
:10559000001C996859000000097048597300000BFD
:1055A0001300000B1301009A9C18000000077449B7
:1055B0004D4507D60608141B39AF5BC0E300000059
:1055C0001D74455874436F6D6D656E74004372654C
:1055D0006174656420776974682054686520474960
:1055E0004D50EF64256E0000003A4944415408D7FD
:1055F000758C3112001010C42E379E4065FDFF835C
:10560000F40A1C8D549BC9CC9A3D9073716791D458
:105610007436A95501F82958C8BF48C481740BA332
:105620000F7CDB04E84005DFA1F3FC730000000001
:1056300049454E44AE426082002F73746174732EEC
:105640007368746D6C0025213A202F68656164656C
:10565000722E68746D6C0A3C68313E4E6574776FCB
:10566000726B20737461746973746963733C2F681F
:10567000313E0A3C63656E7465723E0A3C74616239
:105680006C652077696474683D2233303022206273
:105690006F726465723D2230223E0A3C74723E3C59
:1056A00074643E3C7072653E0A49502020202020E0
:1056B0002020202020205061636B65747320726568
:1056C0006365697665640A20202020202020202040
:1056D000202020205061636B6574732073656E74A5
:1056E0000A0920202020205061636B6574732064B8
:1056F000726F707065640A4950206572726F7273C0
:105700002020202049502076657273696F6E2F68C3
:105710006561646572206C656E6774680A2020207C
:10572000202020202020202020204950206C656E41
:105730006774682C206869676820627974650A203C
:105740002020202020202020202020204950206CB4
:10575000656E6774682C206C6F7720627974650AB7
:1057600020202020202020202020202020495020E0
:10577000667261676D656E74730A20202020202098
:105780002020202020202048656164657220636805
:1057900065636B73756D0A20202020202020202057
:1057A0002020202057726F6E672070726F746F63B5
:1057B0006F6C0A49434D500920202020205061631E
:1057C0006B6574732072656365697665640A202071
:1057D00020202020202020202020205061636B6585
:1057E00074732073656E740A2020202020202020EE
:1057F00020202020205061636B6574732064726FD9
:10580000707065640A202020202020202020202085
:10581000202054797065206572726F72730A544348
:1058200050202020202020202020205061636B6504
:1058300074732072656365697665640A2020202090
:105840002020202020202020205061636B6574736D
:105850002073656E740A2020202020202020202024
:105860002020205061636B6574732064726F7070C8
:1058700065640A20202020202020202020202020B5
:10588000436865636B73756D206572726F72730A1E
:10589000202020202020202020202020204461744F
:1058A00061207061636B65747320776974686F75CC
:1058B000742041434B730A202020202020202020E8
:1058C000202020205265736574730A202020202038
:1058D000202020202020202052657472616E736D7C
:1058E000697373696F6E730A0920202020204E6F40
:1058F00020636F6E6E656374696F6E206176616C94
:105900006961626C650A092020202020436F6E6E59
:10591000656374696F6E20617474656D7074732053
:10592000746F20636C6F73656420706F7274730A98
:105930003C2F7072653E3C2F74643E3C74643E3C68
:105940007072653E2521206E65742D7374617473C9
:105950000A3C2F7072653E3C2F7461626C653E0A92
:105960003C2F63656E7465723E0A25213A202F66CE
:105970006F6F7465722E68746D6C0A000000000011
:105980007442000885420008D100000000000000B9
:105990007C5900085643000860430008A10000003D
:1059A0000000000090590008014400080E4400085F
:1059B000E604000000000000A4590008F4480008B4
:1059C000014900081200000000000000B85900085A
:1059D000134900082049000875020000000000007B
:1059E000CC590008954B0008A14B0008E9040000C1
:1059F00000000000E05900088A5000089550000897
:105A0000F703000000000000F45900088C5400085F
:105A100097540008D300000000000000085A000856
:105A20006A55000874550008C50000000000000019
:105A30001C5A000839560008465600083603000074
:105A400000000000687474703A2F2F00323030204C
:105A500000333031200033303220004745542000DD
:105A6000485454502F312E3000485454502F312E6A
:105A70003100636F6E74656E742D747970653A20B1
:105A800000746578742F68746D6C006C6F6361745A
:105A9000696F6E3A2000686F73743A20000D0A0037
:105AA0002F696E6465782E68746D6C002F34303405
:105AB0002E68746D6C00526566657265723A0048B6
:105AC0005454502F312E3020323030204F4B0D0A9D
:105AD0005365727665723A207549502F312E302009
