:020000040800F2
:10000000800C002001010008711000087310000826
:10001000771000087B1000087F1000080000000027
:100020000000000000000000000000008310000835
:1000300085100008000000008710000889100008E3
:100040001B0100081B0100081B0100081B01000820
:100050001B0100081B0100081B0100081B01000810
:100060001B0100081B0100081B0100081B01000800
:100070001B0100081B0100081B0100081B010008F0
:100080001B0100081B0100081B0100081B010008E0
:100090001B0100081B0100081B0100081B010008D0
:1000A0001B0100081B0100081B0100081B010008C0
:1000B0001B0100081B0100081B0100081B010008B0
:1000C0001B0100081B0100081B0100081B010008A0
:1000D0001B0100081B0100081B0100081B01000890
:1000E0001B0100081B0100081B010008DFF80CD0F1
:1000F00001F0ECFA0048004741100008800C002095
:100100000648804706480047FEE7FEE7FEE7FEE7B1
:10011000FEE7FEE7FEE7FEE7FEE7FEE70302000874
:10012000ED0000080CB50020019000906C480068BC
:1001300040F480306A49086000BF6948006800F4F4
:10014000003000900198401C0190009818B9019867
:10015000B0F5A06FF1D16248006800F4003010B132
:100160000120009001E0002000900098012843D178
:100170005C48006840F010005A4908600846006872
:1001800020F0030008600846006840F002000860A4
:1001900053484068524948600846406848600846ED
:1001A000406840F4806048600846406820F47C1055
:1001B00048600846406840F4E81048600846006817
:1001C00040F08070086000BF4548006800F0007093
:1001D0000028F9D04248406820F0030040494860B8
:1001E0000846406840F00200486000BF3C48406854
:1001F00000F00C000828F9D10CBD10B5FFF792FFF4
:1002000010BD10B53648006840F001003449086060
:10021000084640683449084031494860084600684B
:10022000324908402E4908600846006820F48020C2
:1002300008600846406820F4FE0048604FF41F0044
:100240008860FFF7DAFF4FF000602949086010BDB1
:1002500010B5002100200022214B5B6803F00C0147
:1002600021B1042906D0082928D107E0214B224CCE
:10027000236027E01F4B204C236023E0184B5B6872
:1002800003F47010164B5B6803F48032022303EB17
:10029000904022B9194B4343174C23600DE0104B9B
:1002A0005B6803F4003323B1144B4343124C2360C7
:1002B00003E0104B4343104C236003E00D4B0E4C06
:1002C000236000BF00BF064B5B68C3F303130C4CF5
:1002D000E15C094B1B68CB40074C236010BD00005C
:1002E00000100240002002400000FFF8FFFFF6FE71
:1002F00008ED00E000127A000000002000093D0037
:100300000400002031490143314A1160704770B543
:10031000002100230F22C47804B32D4C246804F478
:10032000E064C4F5E064210AC1F10403CA404478E2
:1003300004FA03F18478144021430901254C06781E
:10034000A155047804F01F050124AC4005786D1117
:10035000AD0005F1E025C5F8004109E0047804F09E
:100360001F050124AC401C4D0678761145F8264047
:1003700070BD1A4A0A400243154B1B1F1A60704792
:1003800039B1134A121D12680243114B1B1D1A602A
:1003900006E00F4A121D126882430D4B1B1D1A60A6
:1003A0007047042808D14FF0E021096941F00401A9
:1003B0004FF0E022116107E04FF0E021096921F0E0
:1003C00004014FF0E0221161704700000000FA05BF
:1003D0000CED00E000E400E080E100E080FFFF1FA2
:1003E00001684FF6FE72114001600021016041601A
:1003F0008160C1608D49884208D18C4908394968BB
:1004000041F00F01894A083A51608AE08749143166
:10041000884208D185490839496841F0F001834A8A
:10042000083A51607DE081492831884208D17F49EE
:100430000839496841F470617C4A083A516070E0BB
:100440007A493C31884208D178490839496841F4F1
:100450007041764A083A516063E0744950318842ED
:1004600008D172490839496841F470216F4A083A45
:10047000516056E06D496431884208D16B490839B2
:10048000496841F47001694A083A516049E0674996
:100490007831884208D165490839496841F070616E
:1004A000624A083A51603CE06149884206D1011F26
:1004B000096841F00F01021F116032E05C491431FC
:1004C000884208D15A49091F096841F0F001584A89
:1004D000121F116025E056492831884208D154493D
:1004E000091F096841F47061514A121F116018E038
:1004F0004F493C31884208D14D49091F096841F4F0
:1005000070414B4A121F11600BE04949503188423B
:1005100007D14749091F096841F47021444A121F55
:100520001160704710B50022026847F6F0739A43D5
:100530000C6A8B6823430C6923434C6923438C6901
:100540002343CC6923434C6A23438C6A23431A43D5
:100550000260CB6843600B6883604B68C36010BD6A
:100560000021016041608160C16001614161816180
:10057000C161016241628162704721B1026842F04B
:100580000102026004E002684FF6FE731A40026046
:1005900070471AB103680B43036002E003688B43A2
:1005A00003607047416070470146486880B27047F9
:1005B00001460020002201F080531BB11C4B083B78
:1005C0001A6802E0194B083B1A6802EA01030BB1F2
:1005D000012000E00020704700F0805119B114495B
:1005E000091F086002E01149083948607047014658
:1005F0000020002201F080531BB10D4B083B1A680C
:1006000002E00A4B083B1A6802EA01030BB1012021
:1006100000E00020704700F0805119B10449091F23
:10062000086002E00149083948607047080002404C
:100630000804024010B50446CC48844208D1012188
:10064000042000F02DFB0021042000F029FB46E0EF
:10065000C748844208D10121082000F021FB002175
:10066000082000F01DFB3AE0C248844208D1012175
:10067000102000F015FB0021102000F011FB2EE0EF
:10068000BD48844208D10121202000F009FB00214F
:10069000202000F005FB22E0B848844208D1012167
:1006A000402000F0FDFA0021402000F0F9FA16E0A9
:1006B000B348844208D10121802000F0F1FA0021E2
:1006C000802000F0EDFA0AE0AE48844207D1012113
:1006D000801500F0E5FA0021A01500F0E1FA10BD48
:1006E00010B50121084600F0DBFA0021012000F0DE
:1006F000D7FA10BD2DE9F041024600250026002062
:1007000000230024002791F803C00CF00F0591F896
:1007100003C00CF0100CBCF1000F03D091F802C024
:100720004CEA050591F800C0BCF1000F31D0146807
:1007300000202BE04FF0010C0CFA00F3B1F800C0E0
:100740000CEA03069E4220D183004FF00F0C0CFAF6
:1007500003F7BC4305FA03FC4CEA040491F803C018
:10076000BCF1280F06D14FF0010C0CFA00FCC2F8C6
:1007700014C00AE091F803C0BCF1480F05D14FF056
:10078000010C0CFA00FCC2F810C0401C0828D1D3A0
:100790001460B1F800C0BCF1FF0F34DD54680020D4
:1007A0002EE000F1080C4FF0010808FA0CF3B1F844
:1007B00000C00CEA03069E4221D183004FF00F0CCB
:1007C0000CFA03F7BC4305FA03FC4CEA040491F865
:1007D00003C0BCF1280F05D100F1080C08FA0CF891
:1007E000C2F8148091F803C0BCF1480F07D100F1A2
:1007F000080C4FF0010808FA0CF8C2F81080401CF1
:100800000828CED35460BDE8F0814FF6FF71018017
:10081000022181700421C170704702460020936854
:100820000B400BB1012000E00020704701468868B2
:1008300080B2704702460020D3680B400BB1012004
:1008400000E0002070470146C86880B2704701612F
:100850007047416170470AB1016100E04161704732
:10086000C16070474FF480320A43826181618261C6
:1008700082698269704702460020434B18684FF630
:100880008073184040EA021008433F4B18607047DD
:100890003E49C8617047F0B50A4600230024002194
:1008A000002500F00046B6F1004F02D1364EF16946
:1008B00001E0354E7168C0F3034583B200F4401681
:1008C000B6F5401F08D121F070612F4E766826F0F2
:1008D00070662D4F7E6012E000F48016B6F5801F22
:1008E00006D1032606FA05F4A14341F0706106E043
:1008F000460D360103FA06F6B14341F0706122B1AC
:10090000460D360103FA06F6314300F00046B6F113
:10091000004F02D11C4EF16101E01B4E7160F0BD31
:1009200030B500228B071C0F0F2303FA04F2164B7D
:1009300008338C1053F824309343134C08348D1033
:1009400044F8253023468C1053F824308C07240FAC
:1009500000FA04F423430C4C08348D1044F825307D
:1009600030BD0A49DC3108607047000000080140D2
:10097000000C01400010014000140140001801402B
:10098000001C014000200140000001400000204206
:10099000DF48006840F00100DD4908600846406813
:1009A000DC490840DA49486008460068DA490840EE
:1009B000D74908600846006820F48020086008468F
:1009C000406820F4FE0048604FF41F0088607047C4
:1009D000CF49096821F48031CD4A11601146096878
:1009E00021F480211160B0F5803F03D0B0F5802F55
:1009F0000ED106E0C649096841F48031C44A11604D
:100A000007E0C349096841F4A021C14A116000E030
:100A100000BF00BF704710B5014600220023002030
:100A20004A11012A02D1BA4C236806E0022A02D1F7
:100A3000B74C236A01E0B64C636A01F01F0201243F
:100A400094401C400CB1012000E0002010BD38B5DE
:100A5000002000900024002500BF3120FFF7DBFFBD
:100A600005460098401C00900098B0F5A06F01D09A
:100A7000002DF2D03120FFF7CEFF08B1012400E0B5
:100A80000024204638BD01460020A14A106820F00D
:100A9000F80040EAC10010607047A0490860704744
:100AA000024600209A4B586820F47C1042EA010369
:100AB0001843974B5860704798490866704701463D
:100AC0000020934A506820F00300084350607047AC
:100AD0008F48406800F00C007047014600208C4AA7
:100AE000506820F0F0000843506070470146002035
:100AF000874A506820F4E060084350607047014620
:100B00000020834A506820F4605040EAC1005060E1
:100B1000704729B17E4A527A02437D4B5A7204E0F3
:100B20007B4A527A82437A4B5A7270477B49D8315A
:100B30000860704701460020754A506820F4404024
:100B40000843506070470021714A20321170704A8A
:100B500082F82010012802D004280AD104E00121E3
:100B60006B4A2032117005E00521694A203211706C
:100B700000E000BF00BF70476949086070476449E2
:100B8000096A0143624A1162704765494439086045
:100B9000704730B500210022002400235C4D6D68B1
:100BA00005F00C0121B1042905D0082923D105E065
:100BB0005C4D056022E05B4D05601FE0544D6D68A3
:100BC00005F47012524D6D6805F48034022505EB72
:100BD00092421CB9544D554305600BE04C4D6D6875
:100BE00005F400351DB1504D5543056002E04D4DF3
:100BF0005543056002E04B4D056000BF00BF444D0A
:100C00006D6805F0F0010909484D6B5C0568DD4031
:100C100045603F4D6D6805F4E061090A434D6B5C2A
:100C20004568DD4085603A4D6D6805F46051C90A3C
:100C30003E4D6B5C4568DD40C560354D6D6805F423
:100C40004041890B3A4D6B5CC568B5FBF3F5056116
:100C500030BD29B12E4A526902432D4B5A6104E03E
:100C60002B4A526982432A4B5A61704729B1284A5C
:100C700092690243264B9A6104E0254A92698243B5
:100C8000234B9A61704729B1214AD2690243204B14
:100C9000DA6104E01E4AD26982431D4BDA61704773
:100CA00029B11B4AD2680243194BDA6004E0184AA2
:100CB000D2688243164BDA60704729B1144A126930
:100CC0000243134B1A6104E0114A12698243104B2C
:100CD0001A61704712494039086070470F49C8646B
:100CE00070470B49C87170470948406A40F08070EE
:100CF00007494862704701460020054A92680A4049
:100D00000AB1012000E00020704701498872704755
:100D1000001002400000FFF8FFFFF6FE0000424214
:100D20008004424200127A0000093D0014000020B5
:100D30002400002010B50446BE48844208D1012199
:100D40008014FFF7ADFF0021A014FFF7A9FF16E004
:100D5000B948844208D101210014FFF7AEFF0021F9
:100D60002014FFF7AAFF0AE0B448844207D101210A
:100D7000C013FFF7A2FF0021E013FFF79EFF10BD95
:100D800010B50022028802F441520B884C8823439C
:100D90008C882343CC8823430C8923434C892343E9
:100DA0008C892343CC8923431A430280838B4FF2DF
:100DB000FF74234083830B8A038210BD2DE9F04F1B
:100DC00085B005460C464FF0000902274FF0000899
:100DD0004FF0010B0026B246A88B4FF240010840AD
:100DE000A88302202884B5F81C90A068022801D1AD
:100DF00000BF38E0A08810B94FF0010B01E04FF0C0
:100E0000020B8D48854200D100E000BF6846FFF725
:100E1000C0FEDDF800A0E088B0F5007F0AD14FEAFF
:100E20001A2000EB80004000A168B0FBF1F0401DEB
:100E300086B20BE04FEA4B10BAFBF0F000EB8000FB
:100E40004000A168B0FBF1F0401D86B20A20B6FB5D
:100E5000F0F606F00108A6EB0800C0F34F074FF6C6
:100E6000FF7000EA0828022F01DBFF2F02DD0227B6
:100E70004FF00008E08840EA080038432884A08842
:100E8000A1890843618808432188084340F4006031
:100E900040EA0909A5F81C9005B0BDE8F08F0021D3
:100EA000018041808180C180018141818181C18136
:100EB0000721018270470021018041808180C1802B
:100EC0000221816000218181704721B1028842F0B6
:100ED0004002028004E002884FF6BF731A4002808D
:100EE000704721B1828B42F48062828304E0828B5E
:100EF0004FF6FF331A408283704730B50024002339
:100F00000C110125A540ABB21AB185881D4385801F
:100F100002E085889D43858030BD1AB183880B43EC
:100F2000838002E083888B43838070478181704790
:100F30000146888970474FF6FF62914204D00288CB
:100F400042F48072028004E002884FF6FF631A4088
:100F50000280704721B1828842F00402828004E05E
:100F600082884FF6FB731A408280704702884FF2E6
:100F7000FF731A40028002880A430280704701888A
:100F800041F480510180704721B1028842F400523F
:100F9000028004E002884DF6FF731A400280704719
:100FA00002460020012901D0108B00E0908A704792
:100FB0000146088A7047B1F5804F04D1028842F497
:100FC0008042028004E002884BF6FF731A400280E0
:100FD00070470246002013890B400BB1012000E04E
:100FE00000207047CA4302817047F0B502460020D6
:100FF00000240023002501F00F070126BE40B4B2F3
:101000000B1101269E40B3B2968806EA03051689A5
:10101000264016B10DB1012000E00020F0BD10B552
:10102000002201F00F040123A3409AB2D3430381AD
:1010300010BD00000030014000380040003C00407E
:101040004FF4A060FFF75EF94FF4FA7000F02CF84F
:1010500000F06AF908E000F095F82921034800F053
:101060000BFA642000F020F8F5E7000028000020CB
:10107000704700BFFEE700BFFEE700BFFEE700BF0E
:10108000FEE77047704770477047002106E00A216D
:1010900000BF0A00A1F1010399B2FAD10200A0F148
:1010A000010398B2F3D17047002107E042F6E061F6
:1010B00000BF0A00A1F1010399B2FAD10200A0F128
:1010C000010398B2F2D1704708B501210420FFF75F
:1010D000CDFD8020ADF8000010208DF80300032026
:1010E0008DF8020069468B48FFF704FB08BD03201A
:1010F00001E0411EC8B20028FBD17047012001E089
:10110000411EC8B20028FBD1704700B501208249BA
:101110000860FFF7F3FF00208049C1F89C01FFF74A
:10112000E6FF00BD00B501207B490860FFF7DFFF47
:1011300000207A49C1F89C01FFF7E0FF00BD10B51F
:101140000020754908603C20FFF79FFF012073498C
:10115000C1F89C0100207049086010BD00B502462E
:1011600000230CE002F40000B0F5000F02D1FFF7FD
:10117000D9FF01E0FFF7C9FF5200581CC3B2182B7A
:10118000F0DB00BD664A1168002007E0644B421C9A
:1011900053F8222043F82020421CD0B21228F5DB5D
:1011A0005F4A516470470146002901DDC8B27047AB
:1011B0004942C8B2FBE72DE9F04F8DB004460D4619
:1011C000C4F3072AC4F3074BE0B20C90C5F3072021
:1011D0000B90C5F307400A90E8B209900B98A0EB7A
:1011E0000A0008900A98A0EB0B0007900C99099848
:1011F000401A06900898FFF7D6FF02460798FFF7B7
:10120000D2FF824203DD0898FFF7CDFF02E0079886
:10121000FFF7C9FF07460698FFF7C5FFB84201DA96
:10122000384602E00698FFF7BEFF0746384600F052
:10123000F8F90290089800F0EBF90190029900F09B
:10124000A9F90590384600F0ECF90290079800F0F3
:10125000DFF90190029900F09DF90490384600F002
:10126000E0F90290069800F0D3F90190029900F09D
:1012700091F98046002647E0304600F0D2F901900F
:10128000059900F055F9029000F0D0F95044C0B231
:101290000B90304600F0C5F90190049900F048F930
:1012A000029000F0C3F95844C0B20A90304600F0F2
:1012B000B8F94146019000F03BF9029000F0B6F910
:1012C0000C990844C0B209900A9801040B9841EAAD
:1012D0000020099940EA01091248C0F80090002056
:1012E000039007E00F480068FFF738FF0398401CA1
:1012F000C0B2039003981228F4DBFFF720FF0A2006
:10130000FFF7D2FE701CC6B2BE42B5DB48460DB038
:10131000BDE8F08F000801409C01214200002142FD
:10132000280000207400002010B592B00024012194
:101330000846FFF78EFC012141F20400FFF796FCFE
:101340007648FFF74DF800200490754801907548E5
:1013500002901020039000200A90059080200690B3
:1013600040000790800008900020099001A96B4878
:10137000FFF7D8F88020ADF8440018208DF847001A
:1013800003208DF8460011A96748FFF7B3F96448B8
:101390000C38FFF7CFFC4FF44040ADF830004FF46D
:1013A0008270ADF832004FF40060ADF834000020D8
:1013B000ADF83600ADF838004FF40070ADF83A00E3
:1013C0001020ADF83C000020ADF83E000720ADF83D
:1013D00040000CA952480C38FFF7D2FC0122022130
:1013E0004F480C38FFF799FD01214D480C38FFF7A5
:1013F0006CFD00BF06E04AF6AA204A4921F8140015
:10140000601C84B2B4F5806FF5DB0020474908808A
:1014100012B010BD4349454A128821F812004349D1
:101420000988491C414A1180704770B504464FF441
:1014300078454FF6E0760023802309E004EA0301B3
:1014400009B1314600E0294688B2FFF7E3FF5B109F
:10145000012BF3DA70BDF0B50446C4F30725C4F3DD
:101460000746E7B23046FFF7E0FF2846FFF7DDFF0B
:101470003846FFF7DAFFF0BD2DE9F04106460D468C
:10148000002400272548FFF78FF8002843D100BF2C
:1014900005E056F82400FFF7DEFF601CC4B2AC4242
:1014A000F7D3122D10D2C5F11200C4B20AE0002702
:1014B00004E00020FFF7B9FF781CC7B2032FF8DB68
:1014C000601CC4B2AC42F2D3002404E00020FFF759
:1014D000A1FF601CC4B2142CF8DB00201349088063
:1014E00005EB4500C000143081B20C48FFF75AF8F4
:1014F00001210A48FFF741F800BF4FF40070FFF7E1
:1015000057F80028F9D000210448FFF736F84FF4C7
:101510000070FFF761F8BDE8F08100003000024084
:101520000C3001407C0000200008014078000020C1
:1015300080EA010210B502F00043400022D04A00C8
:101540001FD0010E01EB1261C0F35600C2F3560228
:1015500040F4000042F40002A0FB022000047F39A6
:10156000140400D0401C50EA124001D44000491E2F
:10157000C2B20C0604EBD010401C4008802A02D0F6
:1015800003E0002010BD20F00100002900DA002057
:10159000184310BD30B480EA010202F0004530F07B
:1015A000004221F0004013D090B1C30DD40DC2F31E
:1015B0001601C0F31600E41A41F4000140F40002E1
:1015C0007D34914201D3641C00E04900002C02DA12
:1015D00030BC002070474FF400000023914201D33B
:1015E000891A034340084FEA4101F7D151B19142B2
:1015F00002D14FF0004105E002D24FF0010101E0BD
:101600006FF0010103EBC450284430BC00F027B850
:10161000C10F80EAE0700844CA079623002100F059
:1016200027B896230022114600F022B800F00042AD
:1016300020F00040C10DC0F3160040F400007F29E7
:1016400001DA00207047962903DCC1F19601C840F9
:1016500001E096398840002AF4D0404270470029C2
:10166000A8BF7047401C490008BF20F00100704728
:1016700010B4B0FA80FC00FA0CF050EA010404BF88
:1016800010BC704749B1CCF1200421FA04F411FADE
:101690000CF118BF012121430843A3EB0C01CB1D22
:1016A0004FEA00614FEA102042BF002010BC704793
:1016B00000EBC35010440029A4BF10BC7047401C6D
:1016C000490008BF20F0010010BC7047064C074DD0
:1016D00006E0E06840F0010394E807009847103402
:1016E000AC42F6D3FEF706FD1017000830170008CD
:1016F00002E008C8121F08C1002AFAD170477047DB
:10170000002001E001C1121F002AFBD17047000038
:1017100030170008000000207C000000F0160008D0
:10172000AC1700087C000020040C00000017000823
:1017300000A24A04000000000000000001020304AF
:101740000607080900000000010203040102030467
:1017500006070809020406080000AA000000770036
:101760000000330000001100000005000000000030
:1017700000AA000000770000003300000011000004
:101780000005000000000000AA0000007700000033
:101790003300000011000000050000000000000000
:0C17A0000000000000000000000000003D
:04000005080000ED02
:00000001FF
