:020000040800F2
:10000000901200200D02000815060008C105000826
:1000100011060008B50200083B0D000800000000B2
:100020000000000000000000000000007906000849
:10003000A504000800000000170600088D0700084E
:1000400027020008270200082702000827020008EC
:1000500027020008270200082702000827020008DC
:1000600027020008270200082702000827020008CC
:1000700027020008270200082702000827020008BC
:1000800027020008270200082702000827020008AC
:10009000270200082702000827020008270200089C
:1000A000270200082702000827020008270200088C
:1000B000270200082702000827020008270200087C
:1000C000270200082702000827020008270200086C
:1000D00027020008550C0008270200082702000824
:1000E000270200082702000827020008270200084C
:1000F000270200082702000827020008270200083C
:10010000270200082702000827020008270200082B
:10011000270200082702000827020008270200081B
:10012000270200082702000827020008270200080B
:1001300000F002F800F05AF80AA090E8000C82449F
:100140008344AAF10107DA4501D100F04FF8AFF27C
:10015000090EBAE80F0013F0010F18BFFB1A43F0A5
:100160000103184720100000401000000A444FF01F
:10017000000C10F8013B13F0070408BF10F8014B06
:100180001D1108BF10F8015B641E05D010F8016B4B
:10019000641E01F8016BF9D113F0080F1EBF10F8AF
:1001A000014BAD1C0C1B09D16D1E58BF01F801CBD2
:1001B000FAD505E014F8016B01F8016B6D1EF9D555
:1001C0009142D6D37047000000230024002500266A
:1001D000103A28BF78C1FBD8520728BF30C148BFAA
:1001E0000B6070471FB51FBD10B510BD00F033F890
:1001F0001146FFF7F7FF00F07BFF00F051F803B462
:10020000FFF7F2FF03BC00F029FF00000948804718
:1002100009480047FEE7FEE7FEE7FEE7FEE7FEE7E8
:10022000FEE7FEE7FEE7FEE704480549054A064B00
:10023000704700009107000831010008900C002071
:1002400090120020900E0020900E00207047704702
:10025000704770477047754600F028F8AE460500B5
:100260006946534620F00700854618B020B5FFF7D1
:10027000DBFFBDE820404FF000064FF000074FF0D5
:1002800000084FF0000B21F00701AC46ACE8C009B4
:10029000ACE8C009ACE8C009ACE8C0098D467047BD
:1002A0000446AFF300802046FFF7A9FF00487047DF
:1002B0002C0C002000BFFEE700F0805111B1034973
:1002C000086001E0024948607047000004040240F1
:1002D0000000024021B1026842F00102026004E025
:1002E00002684FF6FE731A400260704701684FF6CD
:1002F000FE72114001600021016041608160C160B7
:100300004B49884208D14A490839496841F00F01F0
:10031000474A083A51608AE045491431884208D179
:1003200043490839496841F0F001414A083A5160AF
:100330007DE03F492831884208D13D490839496864
:1003400041F470613A4A083A516070E038493C31F2
:10035000884208D136490839496841F47041344A25
:10036000083A516063E032495031884208D130493F
:100370000839496841F470212D4A083A516056E025
:100380002B496431884208D129490839496841F428
:100390007001274A083A516049E02549783188427E
:1003A00008D123490839496841F07061204A083A68
:1003B00051603CE01F49884206D1011F096841F0A5
:1003C0000F01021F116032E01A491431884208D12E
:1003D0001849091F096841F0F001164A121F1160FF
:1003E00025E014492831884208D11249091F0968BB
:1003F00041F470610F4A121F116018E00D493C3141
:10040000884208D10B49091F096841F47041094A23
:10041000121F11600BE007495031884207D105498E
:10042000091F096841F47021024A121F11607047C8
:10043000080002400804024001460020002201F0AA
:10044000805313B1054B1A6801E0054B1A6802EAA4
:1004500001030BB1012000E00020704700040240BE
:100460000000024010B50022026847F6F0739A437C
:100470000C6A8B6823430C6923434C6923438C69C2
:100480002343CC6923434C6A23438C6A23431A4396
:100490000260CB6843600B6883604B68C36010BD2B
:1004A0004160704770472DE9F04102460025002663
:1004B000002000230024002791F803C00CF00F0552
:1004C00091F803C00CF0100CBCF1000F03D091F8B0
:1004D00002C04CEA050591F800C0BCF1000F31D014
:1004E000146800202BE04FF0010C0CFA00F3B1F877
:1004F00000C00CEA03069E4220D183004FF00F0C8F
:100500000CFA03F7BC4305FA03FC4CEA040491F827
:1005100003C0BCF1280F06D14FF0010C0CFA00FC0F
:10052000C2F814C00AE091F803C0BCF1480F05D12D
:100530004FF0010C0CFA00FCC2F810C0401C082857
:10054000D1D31460B1F800C0BCF1FF0F34DD5468A2
:1005500000202EE000F1080C4FF0010808FA0CF31F
:10056000B1F800C00CEA03069E4221D183004FF08F
:100570000F0C0CFA03F7BC4305FA03FC4CEA040425
:1005800091F803C0BCF1280F05D100F1080C08FA5E
:100590000CF8C2F8148091F803C0BCF1480F07D1E1
:1005A00000F1080C4FF0010808FA0CF8C2F81080AE
:1005B000401C0828CED35460BDE8F081016170472B
:1005C00000BFFEE708B50121482000F045F82020D3
:1005D000ADF8000010208DF8030003208DF8020014
:1005E00069460948FFF75FFF20210748FFF7E6FF4C
:1005F0002020ADF8000069460448FFF754FF202191
:100600000248FFF7DBFF08BD000C01400018014065
:1006100000BFFEE77047704729B1064A526902439E
:10062000044B5A6104E0034A52698243014B5A6108
:10063000704700000010024029B1064AD269024307
:10064000044BDA6104E0034AD2698243014BDA6168
:10065000704700000010024029B1064A9269024327
:10066000044B9A6104E0034A92698243014B9A6108
:100670007047000000100240704710B500F002F80B
:1006800010BD00000CB500200190009033480068B8
:1006900040F480303149086000BF3048006800F401
:1006A000003000900198401C0190009818B9019802
:1006B000B0F5A06FF1D12948006800F4003010B106
:1006C0000120009001E0002000900098012843D113
:1006D0002348006840F0100021490860084600687F
:1006E00020F0030008600846006840F0020008603F
:1006F0001A484068194948600846406848600846FA
:10070000406840F4806048600846406820F47C10EF
:1007100048600846406840F4E810486008460068B1
:1007200040F08070086000BF0C48006800F0007066
:100730000028F9D00948406820F0030007494860C4
:100740000846406840F00200486000BF0348406827
:1007500000F00C000828F9D10CBD00000010024088
:1007600000200240042808D14FF0E021096941F03F
:1007700004014FF0E022116107E04FF0E021096928
:1007800021F004014FF0E022116170477047000032
:1007900010B51348006840F0010011490860084690
:1007A0004068104908400E494860084600680E49F4
:1007B00008400B4908600846006820F48020086063
:1007C0000846406820F4FE0048604FF41F0088602F
:1007D000FFF753FF4FF000600449086010BD0000B0
:1007E000001002400000FFF8FFFFF6FE08ED00E0F9
:1007F00021B1028842F00102028004E002884FF633
:10080000FE731A40028070471AB183890B438381BB
:1008100002E083898B4383817047000070B5002418
:1008200000220023058C4FF6FE7635400584028CAD
:100830008388048B4FF68F752C40B51E2C400D8895
:100840002C43751E2A400D892A434D882A43144D96
:10085000A8420BD0134DA84208D0134DA84205D092
:10086000124DA84202D0124DA84213D14FF6F7758F
:100870002A404D892A434FF6FB752A408D882A432A
:100880004FF6FF652B404FF6FF552B408D892B43CC
:10089000CD892B4383800483CD888586028470BDF7
:1008A000002C014000340140004001400044014060
:1008B0000048014070B5002400220023058C4FF64B
:1008C000EF7635400584028C8388048B48F6FF75EB
:1008D0002C404FF6FF452C400D884FF6FF7606EA78
:1008E00005252C434FF6DF752A400D8906EA0515CC
:1008F0002A434D8806EA05152A43154DA84202D021
:10090000144DA8421DD14FF67F752A404D894FF6F0
:10091000FF7606EA05152A434FF6BF752A408D88F3
:1009200006EA05152A434FF6FF352B404FF2FF75B7
:100930002B408D8906EA85052B43CD8906EA85057E
:100940002B4383800483CD880587028470BD00001B
:10095000002C01400034014070B500240022002327
:10096000058C4FF6FF6635400584028C8388848BA6
:100970004FF68F752C404FF6FC752C400D882C439C
:100980004FF6FF552A400D894FF6FF7606EA0525FA
:100990002A434D8806EA05252A43154DA84202D070
:1009A000144DA8421DD14FF2FF752A404D894FF6D4
:1009B000FF7606EA05252A434FF6FF352A408D8843
:1009C00006EA05252A434EF6FF752B404DF6FF75C6
:1009D0002B408D8906EA05152B43CD8906EA0515BE
:1009E0002B4383808483CD888587028470BD00007B
:1009F000002C014000340140002202881D4B984227
:100A00000ED01D4B98420BD0B0F1804F08D01B4B3D
:100A1000984205D01A4B984202D01A4B984204D102
:100A20004FF68F731A404B881A43174B984207D0E2
:100A3000164B984204D04FF6FF431A40CB881A4316
:100A400002808B8883850B8803850A4B98420BD0E4
:100A5000094B984208D00E4B984205D00D4B984256
:100A600002D00D4B984201D10B7A03860123838279
:100A700070470000002C0140003401400004004099
:100A800000080040000C004000100040001400402E
:100A900000400140004401400048014000B593B0CF
:100AA00001210420FFF7D8FD0F20ADF82C001820FD
:100AB0008DF82F0003208DF82E000BA95F48FFF75B
:100AC000F2FC01210846FFF7B7FD5920ADF84400BC
:100AD0000020ADF84000ADF84600ADF8420010A986
:100AE0004FF08040FFF788FF6020ADF83000012014
:100AF000ADF832000020ADF83600ADF838000CA992
:100B00004FF08040FFF78AFE6020ADF830000120F2
:100B1000ADF832000020ADF83600ADF838000CA971
:100B20004FF08040FFF7C6FE6020ADF83000012096
:100B3000ADF832000020ADF83600ADF838000CA951
:100B40004FF08040FFF708FF01210846FFF764FDE2
:100B50003B48FFF7CBFB3B4800903B4801901020FF
:100B600002902A20039000200490802005904000ED
:100B7000069080000790002008904FF400500990E4
:100B800000200A9069462E48FFF76CFC2C48643020
:100B9000FFF7ACFB2B48001D00902C480190102063
:100BA00002902A20039000200490802005904000AD
:100BB000069080000790002008904FF400500990A4
:100BC00000200A9069461E486430FFF74BFC1C4821
:100BD0001438FFF78BFB1B48083000901C4801902D
:100BE000102002902A20039000200490802005907D
:100BF0004000069080000790002008904FF40050BD
:100C0000099000200A9069460D481438FFF72AFC25
:100C1000012251024805FFF7F7FD01229102080564
:100C2000FFF7F2FD0122D102C804FFF7EDFD01221A
:100C300011028805FFF7E8FD13B000BD0008014070
:100C40001C00024034000040040200205C0400202C
:100C5000B406002010B540F225511D4800F03EF8C2
:100C600010B31B4800F064F8C4B21A48008800F4BE
:100C70000040C8B91748008800F4804060B10A2CD1
:100C800003D000201349088020E01248008840F477
:100C900000401049088019E00D2C06D10D4800884D
:100CA00040F480400B49088010E00A480088C0F3F7
:100CB0000D0009490C5407480088401C054908806C
:100CC00008460088C72801DD0020088010BD00000C
:100CD0000038014000020020640B002070B502467D
:100CE000002400230025002040F66A16B14200D1FE
:100CF00000BFC1F3421501F01F03012606FA03F3FA
:100D0000012D02D19689334006E0022D02D1168AC8
:100D1000334001E0968A33400C12012606FA04F4AF
:100D20001688344013B10CB1012000E0002070BDE2
:100D300001468888C0F30800704700BFFEE7000046
:100D40002DE9F04106460F4607EB47002B2101EB4A
:100D5000C0001FFA80F800243AE000250EE0707809
:100D6000A84000F0800008B1322000E0192034498A
:100D700021F81400601C84B2681CC5B2082DEEDB9B
:100D800000250EE03078A84000F0800008B1322045
:100D900000E019202A4921F81400601C84B2681C64
:100DA000C5B2082DEEDB00250EE0B078A84000F0BB
:100DB000800008B1322000E01920214921F81400F8
:100DC000601C84B2681CC5B2082DEEDB781E87B2A9
:100DD000002FC2D1B078802101EA002008B1322072
:100DE00000E01920164921F81400601C84B205E0C7
:100DF0000020134921F81400601C84B24445F7DB3D
:100E000041461048FFF74CFB01210E48FFF762FAFC
:100E100001218807FFF7ECFC00BF2020FFF70CFB47
:100E20000028FAD000214FF08040FFF7E1FC0021BC
:100E30000448FFF74FFA2020FFF73EFABDE8F081A3
:100E4000040200201C0002402DE9F04106460F4636
:100E500007EB47002B2101EBC0001FFA80F80024AC
:100E60003AE000250EE07078A84000F0800008B15C
:100E7000322000E01920354921F81400601C84B2AA
:100E8000681CC5B2082DEEDB00250EE03078A840C6
:100E900000F0800008B1322000E019202B4921F831
:100EA0001400601C84B2681CC5B2082DEEDB00255E
:100EB0000EE0B078A84000F0800008B1322000E0D9
:100EC0001920224921F81400601C84B2681CC5B2A4
:100ED000082DEEDB781E87B2002FC2D1B0788021BA
:100EE00001EA002008B1322000E01920174921F85A
:100EF0001400601C84B205E00020144921F814009D
:100F0000601C84B24445F7DB41461148FFF7C8FA3C
:100F100001210F48FFF7DEF901218807FFF768FC80
:100F200000BF4FF00070FFF787FA0028F9D00021CA
:100F30004FF08040FFF75CFC00210548FFF7CAF93D
:100F40004FF00070FFF7B8F9BDE8F0815C040020B5
:100F5000800002402DE9F04106460F4607EB4700AE
:100F60002B2101EBC0001FFA80F800243AE0002595
:100F70000EE07078A84000F0800008B1322000E058
:100F80001920344921F81400601C84B2681CC5B2D1
:100F9000082DEEDB00250EE03078A84000F0800040
:100FA00008B1322000E019202A4921F81400601C01
:100FB00084B2681CC5B2082DEEDB00250EE0B078C7
:100FC000A84000F0800008B1322000E0192021493B
:100FD00021F81400601C84B2681CC5B2082DEEDB39
:100FE000781E87B2002FC2D1B078802101EA00209C
:100FF00008B1322000E01920164921F81400601CC5
:1010000084B205E00020134921F81400601C84B26A
:101010004445F7DB41461048FFF742FA01210E48EC
:10102000FFF758F901218807FFF7E2FB00BF022014
:10103000FFF702FA0028FAD000214FF08040FFF7B6
:10104000D7FB00210448FFF745F90220FFF734F9E8
:10105000BDE8F081B40600200800024000BF7047E0
:1010600010B56FF00400FFF77DFB0A4800680A49DD
:10107000B0FBF1F0094908700846007800EB400128
:10108000C1EBC0104FF6FF7101EAC00004490880AF
:1010900010BD0000E401002000127A00F8010020D9
:1010A000FA0100200146114A12884A434FF0E0231A
:1010B0005A6100229A611A46126942F001021A61CD
:1010C00000BF4FF0E022106900F001021AB100F4F5
:1010D0008032002AF5D04FF0E022126922F001029E
:1010E0004FF0E0231A6100229A617047FA01002054
:1010F000FFF7B6FFFFF766FAFFF7D0FC37E00821ED
:101100001B48FFF71DFE00201A4908802BE01949F3
:10111000098801EB4101184A88180821FFF710FEE1
:101120004FF4FA70FFF7BEFF1249098801EB410145
:10113000124A88180821FFF787FE4FF4FA70FFF76C
:10114000B1FF0C49098801EB41010D4A88180821BB
:10115000FFF700FF4FF4FA70FFF7A4FF054800887F
:10116000401C04490880034800883528CFDBC6E7C7
:1011700000000020E001002003000020A200002069
:1011800041010020A411000800000020040200001A
:101190006C01000820120008040200208C100000DE
:1011A000C801000861220A2214221E2228223222AB
:1011B0003C22462250225A2264226E227822822227
:1011C0008C229622A022AA22B422BE22C822D22297
:1011D000DC22E622F022FA3AFF06190C191219183D
:1011E000191E1924192A19301936193C194219489F
:1011F000194E1954195A19601966196C197219780F
:10120000197E1984198A199019967109FDA0093E51
:10121000A084A24A04C009010203040607080900C9
:040000050800020DE0
:00000001FF
