:020000040800F2
:10000000380A002045010008AD240008AF2400088C
:10001000B3240008B7240008BB2400080000000037
:10002000000000000000000000000000BF240008E5
:10003000C124000800000000C3240008C5240008F3
:100040005F0100085F0100085F0100085F01000810
:100050005F0100085F0100085F0100085F01000800
:100060005F0100085F0100085F0100085F010008F0
:100070005F0100085F0100085F0100085F010008E0
:100080005F0100085F0100085F0100085F010008D0
:100090005F0100085F0100085F0100085F010008C0
:1000A0005F0100085F0100085F0100085F010008B0
:1000B0009F2E00085F0100085F0100085F01000833
:1000C0005F0100085F0100085F0100085F01000890
:1000D0005F01000859330008E73300085F0100089A
:1000E0003F2D00085F0100085F0100085F01000864
:1000F0005F0100085F0100085F0100085F01000860
:100100005F0100085F0100085F0100085F0100084F
:100110005F0100085F0100085F0100085F0100083F
:100120005F0100085F0100085F0100085F0100082F
:10013000DFF80CD003F0A2FA00480047C5230008FE
:10014000380A00200648804706480047FEE7FEE7D9
:10015000FEE7FEE7FEE7FEE7FEE7FEE7FEE7FEE777
:1001600047020008310100080CB500200190009002
:100170006C48006840F480306A49086000BF6948F4
:10018000006800F4003000900198401C0190009835
:1001900018B90198B0F5A06FF1D16248006800F479
:1001A000003010B10120009001E000200090009884
:1001B000012843D15C48006840F010005A490860AB
:1001C0000846006820F0030008600846006840F018
:1001D0000200086053484068524948600846406839
:1001E00048600846406840F48060486008464068BF
:1001F00020F47C1048600846406840F4E8104860ED
:100200000846006840F08070086000BF45480068FC
:1002100000F000700028F9D04248406820F0030048
:10022000404948600846406840F00200486000BF0E
:100230003C48406800F00C000828F9D10CBD10B50E
:10024000FFF792FF10BD10B53648006840F001007E
:1002500034490860084640683449084031494860DC
:1002600008460068324908402E4908600846006880
:1002700020F4802008600846406820F4FE004860B2
:100280004FF41F008860FFF7DAFF4FF00060294944
:10029000086010BD10B5002100200022214B5B68D2
:1002A00003F00C0121B1042906D0082928D107E068
:1002B000214B224C236027E01F4B204C236023E07E
:1002C000184B5B6803F47010164B5B6803F48032C4
:1002D000022303EB904022B9194B4343174C236090
:1002E0000DE0104B5B6803F4003323B1144B434320
:1002F000124C236003E0104B4343104C236003E097
:100300000D4B0E4C236000BF00BF064B5B68C3F370
:1003100003130C4CE15C094B1B68CB40074C23607A
:1003200010BD000000100240002002400000FFF855
:10033000FFFFF6FE08ED00E000127A00000000204A
:1003400000093D000400002031490143314A116099
:10035000704770B5002100230F22C47804B32D4CE0
:10036000246804F4E064C4F5E064210AC1F10403E4
:10037000CA40447804FA03F1847814402143090107
:10038000254C0678A155047804F01F050124AC40E3
:1003900005786D11AD0005F1E025C5F8004109E0D3
:1003A000047804F01F050124AC401C4D067876113A
:1003B00045F8264070BD1A4A0A400243154B1B1FE0
:1003C0001A60704739B1134A121D12680243114B6B
:1003D0001B1D1A6006E00F4A121D126882430D4B66
:1003E0001B1D1A607047042808D14FF0E0210969ED
:1003F00041F004014FF0E022116107E04FF0E021ED
:10040000096921F004014FF0E022116170470000FA
:100410000000FA050CED00E000E400E080E100E0FF
:1004200080FFFF1F01684FF6FE721140016000213E
:10043000016041608160C1608D49884208D18C496A
:100440000839496841F00F01894A083A51608AE049
:1004500087491431884208D185490839496841F0F3
:10046000F001834A083A51607DE081492831884291
:1004700008D17F490839496841F470617C4A083ADB
:10048000516070E07A493C31884208D17849083996
:10049000496841F47041764A083A516063E0744912
:1004A0005031884208D172490839496841F47021B5
:1004B0006F4A083A516056E06D496431884208D16C
:1004C0006B490839496841F47001694A083A51603A
:1004D00049E067497831884208D165490839496857
:1004E00041F07061624A083A51603CE061498842DB
:1004F00006D1011F096841F00F01021F116032E0AF
:100500005C491431884208D15A49091F096841F0F1
:10051000F001584A121F116025E0564928318842DF
:1005200008D15449091F096841F47061514A121FEA
:10053000116018E04F493C31884208D14D49091FEC
:10054000096841F470414B4A121F11600BE04949A0
:100550005031884207D14749091F096841F4702189
:10056000444A121F1160704710B50022026847F616
:10057000F0739A430C6A8B6823430C6923434C69DC
:1005800023438C692343CC6923434C6A23438C6AFD
:1005900023431A430260CB6843600B6883604B6857
:1005A000C36010BD0021016041608160C1600161D4
:1005B00041618161C161016241628162704721B123
:1005C000026842F00102026004E002684FF6FE7326
:1005D0001A40026070471AB103680B43036002E0DF
:1005E00003688B4303607047416070470146486869
:1005F00080B2704701460020002201F080531BB1F9
:100600001C4B083B1A6802E0194B083B1A6802EAC7
:1006100001030BB1012000E00020704700F0805181
:1006200019B11449091F086002E0114908394860EE
:10063000704701460020002201F080531BB10D4B92
:10064000083B1A6802E00A4B083B1A6802EA0103F9
:100650000BB1012000E00020704700F0805119B17B
:100660000449091F086002E00149083948607047E1
:100670000800024008040240002044490860091DA7
:100680000860091D0860091D086041483F49143190
:100690000860704700213D498279002A3AD00A4615
:1006A000126803689A430B461A600A1D12680368B1
:1006B0009A430B1D1A60027911440A6803681A43B1
:1006C0000A60324A0832126803689A432F4B083393
:1006D0001A601A1D126803689A432C4B0C331A6077
:1006E0004279102A0ED11A1F126803681A43274B49
:1006F00008331A601A1D126803681A43234B0C331F
:100700001A600DE02149427911440A6803681A43CE
:100710000A6005E0027911440A6803689A430A6096
:1007200070470021016001710C214171002181712C
:1007300070471649103109680143144A103211609C
:10074000704701460020114A143212680A400AB16B
:10075000012000E0002070470C4914310860704708
:10076000014600200022094B1B6803EA0102074BE7
:1007700014331B680B4013B10AB1012000E00020C4
:1007800070470249143108607047000000040140BE
:10079000FFFF0F0010B50446CC48844208D1012168
:1007A000042000F02DFB0021042000F029FB46E08E
:1007B000C748844208D10121082000F021FB002114
:1007C000082000F01DFB3AE0C248844208D1012114
:1007D000102000F015FB0021102000F011FB2EE08E
:1007E000BD48844208D10121202000F009FB0021EE
:1007F000202000F005FB22E0B848844208D1012106
:10080000402000F0FDFA0021402000F0F9FA16E047
:10081000B348844208D10121802000F0F1FA002180
:10082000802000F0EDFA0AE0AE48844207D10121B1
:10083000801500F0E5FA0021A01500F0E1FA10BDE6
:1008400010B50121084600F0DBFA0021012000F07C
:10085000D7FA10BD2DE9F041024600250026002000
:1008600000230024002791F803C00CF00F0591F835
:1008700003C00CF0100CBCF1000F03D091F802C0C3
:100880004CEA050591F800C0BCF1000F31D01468A6
:1008900000202BE04FF0010C0CFA00F3B1F800C07F
:1008A0000CEA03069E4220D183004FF00F0C0CFA95
:1008B00003F7BC4305FA03FC4CEA040491F803C0B7
:1008C000BCF1280F06D14FF0010C0CFA00FCC2F865
:1008D00014C00AE091F803C0BCF1480F05D14FF0F5
:1008E000010C0CFA00FCC2F810C0401C0828D1D33F
:1008F0001460B1F800C0BCF1FF0F34DD5468002073
:100900002EE000F1080C4FF0010808FA0CF3B1F8E2
:1009100000C00CEA03069E4221D183004FF00F0C69
:100920000CFA03F7BC4305FA03FC4CEA040491F803
:1009300003C0BCF1280F05D100F1080C08FA0CF82F
:10094000C2F8148091F803C0BCF1480F07D100F140
:10095000080C4FF0010808FA0CF8C2F81080401C8F
:100960000828CED35460BDE8F0814FF6FF710180B6
:10097000022181700421C1707047024600209368F3
:100980000B400BB1012000E0002070470146886851
:1009900080B2704702460020D3680B400BB10120A3
:1009A00000E0002070470146C86880B270470161CE
:1009B0007047416170470AB1016100E041617047D1
:1009C000C16070474FF480320A4382618161826165
:1009D00082698269704702460020434B18684FF6CF
:1009E0008073184040EA021008433F4B186070477C
:1009F0003E49C8617047F0B50A4600230024002133
:100A0000002500F00046B6F1004F02D1364EF169E4
:100A100001E0354E7168C0F3034583B200F440161F
:100A2000B6F5401F08D121F070612F4E766826F090
:100A300070662D4F7E6012E000F48016B6F5801FC0
:100A400006D1032606FA05F4A14341F0706106E0E1
:100A5000460D360103FA06F6B14341F0706122B14A
:100A6000460D360103FA06F6314300F00046B6F1B2
:100A7000004F02D11C4EF16101E01B4E7160F0BDD0
:100A800030B500228B071C0F0F2303FA04F2164B1C
:100A900008338C1053F824309343134C08348D10D2
:100AA00044F8253023468C1053F824308C07240F4B
:100AB00000FA04F423430C4C08348D1044F825301C
:100AC00030BD0A49DC310860704700000008014071
:100AD000000C0140001001400014014000180140CA
:100AE000001C0140002001400000014000002042A5
:100AF000DF48006840F00100DD49086008464068B2
:100B0000DC490840DA49486008460068DA4908408C
:100B1000D74908600846006820F48020086008462D
:100B2000406820F4FE0048604FF41F008860704762
:100B3000CF49096821F48031CD4A11601146096816
:100B400021F480211160B0F5803F03D0B0F5802FF3
:100B50000ED106E0C649096841F48031C44A1160EB
:100B600007E0C349096841F4A021C14A116000E0CF
:100B700000BF00BF704710B50146002200230020CF
:100B80004A11012A02D1BA4C236806E0022A02D196
:100B9000B74C236A01E0B64C636A01F01F020124DE
:100BA00094401C400CB1012000E0002010BD38B57D
:100BB000002000900024002500BF3120FFF7DBFF5C
:100BC00005460098401C00900098B0F5A06F01D039
:100BD000002DF2D03120FFF7CEFF08B1012400E054
:100BE0000024204638BD01460020A14A106820F0AC
:100BF000F80040EAC10010607047A04908607047E3
:100C0000024600209A4B586820F47C1042EA010307
:100C10001843974B586070479849086670470146DB
:100C20000020934A506820F003000843506070474A
:100C30008F48406800F00C007047014600208C4A45
:100C4000506820F0F00008435060704701460020D3
:100C5000874A506820F4E0600843506070470146BE
:100C60000020834A506820F4605040EAC100506080
:100C7000704729B17E4A527A02437D4B5A7204E092
:100C80007B4A527A82437A4B5A7270477B49D831F9
:100C90000860704701460020754A506820F44040C3
:100CA0000843506070470021714A20321170704A29
:100CB00082F82010012802D004280AD104E0012182
:100CC0006B4A2032117005E00521694A203211700B
:100CD00000E000BF00BF7047694908607047644981
:100CE000096A0143624A11627047654944390860E4
:100CF000704730B500210022002400235C4D6D6850
:100D000005F00C0121B1042905D0082923D105E003
:100D10005C4D056022E05B4D05601FE0544D6D6841
:100D200005F47012524D6D6805F48034022505EB10
:100D300092421CB9544D554305600BE04C4D6D6813
:100D400005F400351DB1504D5543056002E04D4D91
:100D50005543056002E04B4D056000BF00BF444DA8
:100D60006D6805F0F0010909484D6B5C0568DD40D0
:100D700045603F4D6D6805F4E061090A434D6B5CC9
:100D80004568DD4085603A4D6D6805F46051C90ADB
:100D90003E4D6B5C4568DD40C560354D6D6805F4C2
:100DA0004041890B3A4D6B5CC568B5FBF3F50561B5
:100DB00030BD29B12E4A526902432D4B5A6104E0DD
:100DC0002B4A526982432A4B5A61704729B1284AFB
:100DD00092690243264B9A6104E0254A9269824354
:100DE000234B9A61704729B1214AD2690243204BB3
:100DF000DA6104E01E4AD26982431D4BDA61704712
:100E000029B11B4AD2680243194BDA6004E0184A40
:100E1000D2688243164BDA60704729B1144A1269CE
:100E20000243134B1A6104E0114A12698243104BCA
:100E30001A61704712494039086070470F49C86409
:100E400070470B49C87170470948406A40F080708C
:100E500007494862704701460020054A92680A40E7
:100E60000AB1012000E000207047014988727047F4
:100E7000001002400000FFF8FFFFF6FE00004242B3
:100E80008004424200127A0000093D001400002054
:100E90002400002010B50446BE48844208D1012138
:100EA0008014FFF7ADFF0021A014FFF7A9FF16E0A3
:100EB000B948844208D101210014FFF7AEFF002198
:100EC0002014FFF7AAFF0AE0B448844207D10121A9
:100ED000C013FFF7A2FF0021E013FFF79EFF10BD34
:100EE00010B50022028802F441520B884C8823433B
:100EF0008C882343CC8823430C8923434C89234388
:100F00008C892343CC8923431A430280838B4FF27D
:100F1000FF74234083830B8A038210BD2DE9F04FB9
:100F200085B005460C464FF0000902274FF0000837
:100F30004FF0010B0026B246A88B4FF2400108404B
:100F4000A88302202884B5F81C90A068022801D14B
:100F500000BF38E0A08810B94FF0010B01E04FF05E
:100F6000020B8D48854200D100E000BF6846FFF7C4
:100F7000C0FEDDF800A0E088B0F5007F0AD14FEA9E
:100F80001A2000EB80004000A168B0FBF1F0401D8A
:100F900086B20BE04FEA4B10BAFBF0F000EB80009A
:100FA0004000A168B0FBF1F0401D86B20A20B6FBFC
:100FB000F0F606F00108A6EB0800C0F34F074FF665
:100FC000FF7000EA0828022F01DBFF2F02DD022755
:100FD0004FF00008E08840EA080038432884A088E1
:100FE000A1890843618808432188084340F40060D0
:100FF00040EA0909A5F81C9005B0BDE8F08F002172
:10100000018041808180C180018141818181C181D4
:101010000721018270470021018041808180C180C9
:101020000221816000218181704721B1028842F054
:101030004002028004E002884FF6BF731A4002802B
:10104000704721B1828B42F48062828304E0828BFC
:101050004FF6FF331A408283704730B500240023D7
:101060000C110125A540ABB21AB185881D438580BE
:1010700002E085889D43858030BD1AB183880B438B
:10108000838002E083888B4383807047818170472F
:101090000146888970474FF6FF62914204D002886A
:1010A00042F48072028004E002884FF6FF631A4027
:1010B0000280704721B1828842F00402828004E0FD
:1010C00082884FF6FB731A408280704702884FF285
:1010D000FF731A40028002880A4302807047018829
:1010E00041F480510180704721B1028842F40052DE
:1010F000028004E002884DF6FF731A4002807047B8
:1011000002460020012901D0108B00E0908A704730
:101110000146088A7047B1F5804F04D1028842F435
:101120008042028004E002884BF6FF731A4002807E
:1011300070470246002013890B400BB1012000E0EC
:1011400000207047CA4302817047F0B50246002074
:1011500000240023002501F00F070126BE40B4B291
:101160000B1101269E40B3B2968806EA0305168944
:10117000264016B10DB1012000E00020F0BD10B5F1
:10118000002201F00F040123A3409AB2D34303814C
:1011900010BD00000030014000380040003C00401D
:1011A00010B50446FE48844208D10121C014FFF75F
:1011B00027FE0021E014FFF723FEC4E0B4F1804FC6
:1011C00008D101210846FFF728FE00210120FFF782
:1011D00024FEB8E0F348844208D101210220FFF741
:1011E0001CFE00210220FFF718FEACE0EE4884420E
:1011F00008D101210420FFF710FE00210420FFF791
:101200000CFEA0E0E948844208D101210820FFF744
:1012100004FE00210820FFF700FE94E0E448844229
:1012200008D101211020FFF7F8FD00211020FFF761
:10123000F4FD88E0DF48844208D101212020FFF737
:10124000ECFD00212020FFF7E8FD7CE0DA48844235
:1012500008D101214014FFF7D3FD00216014FFF7EE
:10126000CFFD70E0D548844209D10121C804FFF7C1
:10127000C7FD00214FF40020FFF7C2FD63E0D04816
:10128000844209D101210805FFF7BAFD00214FF47E
:101290008010FFF7B5FD56E0CA48844209D101210C
:1012A0004805FFF7ADFD00214FF40010FFF7A8FD42
:1012B00049E0C548844208D101214020FFF7ADFD37
:1012C00000214020FFF7A9FD3DE0C048844208D13D
:1012D00001218020FFF7A1FD00218020FFF79DFD67
:1012E00031E0BB48844208D101218015FFF795FD0C
:1012F0000021A015FFF791FD25E0B648844209D1F1
:1013000001210804FFF77CFD00214FF48030FFF736
:1013100077FD18E0B048844209D101214804FFF765
:101320006FFD00214FF40030FFF76AFD0BE0AB4882
:10133000844208D101218804FFF762FD00214FF4A7
:101340008020FFF75DFD10BD00220288944B98427B
:101350000ED0994B98420BD0B0F1804F08D0914BF2
:10136000984205D0904B984202D0904B984204D1BD
:101370004FF68F731A404B881A438D4B984207D013
:101380008C4B984204D04FF6FF431A40CB881A4347
:1013900002808B8883850B880385814B98420BD014
:1013A000854B984208D08B4B984205D08A4B984287
:1013B00002D08A4B984201D10B7A038601238382A3
:1013C000704770B5002400220023058C4FF6FE768E
:1013D00035400584028C8388048B4FF68F752C4032
:1013E000B51E2C400D882C43751E2A400D892A43BA
:1013F0004D882A436A4DA8420BD06F4DA84208D0B1
:10140000744DA84205D0744DA84202D0734DA84235
:1014100013D14FF6F7752A404D892A434FF6FB75D5
:101420002A408D882A434FF6FF652B404FF6FF5523
:101430002B408D892B43CD892B4383800483CD881A
:101440008586028470BD70B5002400220023058CBF
:101450004FF6EF7635400584028C8388048B48F67E
:10146000FF752C404FF6FF452C400D884FF6FF7658
:1014700006EA05252C434FF6DF752A400D8906EA5A
:1014800005152A434D8806EA05152A43444DA8420E
:1014900002D0494DA8421DD14FF67F752A404D8993
:1014A0004FF6FF7606EA05152A434FF6BF752A4028
:1014B0008D8806EA05152A434FF6FF352B404FF27B
:1014C000FF752B408D8906EA85052B43CD8906EAF9
:1014D00085052B4383800483CD880587028470BDF6
:1014E00070B5002400220023058C4FF6FF663540BE
:1014F0000584028C8388848B4FF68F752C404FF6C1
:10150000FC752C400D882C434FF6FF552A400D8961
:101510004FF6FF7606EA05252A434D8806EA05259B
:101520002A431F4DA84202D0234DA8421DD14FF29D
:10153000FF752A404D894FF6FF7606EA05252A43B6
:101540004FF6FF352A408D8806EA05252A434EF6D8
:10155000FF752B404DF6FF752B408D8906EA05156A
:101560002B43CD8906EA05152B4383808483CD88E0
:101570008587028470BD70B5002200230024058C8D
:101580004EF6FF7635400584038C8488828B48F6BE
:10159000FF752A404FF6FF452A400D8820E00000E5
:1015A000002C01400004004000080040000C0040F6
:1015B000001000400014004000340140004C014085
:1015C000005001400054014000180040001C004041
:1015D000002000400040014000440140004801401C
:1015E0004FF6FF7606EA05252A434DF6FF752B4098
:1015F0000D8906EA05352B434D8806EA05352B4350
:10160000FA4DA84202D0FA4DA84208D14BF6FF7518
:101610002C408D894FF6FF7606EA85152C43848091
:101620008283CD88A0F84050038470BD828B4FF236
:10163000FF331A408283828B4FF6FF7303EA012344
:101640001A4382837047F0B50C46154600220021EC
:101650000026078C4EF6FF7C07EA0C070784828B76
:10166000018C4FF6FF7707EA043640F6FF473A4011
:101670004FF6FF7707EA05273A434FF6FF7707EA69
:1016800003373A43D94FB8420ED0D94FB8420BD0A6
:10169000B0F1804F08D0D74FB84205D0D64FB842EE
:1016A00002D0D64FB84206D14DF6FF77394046F406
:1016B0008057394305E047F6FF57394044F48057D7
:1016C000394382830184F0BD828B4FF6F3731A4055
:1016D0008283828B0A4382837047F0B50C4615469D
:1016E000002200210026078C4FF6FF6C07EA0C074A
:1016F0000784828B018C4FF6FF7707EA04264FF6AA
:101700000C773A404FF6FF7707EA03172F433A4327
:10171000B64FB8420ED0B64FB8420BD0B0F1804FA2
:1017200008D0B44FB84205D0B34FB84202D0B34F3F
:10173000B84206D14FF6FF57394046F48077394317
:1017400005E04FF2FF57394044F4807739438283F4
:101750000184F0BD028B4FF2FF331A400283028BEB
:101760004FF6FF7303EA01231A4302837047F0B573
:101770000C461546002200210026078C4FF6EF7C10
:1017800007EA0C070784028B018C4FF6FF7707EA04
:10179000041640F6FF473A404FF6FF7707EA033753
:1017A0003A434FF6FF7707EA05273A438F4FB8428F
:1017B0000ED08F4FB8420BD0B0F1804F08D08D4F74
:1017C000B84205D08C4FB84202D08C4FB84206D1F7
:1017D0004FF6DF77394046F01007394305E04FF602
:1017E0005F77394044F01007394302830184F0BD2C
:1017F000028B4FF6F3731A400283028B0A43028373
:101800007047F0B50C46154600220021068C4FF6B5
:10181000FE773E400684028B018C4FF60C763240F8
:101820007E1C06EA03162E433243704EB0420ED0A1
:101830006F4EB0420BD0B0F1804F08D06D4EB04229
:1018400005D06D4EB04202D06C4EB04206D14FF67C
:10185000FD76314044F00106314305E04FF6F57660
:10186000314044F00106314302830184F0BD70B57C
:1018700005460C465D4885420ED05D4885420BD03A
:10188000B5F1804F08D05B48854205D05A48854263
:1018900002D05A48854200D100E000BF208850B9EC
:1018A0002389A28861882846FFF7ABFFE188284694
:1018B000FFF79EFF25E0208804280AD12389A2880B
:1018C00061882846FFF753FFE1882846FFF742FF6B
:1018D00017E0208808280AD12389A2886188284631
:1018E000FFF7FBFEE1882846FFF7EEFE09E02389BB
:1018F000A28861882846FFF7A6FEE1882846FFF700
:1019000095FE70BD2DE9F04105460C4600260127E5
:10191000608808B9022600E00026A088012801D1CD
:10192000022700E001272088A0B92389A2886188C6
:101930002846FFF766FFE1882846FFF759FF23890D
:101940003A4631462846FFF712FFE1882846FFF75E
:1019500001FF13E02389A28861882846FFF707FF6B
:10196000E1882846FFF7F6FE23893A4631462846A5
:10197000FFF747FFE1882846FFF73AFFBDE8F0810F
:101980000A884B881A438B881A43CB881A430B89E1
:101990001A434B891A438B891A43A0F84420704795
:1019A0004FF6FF71818000210180C180418001726A
:1019B00070470021018041808180C1800181418187
:1019C0008181C18170470021018041800121818096
:1019D0000021C18001817047002101804180818008
:1019E000C18001814181818170470000002C01404C
:1019F000003401400004004000080040000C00409A
:101A000021B1028842F00102028004E002884FF610
:101A1000FE731A400280704731B1B0F8442042F49E
:101A20000042A0F8442005E0B0F84420C2F30E02C2
:101A3000A0F8442070471AB183890B43838102E0E8
:101A400083898B43838170478182704741EA020317
:101A5000A0F8483070471AB183890B43838102E0B4
:101A600083898B438381704701894FF6F872114057
:101A7000018170470A46002101894FF68F73194092
:101A800011430181704730B504460D462946204672
:101A9000FFF7F0FF208940F00700208130BD2DE9DD
:101AA000F04104460D4616461F46602D06D13B46C2
:101AB000012231462046FFF75AFE05E03B4601224F
:101AC00031462046FFF79DFE29462046FFF7D2FF0C
:101AD000208940F007002081BDE8F08130B50C4638
:101AE00000210189C9B24FF6FF7505EA03251543A8
:101AF00025432943018130BD2DE9F04105460E46BD
:101B000017469846002443463A4631462846FFF792
:101B1000E5FF2C894FF6F870044044F007044FF6B7
:101B20008F70044044F070042C81BDE8F081F0B562
:101B300004460D4616461F463B4632462946204679
:101B4000FFF7CCFF208940F480402081F0BD018563
:101B5000828270470A46002101884FF68F73194030
:101B6000114301807047F0B50C4615461E46002112
:101B7000002200230189028B038C4FF6F87739404D
:101B800021434FF6FC473A4040F201173A434FF6E3
:101B9000DD773B404FF6FF7707EA06172F433B43BD
:101BA000018102830384F0BD0A460021018B4FF6B8
:101BB0008F7319401143018370470A460021018B3E
:101BC00048F6FF7319404FF6FF7303EA02231943E7
:101BD000018370470A460021818B4FF68F731940AD
:101BE0001143818370470A460021818B48F6FF73B9
:101BF00019404FF6FF7303EA0223194381837047AC
:101C000021B1028842F08002028004E002884FF68F
:101C10007F731A400280704721B1828842F004022B
:101C2000828004E082884FF6FB731A4082807047FE
:101C300021B1828842F00802828004E082884FF657
:101C4000F7731A408280704721B1828842F0010206
:101C5000828004E082884FF6FE731A4082807047CB
:101C60000A460021018B4FF6F77319401143018397
:101C700070470A460021018B4FF2FF7319404FF65F
:101C8000FF7303EA02231943018370470A460021C8
:101C9000818B4FF6F77319401143818370470A46D1
:101CA0000021818B4FF2FF7319404FF6FF7303EA57
:101CB00002231943818370470A460021018B4FF6A6
:101CC000FB7319401143018370470A460021018BC1
:101CD0004FF6FF3319404FF6FF7303EA022319430F
:101CE000018370470A460021818B4FF6FB73194030
:101CF0001143818370470A460021818B4FF6FF33E1
:101D000019404FF6FF7303EA02231943818370479A
:101D10000A460021018B4FF67F731940114301835E
:101D200070470A460021018BC1F30E014FF6FF7385
:101D300003EA02231943018370470A460021818B7D
:101D40004FF67F7319401143818370470A46002183
:101D5000818BC1F30E014FF6FF7303EA022319438F
:101D6000818370470A460021018C4FF6FD731940AC
:101D70001143018470470A460021018C4FF6F77326
:101D800019401143018470470A460021018C4FF627
:101D9000DF7319404FF6FF7303EA021319430184FE
:101DA00070470A460021018C4FF67F7319404FF6A9
:101DB000FF7303EA02131943018470470A460021A6
:101DC000018C4FF6FF5319404FF6FF7303EA0223CD
:101DD0001943018470470A460021018C4FF2FF73BA
:101DE00019404FF6FF7303EA022319430184704739
:101DF0000A460021018C4DF6FF7319404FF6FF7320
:101E000003EA023319430184704730B500230124EB
:101E10008C40A3B2048C9C430484048C02FA01F528
:101E2000ADB22C43048430BD30B5002304248C4073
:101E3000A3B2048C9C430484048C02FA01F5ADB275
:101E40002C43048430BD70B503460020002418469E
:101E5000183001258D40ACB21D8CA5431D8409B1FD
:101E6000082909D100EB6100056825F070050560BF
:101E70000568154305600EE00D1FC5F34E052844A7
:101E8000056825F4E045056005684FF6FF7606EA2B
:101E900002263543056070BD21B1028842F002027E
:101EA000028004E002884FF6FD731A4002807047FA
:101EB00021B1028842F00402028004E002884FF659
:101EC000FB731A400280704721B1828842F0800281
:101ED000828004E082884FF67F731A4082807047C8
:101EE00002884FF6F7731A40028002880A43028084
:101EF000704782884FF68F731A40828082880A4327
:101F00008280704702894FF6F8731A400281028975
:101F10000A430281704702894FF67F731A4002819B
:101F200002890A4302817047818470478185704726
:101F3000818670470187704781877047A0F84010FD
:101F4000704702884FF6FF431A40028002880A4316
:101F5000028070470146888E70470146088F70479F
:101F60000146888F70470146B1F84000704701462E
:101F7000888C70470146088D704702460020138AFE
:101F80000B400BB1012000E000207047CA430282E1
:101F9000704730B50246002000230024158A05EA68
:101FA0000103958905EA010413B10CB1012000E099
:101FB000002030BDCA4302827047000010B50446BD
:101FC000FB48844209D101218803FEF719FF002153
:101FD0004FF48040FEF714FF32E0F648844209D106
:101FE00001214804FEF719FF00214FF40030FEF7ED
:101FF00014FF25E0F048844209D101218804FEF74E
:102000000CFF00214FF48020FEF707FF18E0EB489B
:10201000844209D10121C804FEF7FFFE00214FF4DC
:102020000020FEF7FAFE0BE0E548844208D10121CA
:102030000805FEF7F2FE00214FF48010FEF7EDFEDA
:1020400010BD2DE9F04786B005460E460024A24695
:1020500000BFA1460027B08900B100BF2F462C8ADF
:102060004CF6FF700440F08804432C82AC894EF695
:10207000F3100440B0883189084371890843044350
:10208000AC81AC8A4FF6FF400440B0890443AC8277
:1020900001A8FEF72EFEC648874202D1DDF810A047
:1020A00001E0DDF80CA0A88900F4004040B10AEB83
:1020B000CA0000EB0A1031684900B0FBF1F807E0F4
:1020C0000AEBCA0000EB0A1031688900B0FBF1F896
:1020D0006420B8FBF0F004012009642101FB1089A1
:1020E000A88900F4004040B1322000EBC900B0FBE9
:1020F000F1F000F00700044308E0322000EB091083
:102100006421B0FBF1F000F00F0004432C8106B015
:10211000BDE8F0874FF41651016000218180C18035
:1021200001810C21418100218181704710B5024657
:102130000020108A4FF2FF0318400B884C8823437D
:102140008C882343CC8823431843108210BD002180
:10215000018041808180C180704721B1828942F431
:102160000052828104E082894DF6FF731A40828119
:102170007047F0B50346002400260025002040F6F5
:102180006A17B94200D100BF1846C1F3421401F0EA
:102190001F06012707FA06F5012C01D10C3004E0D7
:1021A000022C01D1103000E014301AB107682F431F
:1021B000076002E00768AF430760F0BD1AB1838A89
:1021C0000B43838202E0838A8B4383827047028AB7
:1021D0004FF6F0731A400282028A0A430282704765
:1021E00082894FF2FF731A40828182890A43828179
:1021F000704721B1828942F00202828104E0828923
:102200004FF6FD731A4082817047028A4FF6DF73E2
:102210001A400282028A0A430282704721B1028A6E
:1022200042F48042028204E0028A4BF6FF731A40B5
:1022300002827047C1F30802828070470146888895
:10224000C0F308007047818941F001018181704726
:10225000028BD2B20283028B42EA012202837047D0
:10226000028B02F47F420283028B0A43028370478F
:1022700021B1828A42F02002828204E0828A4FF6F3
:10228000DF731A408282704721B1828A42F01002C5
:10229000828204E0828A4FF6EF731A40828270478E
:1022A00021B1828A42F00802828204E0828A4FF6DB
:1022B000F7731A408282704721B1828942F400424A
:1022C000828103E08289C2F30E028281704721B1CC
:1022D000828A42F40062828204E0828A4FF2FF73B3
:1022E0001A4082827047828A4FF6FB731A408282BC
:1022F000828A0A438282704721B1828A42F00202B6
:10230000828204E0828A4FF6FD731A40828270470F
:1023100002460020B1F5007F00D100BF13880B40BA
:102320000BB1012000E00020704701F40072B2F50B
:10233000007F00D100BFCA430280704770B50246DB
:10234000002400230025002040F66A16B14200D187
:1023500000BFC1F3421501F01F03012606FA03F383
:10236000012D02D19689334006E0022D02D1168A52
:10237000334001E0968A33400C12012606FA04F439
:102380001688344013B10CB1012000E0002070BD6C
:1023900010B50022002340F66A14A14200D100BF0C
:1023A0000A1201249440A3B2DC43048010BD000053
:1023B000003801400044004000480040004C00400C
:1023C0000050004000F0DAFC01F05EF801F056F831
:1023D0004FF4165000F0E1FD08220021062000F025
:1023E000DEFE322000F007FD08212B4801F0ABF89B
:1023F00000F00FFC00BF0821274801F0A4F80020DE
:102400002649088010E02549098801EB4101244A4A
:102410008818082101F097F8322000F0ECFC1F48E2
:102420000088401C1D4908801C4800883528EADBCC
:1024300000201A49088010E01849098801EB410181
:10244000184A8818082101F07EF8322000F0D3FCE9
:1024500012480088401C114908801048008835281F
:10246000EADB00200D49088010E00C49098801EBE7
:1024700041010D4A8818082101F065F8322000F06A
:10248000BAFC06480088401C0449088003480088BC
:102490003528B0DAE9E70000280000200802002013
:1024A0002B000020CA00002069010020704700BFF7
:1024B000FEE700BFFEE700BFFEE700BFFEE7704794
:1024C00070477047704700000CE0042107E071225C
:1024D00001E0531EDAB2002AFBDC4B1ED9B2002900
:1024E000F5DC401E0028F0D1704710B50421FE48ED
:1024F000FEF75FFA40F6FF70FFF7E6FF0421FA48A7
:10250000FEF755FA40F6FF70FFF7DEFF10BD10B57D
:102510004FF48071F548FEF74AFA0421F248FEF7BD
:1025200046FA10BD10B54FF48071F048FEF741FA3D
:1025300040F6FF70FFF7C8FF4FF48071EB48FEF7DD
:1025400036FA40F6FF70FFF7BFFF10BD10B54FF42D
:102550008071E648FEF72DFA0421E348FEF729FAD8
:1025600040F6FF70FFF7B0FF4FF48071DF48FEF7D1
:102570001EFA0421DC48FEF71AFA40F6FF70FFF756
:10258000A3FF10BD10B54FF48071D848FEF711FAC3
:1025900040F6FF70FFF798FF0421D348FEF709FAD1
:1025A00040F6FF70FFF790FF4FF48071CF48FEF7C1
:1025B000FEF940F6FF70FFF787FF0421CA48FEF7D7
:1025C000F6F940F6FF70FFF77FFF10BD10B5044627
:1025D000072C1AD2DFE804F01904070A0D101300C3
:1025E000FFF7D0FF12E0FFF7B1FF0FE0FFF79AFF10
:1025F0000CE0FFF78CFF09E0FFF777FF06E0C2224F
:1026000005210F2000F0CBFD00E000BF00BF10BD92
:1026100010B5044600BF0221B548FEF78AFD002828
:10262000F9D02146B248FEF731FD00BF0121B04884
:10263000FEF77FFD0028F9D0AD48FEF729FDC0B2B6
:1026400010BD70B504461021A848FEF7B2F94FF44A
:102650000051A848FEF7ADF90520FFF7D9FF204645
:10266000FFF7D6FF0020FFF7D3FF054610219F4854
:10267000FEF79DF9284670BD10B5C520FFF7E1FFB4
:1026800010BD30B500210022002300BF0BE0002266
:1026900006E0C82300BF1C00A3F10103FBD1521CBC
:1026A0008242F6D3491C0529F1D330BD10B54FF451
:1026B00000419048FEF77BF96420FFF7E2FF4FF4FA
:1026C00000418C48FEF775F96420FFF7DAFF4FF4FC
:1026D00000418848FEF76BF96420FFF7D2FF102114
:1026E0008248FEF766F96420FFF7CBFF10217F4890
:1026F000FEF75DF96420FFF7C4FF10BD70B5054615
:102700000C4610217948FEF754F94FF400517948EE
:10271000FEF74FF90420FFF77BFF2846FFF778FF0D
:102720002046FFF775FF10217048FEF740F970BD95
:1027300070B5002500240BE0B220FFF782FF2128AE
:1027400001D1012506E00A20FFF79BFF601CC4B2FF
:102750000A2CF1DB00BF284670BD10B5432135209F
:10276000FFF7CCFF09211C20FFF7C8FF2021BD2067
:10277000FFF7C4FF01210820FFF7C0FF0520FFF786
:1027800080FF00210820FFF7B9FF0520FFF779FF40
:10279000FFF7CEFF08B9002010BDFF21B220FFF7E0
:1027A000ADFF06213720FFF7A9FF06213720FFF7ED
:1027B000A5FF0520FFF765FF0B211C20FFF79EFFFB
:1027C00010212920FFF79AFF0021BD20FFF796FF77
:1027D0000120E1E770B5A0B07822474902A800F0D7
:1027E0003BFF46A103C9CDE900010126002441E0D9
:1027F000FFF79EFF08B900263EE01DF80410C12037
:10280000FFF77CFF0021C320FFF778FF0421082099
:10281000FFF774FF0120FFF734FF00210820FFF7C6
:102820006DFF0120FFF72DFF002512E004EB84006F
:1028300002A901EB8000405D00B90CE004EB8400CC
:1028400002AA02EB8000415D0520FFF757FF681CDC
:10285000C5B2142DEADB00BF2946B920FFF74EFFB1
:10286000FF21B220FFF74AFF04213720FFF746FF80
:10287000601CC4B2062CBBDB00BF304620B070BD6C
:1028800010B50620FFF7DDFE35211720FFF736FFD4
:102890000520FFF7F6FE0620FFF7D3FE032189206F
:1028A000FFF72CFF0520FFF7ECFE4321CF20FFF7B9
:1028B00025FF0520FFF7E5FE0221CB20FFF71EFFD5
:1028C0000A211120FFF71AFF0E480078402822D174
:1028D00000211E20FFF712FF0F211920FFF70EFF26
:1028E00018211B2010E000000014014000080140E6
:1028F00000300140000C01401437000801020304BD
:10290000050600000D020020FFF7F8FE2C211D2017
:10291000FFF7F4FE0FE000211E20FFF7EFFE3F213E
:102920001920FFF7EBFE48211B20FFF7E7FE1F21D0
:102930001D20FFF7E3FE0520FFF7A3FE0421CD20B5
:10294000FFF7DCFE4C211720FFF7D8FE0120FFF730
:1029500098FE0021B920FFF7D1FE4F21CF20FFF7CD
:10296000CDFEFF216F20FFF7C9FE10BD10B5082076
:10297000FB490870FFF784FF0021BD20FFF7BEFE72
:1029800048211720FFF7BAFE0520FFF77AFE8021C5
:102990003C20FFF7B3FE07213E20FFF7AFFEFF21EB
:1029A0003820FFF7ABFE07213A20FFF7A7FE0021F2
:1029B0004020FFF7A3FE08214220FFF79FFE0021E1
:1029C0004420FFF79BFE08214620FFF797FE0120D9
:1029D000FFF757FE10BD10B5FFF7C8FF10BD70B56B
:1029E0000024002500BF1DE0FFF7F5FF6420FFF77E
:1029F00048FEFFF7EFFE28B9FFF758FE3220FFF739
:102A000040FE0DE00A20FFF73CFEFFF7A6FE28B9C6
:102A1000FFF74CFE3220FFF734FE01E0012503E012
:102A2000601CC4B2052CDFDB00BF284670BD08B5B2
:102A300001212420FEF7CAF94FF48070ADF80000A0
:102A400003208DF8020010208DF803006946C54868
:102A5000FDF700FF0420ADF800006946C248FDF70D
:102A6000F9FE4FF48071BF48FDF7A3FF0421BE4873
:102A7000FDF79FFF40F6FF70FFF726FD4FF48071D2
:102A8000B848FDF794FF0421B748FDF790FF08BD53
:102A900000B587B001210803FEF798F901210C2049
:102AA000FEF794F94020ADF8040003208DF80600ED
:102AB00018208DF8070001A9AA48FDF7CBFE802059
:102AC000ADF8040001A9A748FDF7C4FE2020ADF829
:102AD000040001A9A348FDF7BDFE4FF40050ADF876
:102AE000040003208DF8060010208DF8070001A9CE
:102AF0009E48FDF7AFFE10219A48FDF758FF0021D0
:102B00009B48FEF792FA0020ADF808004FF482705F
:102B1000ADF80A000020ADF80C000220ADF80E0060
:102B20000020ADF810004FF40070ADF8120028201E
:102B3000ADF814000020ADF816000720ADF818001D
:102B400002A98B48FEF7CCF901218948FEF76DFAFE
:102B500007B000BD1FB501210846FEF737F9012176
:102B60000820FEF733F94FF48050ADF80000042040
:102B70008DF8030003208DF8020069467B48FDF7BD
:102B800069FE0C210120FDF77BFF4FF4805002907D
:102B900000208DF80C000C208DF80D0001208DF820
:102BA0000E0002A8FDF776FD28208DF80400012014
:102BB0008DF805008DF806008DF8070001A8FDF7D7
:102BC000C8FB1FBD08B501210C20FEF7FFF810203F
:102BD000ADF8000003208DF8020010208DF80300EE
:102BE00069466048FDF736FE4FF40040ADF800003E
:102BF00069465E48FDF72EFE08BD10B5FFF7E2FFFF
:102C0000FFF7A8FFFFF744FFFFF711FFFFF74EFDA7
:102C100010BD0024FFF7F1FF00205649087037E08F
:102C200054480078102815D003DC48B1012826D17B
:102C300004E0112824D0312821D100E000BF23E096
:102C400001204C490870FFF7CAFE10B931204949EC
:102C5000087019E0FFF710FD0446062C08D2DFE8E3
:102C600004F007030405060804E003E002E001E0C5
:102C700000BF00BF00BF00203E49087004E000BF55
:102C800000203C49087000BF00BF2046FFF79EFCB3
:102C9000C6E710B500242B20FFF7D3FC3649087097
:102CA00000212920FFF72AFD00210220FFF726FD41
:102CB0003148007800F01000C8B1B220FFF7C1FC25
:102CC000212814D1BF20FFF7BCFC35280FD1BA2032
:102CD000FFF7B7FC0446002C05DD042C03DC1020B4
:102CE0002449087006E011202249087002E01120F2
:102CF0002049087000212B20FFF700FD00211C2037
:102D0000FFF7FCFC00212920FFF7F8FC002102203E
:102D1000FFF7F4FC00212B20FFF7F0FC0021BA2084
:102D2000FFF7ECFC0021BC20FFF7E8FC01210820A4
:102D3000FFF7E4FC00210820FFF7E0FC10BD10B510
:102D40004FF48050FDF70CFD48B1FFF7A2FF4FF4A0
:102D50008050FDF701FD4FF48050FDF712FD10BDCE
:102D60000D0200200008014000140140000C014049
:102D7000003001400C0200200E02002010B56FF060
:102D80000400FDF730FB2E4800682E49B0FBF1F03F
:102D90002D4908700846007800EB4001C1EBC010D7
:102DA0004FF6FF7101EAC0002849088010BD0146B6
:102DB000254A12784A434FF0E0235A6100229A6173
:102DC0001A46126942F001021A6100BF4FF0E02278
:102DD000106900F001021AB100F48032002AF5D027
:102DE0004FF0E022126922F001024FF0E0231A6155
:102DF00000229A6170470146144A12884A434FF0F4
:102E0000E0235A6100229A611A46126942F00102D7
:102E10001A6100BF4FF0E022106900F001021AB100
:102E200000F48032002AF5D04FF0E022126922F03F
:102E300001024FF0E0231A6100229A6170470000FE
:102E40000000002000127A00100200201202002070
:102E50001FB501210846FDF7C6FF01A8FEF7A0FD3A
:102E60000020ADF806000820ADF804000120ADF800
:102E7000080001A98007FEF767FA1C208DF8000002
:102E800001208DF801008DF802008DF803006846DE
:102E9000FDF75FFA0821C806FFF722F81FBD10B53D
:102EA00001218807FFF786F84FF08040008A20F064
:102EB00001004FF08041088201202E490870002156
:102EC0008007FEF79DFD002201218807FEF7B3FD74
:102ED00010BD10B504460020264908704FF080410F
:102EE00008852005000C888501212348FEF788FD10
:102EF0004FF08040808A40F001004FF0804188828E
:102F00000846008A20F0010008820122114690073D
:102F1000FEF791FD01218807FEF772FD00BF1548FD
:102F200000780028FBD010BD10B5044600201149E0
:102F3000087040F2E7304FF0804108852005000C12
:102F400088850846808A40F0010088820846008A09
:102F500020F001000882012211469007FEF76BFD68
:102F600001218807FEF74CFD00BF024800780028C9
:102F7000FBD010BD1402002000100040014600BF2D
:102F8000704700BFFE4A128802F04002002AF9D0C2
:102F9000C2B2FB4B1B1D1A80704710B586B00446A9
:102FA000012144F20400FDF711FF25208DF81400E3
:102FB00003208DF815008DF8160001208DF81700FC
:102FC00005A8FDF7C6F94FF40070ADF81000182001
:102FD0008DF8130003208DF8120004A9E948FDF7CD
:102FE00039FC4FF48060ADF8100004208DF8130018
:102FF00004A9E548FDF72EFC00940020ADF804007C
:10300000ADF80600ADF80800ADF80C000C20ADF8E6
:103010000A006946DA48FFF714F80121D848FFF79B
:103020009CF8012240F22551D548FFF7A2F8202153
:10303000D348FFF7FFF800BF4021D148FFF768F9F8
:103040000028F9D006B010BD10B586B004460121A5
:103050000420FDF7BBFE01214804FDF7C4FECB4868
:10306000FEF7ACFF0420ADF8140003208DF8160025
:1030700018208DF8170005A9C248FDF7EBFB0820C2
:10308000ADF8140004208DF8170005A9BD48FDF720
:10309000E1FB26208DF8000000208DF801008DF85E
:1030A000020001208DF803006846FDF752F90194F3
:1030B0000020ADF80800ADF80A00ADF80C00ADF83E
:1030C00010000C20ADF80E0001A9B048FEF7B9FFC2
:1030D000012240F22551AD48FFF74BF80121AB48E2
:1030E000FFF73BF82021A948FFF7A4F800BF4021D3
:1030F000A648FFF70DF90028F9D006B010BD70B54D
:1031000004460D4600260DE014F8011B9F48FFF70A
:1031100091F800BF80219D48FFF7FAF80028F9D008
:10312000701CC6B2AE42EFDB70BD70B504460D46F2
:1031300000260DE014F8011B9148FFF77BF800BF53
:1031400080218F48FFF7E4F80028F9D0701CC6B240
:10315000AE42EFDB70BD00208D49087009E0002011
:103160008C498B4A1278885489480078401C8849D9
:103170000870874800781428F1DB00208449087023
:1031800070470022012105E08348405C104482B270
:10319000481CC1B20729F7DB504280B270472DE9C5
:1031A000F04105460E4617467B48C57001464E71F4
:1031B0008F71FFF7E6FF80464FEA18207649C87105
:1031C00081F8088000240DE07348015D6C48FFF72A
:1031D00031F800BF80216A48FFF79AF80028F9D03B
:1031E000601CC4B20A2CEFDBBDE8F081FFB50346DA
:1031F0001446DFF8A8C19CE8E0108DE8E01000203C
:1032000003E0FF25664E3554401C0A28F9DBFF25F4
:10321000644E3570FF2B08D035462D786D1C6DB28D
:1032200035705F4D96F90060AB55002912DA0D1E1E
:1032300001DB2E4600E06E4231465A4D2D786D1C62
:103240006DB2584E3570FA26554D564F97F90070AD
:10325000EE550CE059B9534D2D786D1C6DB2514EA1
:103260003570C8254E4E4F4F97F90070F555032025
:103270002BE013291ADD5DF8205091FBF5F25DF883
:10328000205002FB1511002A1EDD464D2D786D1CC5
:103290006DB2444E3570451C05EB850502EB4505C6
:1032A0003F4E404F97F90070F5550DE000290BDDBA
:1032B0003C4D2D786D1C6DB23A4E3570384E394FFD
:1032C00097F90070F1550021401E0028D1DAFF2C3B
:1032D00009D0344D2D786D1C6DB2324E3570304DA5
:1032E00096F90060AC5500252E4E357001252E4E06
:1032F0003570FFBD10B52A482A4991F90010405C8D
:10330000FF2801D0012000E00020264991F900109B
:103310000A2901DA012100E000210840C0B1224859
:103320000078012814D11E481E4991F90010425C12
:103330001E4801780F20FFF732FF1A480078401C22
:1033400040B218490870FFF706FF002016490870C0
:1033500010BD16490870704710B50948008800F084
:10336000200038B30648FEF769FF11490870084687
:1033700000780849064A12788854054800781AE00F
:103380000038014000080140000C014000440040AA
:1033900020020020CC030020230200208C370008EC
:1033A0002D020020370200203802002022020020D7
:1033B000210200200CE0401C2949087029480078AF
:1033C000EF2806D00846007813280BDDFFF7C3FE70
:1033D00008E02548C0783D2802D101202349087023
:1033E000FFF7B9FE10BD10B540F225512048FEF799
:1033F000A5FF10B31E48FEF721FFC4B21D48008888
:1034000000F40040C8B91B48008800F4804060B157
:103410000A2C03D000201749088020E015480088B6
:1034200040F400401349088019E00D2C06D11148E2
:10343000008840F480400F49088010E00D48008863
:10344000C0F30D000C490C540A480088401C09497F
:10345000088008460088C72801DD0020088010BDCC
:103460002002002021020020CC030020380200208E
:10347000004400401E0200200403002010B54FF459
:10348000A060FCF761FF10BD00B593B001210420DE
:10349000FDF79CFC0120ADF82C0018208DF82F00C2
:1034A00003208DF82E000BA96748FDF7D3F9012101
:1034B0000846FDF798FC5920ADF844000020ADF80F
:1034C0004000ADF84600ADF8420010A94FF0804032
:1034D000FDF73AFF6020ADF830000120ADF8320072
:1034E0000020ADF83600ADF838000CA94FF0804050
:1034F000FDF767FF01210846FDF75BFC5348FCF729
:1035000091FF5348009053480190102002902A20C8
:1035100003900020049080200590400006908000D9
:103520000790002008904FF40050099000200A9066
:1035300069464648FDF718F8012211028805FEF792
:103540008AFA13B000BD2DE9F04106460F4607EB9D
:1035500047002B2101EBC0001FFA80F800243AE05D
:1035600000250EE07078A84000F0800008B13220FD
:1035700000E01920374921F81400601C84B2681C4F
:10358000C5B2082DEEDB00250EE03078A84000F033
:10359000800008B1322000E019202E4921F81400E3
:1035A000601C84B2681CC5B2082DEEDB00250EE05D
:1035B000B078A84000F0800008B1322000E0192067
:1035C000244921F81400601C84B2681CC5B2082D7F
:1035D000EEDB781E87B2002FC2D1B078802101EADD
:1035E000002008B1322000E019201A4921F8140007
:1035F000601C84B205E00020164921F81400601C0C
:1036000084B24445F7DB41461048FCF7EDFF012149
:103610000E48FCF7D4FF01218807FEF7F1F900BF3F
:103620002020FCF7E7FF0028FAD000214FF080406F
:10363000FEF7E6F900210548FCF7C1FF2020FCF762
:10364000EDFFBDE8F0810000000801401C000240D1
:1036500034000040E003002040EA01039B0703D050
:1036600009E008C9121F08C0042AFAD203E011F8C1
:10367000013B00F8013B521EF9D27047064C074D42
:1036800006E0E06840F0010394E807009847103432
:10369000AC42F6D3FCF750FD9C370008BC3700085D
:1036A00070B58C1810F8015B15F0070301D110F804
:1036B000013B2A1106D110F8012B03E010F8016B31
:1036C00001F8016B5B1EF9D12B0705D40023521EB4
:1036D0000DD401F8013BFAE710F8013BCB1A921C1C
:1036E00003E013F8015B01F8015B521EF9D5A1421A
:1036F000D8D3002070BD02E008C8121F08C1002AFC
:10370000FAD170477047002001E001C1121F002A62
:10371000FBD170476C697520736875690000000003
:1037200000000000000000007368616E207368757F
:103730006F000000000000000000000074696E6768
:10374000207A68690000000000000000000000000E
:103750007175616E206D6965000000000000000059
:10376000000000006B6169207368690000000000C0
:10377000000000000000000079696E207975650086
:103780000000000000000000000000000100000038
:103790000A00000064000000E8030000BC370008D5
:1037A000000000203C020000A03600084C38000851
:1037B0003C020020FC070000063700081184A24AE2
:1037C00004680901020304060708090C6910650270
:1037D000040608220A2214221E22282232223C2217
:1037E000462250225A2264226E22782282228C2281
:1037F0009622A022AA22B422BE22C822D222DC22F1
:10380000E622F022FA3AFF06190C19121918191EAD
:103810001924192A19301936193C19421948194E18
:103820001954195A19601966196C19721978197E88
:103830001984198A199019967109FDA0093FA001F0
:0C3840001465017EFF067BEFFF015100C4
:0400000508000131BD
:00000001FF
