:020000040800F2
:100000000006002045010008AB210008AD210008D2
:10001000B1210008B5210008B92100080000000046
:10002000000000000000000000000000BD210008EA
:10003000BF21000800000000C1210008C321000802
:100040005F0100085F0100085F0100085F01000810
:100050005F0100085F0100085F0100085F01000800
:100060005F0100085F0100085F0100085F010008F0
:100070005F0100085F0100085F0100085F010008E0
:100080005F0100085F0100085F0100085F010008D0
:100090005F0100085F0100085F0100085F010008C0
:1000A0005F0100085F0100085F0100085F010008B0
:1000B0008B2B00085F0100085F0100085F0100084A
:1000C0005F0100085F0100085F0100085F01000890
:1000D0005F01000845300008D33000085F010008C8
:1000E000292A00085F0100085F0100085F0100087D
:1000F0005F0100085F0100085F0100085F01000860
:100100005F0100085F0100085F0100085F0100084F
:100110005F0100085F0100085F0100085F0100083F
:100120005F0100085F0100085F0100085F0100082F
:10013000DFF80CD003F030F80048004771210008C8
:10014000000600200648804706480047FEE7FEE715
:10015000FEE7FEE7FEE7FEE7FEE7FEE7FEE7FEE777
:1001600047020008310100080CB500200190009002
:100170006C48006840F480306A49086000BF6948F4
:10018000006800F4003000900198401C0190009835
:1001900018B90198B0F5A06FF1D16248006800F479
:1001A000003010B10120009001E000200090009884
:1001B000012843D15C48006840F010005A490860AB
:1001C0000846006820F0030008600846006840F018
:1001D0000200086053484068524948600846406839
:1001E00048600846406840F48060486008464068BF
:1001F00020F47C1048600846406840F4E8104860ED
:100200000846006840F08070086000BF45480068FC
:1002100000F000700028F9D04248406820F0030048
:10022000404948600846406840F00200486000BF0E
:100230003C48406800F00C000828F9D10CBD10B50E
:10024000FFF792FF10BD10B53648006840F001007E
:1002500034490860084640683449084031494860DC
:1002600008460068324908402E4908600846006880
:1002700020F4802008600846406820F4FE004860B2
:100280004FF41F008860FFF7DAFF4FF00060294944
:10029000086010BD10B5002100200022214B5B68D2
:1002A00003F00C0121B1042906D0082928D107E068
:1002B000214B224C236027E01F4B204C236023E07E
:1002C000184B5B6803F47010164B5B6803F48032C4
:1002D000022303EB904022B9194B4343174C236090
:1002E0000DE0104B5B6803F4003323B1144B434320
:1002F000124C236003E0104B4343104C236003E097
:100300000D4B0E4C236000BF00BF064B5B68C3F370
:1003100003130C4CE15C094B1B68CB40074C23607A
:1003200010BD000000100240002002400000FFF855
:10033000FFFFF6FE08ED00E000127A00000000204A
:1003400000093D000400002031490143314A116099
:10035000704770B5002100230F22C47804B32D4CE0
:10036000246804F4E064C4F5E064210AC1F10403E4
:10037000CA40447804FA03F1847814402143090107
:10038000254C0678A155047804F01F050124AC40E3
:1003900005786D11AD0005F1E025C5F8004109E0D3
:1003A000047804F01F050124AC401C4D067876113A
:1003B00045F8264070BD1A4A0A400243154B1B1FE0
:1003C0001A60704739B1134A121D12680243114B6B
:1003D0001B1D1A6006E00F4A121D126882430D4B66
:1003E0001B1D1A607047042808D14FF0E0210969ED
:1003F00041F004014FF0E022116107E04FF0E021ED
:10040000096921F004014FF0E022116170470000FA
:100410000000FA050CED00E000E400E080E100E0FF
:1004200080FFFF1F002044490860091D0860091D66
:100430000860091D086041483F4914310860704751
:1004400000213D498279002A3AD00A4612680368A1
:100450009A430B461A600A1D126803689A430B1DE3
:100460001A60027911440A6803681A430A60324A22
:100470000832126803689A432F4B08331A601A1D1A
:10048000126803689A432C4B0C331A604279102A85
:100490000ED11A1F126803681A43274B08331A60DB
:1004A0001A1D126803681A43234B0C331A600DE0BF
:1004B0002149427911440A6803681A430A6005E039
:1004C000027911440A6803689A430A607047002160
:1004D000016001710C214171002181717047164941
:1004E000103109680143144A103211607047014607
:1004F0000020114A143212680A400AB1012000E0BB
:10050000002070470C4914310860704701460020F4
:100510000022094B1B6803EA0102074B14331B68D6
:100520000B4013B10AB1012000E0002070470249DE
:10053000143108607047000000040140FFFF0F0005
:1005400010B50446CC48844208D10121042000F0B3
:100550002DFB0021042000F029FB46E0C74884421F
:1005600008D10121082000F021FB0021082000F023
:100570001DFB3AE0C248844208D10121102000F05E
:1005800015FB0021102000F011FB2EE0BD48844235
:1005900008D10121202000F009FB0021202000F0DB
:1005A00005FB22E0B848844208D10121402000F038
:1005B000FDFA0021402000F0F9FA16E0B348844229
:1005C00008D10121802000F0F1FA0021802000F004
:1005D000EDFA0AE0AE48844207D10121801500F00F
:1005E000E5FA0021A01500F0E1FA10BD10B50121D7
:1005F000084600F0DBFA0021012000F0D7FA10BD18
:100600002DE9F041024600250026002000230024A9
:10061000002791F803C00CF00F0591F803C00CF00F
:10062000100CBCF1000F03D091F802C04CEA050594
:1006300091F800C0BCF1000F31D0146800202BE00D
:100640004FF0010C0CFA00F3B1F800C00CEA0306FD
:100650009E4220D183004FF00F0C0CFA03F7BC43ED
:1006600005FA03FC4CEA040491F803C0BCF1280F1E
:1006700006D14FF0010C0CFA00FCC2F814C00AE0DD
:1006800091F803C0BCF1480F05D14FF0010C0CFAF2
:1006900000FCC2F810C0401C0828D1D31460B1F887
:1006A00000C0BCF1FF0F34DD546800202EE000F1E3
:1006B000080C4FF0010808FA0CF3B1F800C00CEA7E
:1006C00003069E4221D183004FF00F0C0CFA03F772
:1006D000BC4305FA03FC4CEA040491F803C0BCF1E6
:1006E000280F05D100F1080C08FA0CF8C2F81480A4
:1006F00091F803C0BCF1480F07D100F1080C4FF08E
:10070000010808FA0CF8C2F81080401C0828CED363
:100710005460BDE8F0814FF6FF71018002218170C5
:100720000421C17070470246002093680B400BB152
:10073000012000E0002070470146886880B27047C1
:1007400002460020D3680B400BB1012000E00020DE
:1007500070470146C86880B27047016170474161C7
:1007600070470AB1016100E041617047C1607047A4
:100770004FF480320A4382618161826182698269B9
:10078000704702460020434B18684FF680731840AC
:1007900040EA021008433F4B186070473E49C86169
:1007A0007047F0B50A46002300240021002500F020
:1007B0000046B6F1004F02D1364EF16901E0354EE8
:1007C0007168C0F3034583B200F44016B6F5401FCC
:1007D00008D121F070612F4E766826F070662D4F9B
:1007E0007E6012E000F48016B6F5801F06D1032665
:1007F00006FA05F4A14341F0706106E0460D3601AA
:1008000003FA06F6B14341F0706122B1460D36019C
:1008100003FA06F6314300F00046B6F1004F02D16C
:100820001C4EF16101E01B4E7160F0BD30B500223D
:100830008B071C0F0F2303FA04F2164B08338C109E
:1008400053F824309343134C08348D1044F825306A
:1008500023468C1053F824308C07240F00FA04F43C
:1008600023430C4C08348D1044F8253030BD0A4920
:10087000DC3108607047000000080140000C0140B6
:10088000001001400014014000180140001C01400C
:10089000002001400000014000002042DF480068C5
:1008A00040F00100DD49086008464068DC49084026
:1008B000DA49486008460068DA490840D7490860C4
:1008C0000846006820F4802008600846406820F44C
:1008D000FE0048604FF41F0088607047CF490968E8
:1008E00021F48031CD4A11601146096821F480213C
:1008F0001160B0F5803F03D0B0F5802F0ED106E037
:10090000C649096841F48031C44A116007E0C3490F
:10091000096841F4A021C14A116000E000BF00BF96
:10092000704710B501460022002300204A11012A19
:1009300002D1BA4C236806E0022A02D1B74C236ADE
:1009400001E0B64C636A01F01F02012494401C4090
:100950000CB1012000E0002010BD38B5002000904F
:100960000024002500BF3120FFF7DBFF054600987B
:10097000401C00900098B0F5A06F01D0002DF2D07F
:100980003120FFF7CEFF08B1012400E0002420460B
:1009900038BD01460020A14A106820F0F80040EA66
:1009A000C10010607047A0490860704702460020EF
:1009B0009A4B586820F47C1042EA01031843974B85
:1009C0005860704798490866704701460020934A6E
:1009D000506820F003000843506070478F4840681B
:1009E00000F00C007047014600208C4A506820F04F
:1009F000F00008435060704701460020874A506865
:100A000020F4E06008435060704701460020834AAC
:100A1000506820F4605040EAC1005060704729B12E
:100A20007E4A527A02437D4B5A7204E07B4A527AE4
:100A300082437A4B5A7270477B49D83108607047BD
:100A400001460020754A506820F440400843506039
:100A500070470021714A20321170704A82F82010CC
:100A6000012802D004280AD104E001216B4A203277
:100A7000117005E00521694A2032117000E000BFC5
:100A800000BF70476949086070476449096A0143BB
:100A9000624A11627047654944390860704730B551
:100AA00000210022002400235C4D6D6805F00C013C
:100AB00021B1042905D0082923D105E05C4D05604A
:100AC00022E05B4D05601FE0544D6D6805F4701227
:100AD000524D6D6805F48034022505EB92421CB935
:100AE000544D554305600BE04C4D6D6805F40035E1
:100AF0001DB1504D5543056002E04D4D5543056015
:100B000002E04B4D056000BF00BF444D6D6805F02D
:100B1000F0010909484D6B5C0568DD4045603F4DBB
:100B20006D6805F4E061090A434D6B5C4568DD4082
:100B300085603A4D6D6805F46051C90A3E4D6B5CA5
:100B40004568DD40C560354D6D6805F44041890B51
:100B50003A4D6B5CC568B5FBF3F5056130BD29B155
:100B60002E4A526902432D4B5A6104E02B4A5269C6
:100B700082432A4B5A61704729B1284A926902433D
:100B8000264B9A6104E0254A92698243234B9A617D
:100B9000704729B1214AD2690243204BDA6104E04F
:100BA0001E4AD26982431D4BDA61704729B11B4A44
:100BB000D2680243194BDA6004E0184AD2688243D3
:100BC000164BDA60704729B1144A12690243134B7D
:100BD0001A6104E0114A12698243104B1A6170478E
:100BE00012494039086070470F49C86470470B4983
:100BF000C87170470948406A40F0807007494862F0
:100C0000704701460020054A92680A400AB1012057
:100C100000E00020704701498872704700100240D0
:100C20000000FFF8FFFFF6FE00004242800442424F
:100C300000127A0000093D0014000020240000206A
:100C400010B50446BE48844208D101218014FFF744
:100C5000ADFF0021A014FFF7A9FF16E0B9488442B8
:100C600008D101210014FFF7AEFF00212014FFF787
:100C7000AAFF0AE0B448844207D10121C013FFF75C
:100C8000A2FF0021E013FFF79EFF10BD10B5002268
:100C9000028802F441520B884C8823438C882343FA
:100CA000CC8823430C8923434C8923438C892343D9
:100CB000CC8923431A430280838B4FF2FF74234075
:100CC00083830B8A038210BD2DE9F04F85B0054662
:100CD0000C464FF0000902274FF000084FF0010BBF
:100CE0000026B246A88B4FF240010840A88302209C
:100CF0002884B5F81C90A068022801D100BF38E014
:100D0000A08810B94FF0010B01E04FF0020B8D48A5
:100D1000854200D100E000BF6846FFF7C0FEDDF865
:100D200000A0E088B0F5007F0AD14FEA1A2000EB5E
:100D300080004000A168B0FBF1F0401D86B20BE0DE
:100D40004FEA4B10BAFBF0F000EB80004000A168C6
:100D5000B0FBF1F0401D86B20A20B6FBF0F606F0BB
:100D60000108A6EB0800C0F34F074FF6FF7000EA3A
:100D70000828022F01DBFF2F02DD02274FF00008B9
:100D8000E08840EA080038432884A088A189084305
:100D9000618808432188084340F4006040EA09095B
:100DA000A5F81C9005B0BDE8F08F002101804180BE
:100DB0008180C180018141818181C18107210182BE
:100DC00070470021018041808180C18002218160C3
:100DD00000218181704721B1028842F040020280E7
:100DE00004E002884FF6BF731A400280704721B1B9
:100DF000828B42F48062828304E0828B4FF6FF3361
:100E00001A408283704730B5002400230C1101255D
:100E1000A540ABB21AB185881D43858002E0858864
:100E20009D43858030BD1AB183880B43838002E0E7
:100E300083888B438380704781817047014688890E
:100E400070474FF6FF62914204D0028842F48072EC
:100E5000028004E002884FF6FF631A400280704768
:100E600021B1828842F00402828004E082884FF639
:100E7000FB731A408280704702884FF2FF731A405A
:100E8000028002880A4302807047018841F4805141
:100E90000180704721B1028842F40052028004E0D0
:100EA00002884DF6FF731A40028070470246002008
:100EB000012901D0108B00E0908A70470146088A12
:100EC0007047B1F5804F04D1028842F4804202801D
:100ED00004E002884BF6FF731A4002807047024616
:100EE000002013890B400BB1012000E00020704767
:100EF000CA4302817047F0B5024600200024002357
:100F0000002501F00F070126BE40B4B20B110126E7
:100F10009E40B3B2968806EA03051689264016B1AC
:100F20000DB1012000E00020F0BD10B5002201F05D
:100F30000F040123A3409AB2D343038110BD0000E4
:100F40000030014000380040003C004010B504462D
:100F5000FE48844208D10121C014FFF727FE00217A
:100F6000E014FFF723FEC4E0B4F1804F08D1012163
:100F70000846FFF728FE00210120FFF724FEB8E015
:100F8000F348844208D101210220FFF71CFE002112
:100F90000220FFF718FEACE0EE48844208D10121A0
:100FA0000420FFF710FE00210420FFF70CFEA0E054
:100FB000E948844208D101210820FFF704FE0021FE
:100FC0000820FFF700FE94E0E448844208D10121A4
:100FD0001020FFF7F8FD00211020FFF7F4FD88E056
:100FE000DF48844208D101212020FFF7ECFD0021D9
:100FF0002020FFF7E8FD7CE0DA48844208D1012197
:101000004014FFF7D3FD00216014FFF7CFFD70E01F
:10101000D548844209D10121C804FFF7C7FD00214A
:101020004FF40020FFF7C2FD63E0D048844209D1AD
:1010300001210805FFF7BAFD00214FF48010FFF7EA
:10104000B5FD56E0CA48844209D101214805FFF7A1
:10105000ADFD00214FF40010FFF7A8FD49E0C548A1
:10106000844208D101214020FFF7ADFD002140203E
:10107000FFF7A9FD3DE0C048844208D1012180204E
:10108000FFF7A1FD00218020FFF79DFD31E0BB4867
:10109000844208D101218015FFF795FD0021A0159C
:1010A000FFF791FD25E0B648844209D101210804EB
:1010B000FFF77CFD00214FF48030FFF777FD18E04B
:1010C000B048844209D101214804FFF76FFD002197
:1010D0004FF40030FFF76AFD0BE0AB48844208D1C3
:1010E00001218804FFF762FD00214FF48020FFF703
:1010F0005DFD10BD00220288944B98420ED0994BA2
:1011000098420BD0B0F1804F08D0914B984205D057
:10111000904B984202D0904B984204D14FF68F7377
:101120001A404B881A438D4B984207D08C4B9842FB
:1011300004D04FF6FF431A40CB881A4302808B88B5
:1011400083850B880385814B98420BD0854B984251
:1011500008D08B4B984205D08A4B984202D08A4BDC
:10116000984201D10B7A038601238382704770B5C0
:10117000002400220023058C4FF6FE7635400584BE
:10118000028C8388048B4FF68F752C40B51E2C4043
:101190000D882C43751E2A400D892A434D882A4309
:1011A0006A4DA8420BD06F4DA84208D0744DA8429A
:1011B00005D0744DA84202D0734DA84213D14FF60A
:1011C000F7752A404D892A434FF6FB752A408D88D2
:1011D0002A434FF6FF652B404FF6FF552B408D8974
:1011E0002B43CD892B4383800483CD88858602845D
:1011F00070BD70B5002400220023058C4FF6EF76F9
:1012000035400584028C8388048B48F6FF752C409A
:101210004FF6FF452C400D884FF6FF7606EA052570
:101220002C434FF6DF752A400D8906EA05152A433F
:101230004D8806EA05152A43444DA84202D0494D7F
:10124000A8421DD14FF67F752A404D894FF6FF7693
:1012500006EA05152A434FF6BF752A408D8806EA2F
:1012600005152A434FF6FF352B404FF2FF752B40F3
:101270008D8906EA85052B43CD8906EA85052B4332
:1012800083800483CD880587028470BD70B50024F7
:1012900000220023058C4FF6FF6635400584028C42
:1012A0008388848B4FF68F752C404FF6FC752C404D
:1012B0000D882C434FF6FF552A400D894FF6FF76D7
:1012C00006EA05252A434D8806EA05252A431F4DCF
:1012D000A84202D0234DA8421DD14FF2FF752A40EB
:1012E0004D894FF6FF7606EA05252A434FF6FF356E
:1012F0002A408D8806EA05252A434EF6FF752B40C5
:101300004DF6FF752B408D8906EA05152B43CD89D7
:1013100006EA05152B4383808483CD888587028464
:1013200070BD70B5002200230024058C4EF6FF76B8
:1013300035400584038C8488828B48F6FF752A40EB
:101340004FF6FF452A400D8820E00000002C0140A8
:101350000004004000080040000C00400010004065
:101360000014004000340140004C01400050014096
:101370000054014000180040001C004000200040C4
:101380000040014000440140004801404FF6FF7614
:1013900006EA05252A434DF6FF752B400D8906EA1E
:1013A00005352B434D8806EA05352B43FA4DA842F7
:1013B00002D0FA4DA84208D14BF6FF752C408D891A
:1013C0004FF6FF7606EA85152C4384808283CD880C
:1013D000A0F84050038470BD828B4FF2FF331A4057
:1013E0008283828B4FF6FF7303EA01231A438283C1
:1013F0007047F0B50C461546002200210026078CE8
:101400004EF6FF7C07EA0C070784828B018C4FF6AF
:10141000FF7707EA043640F6FF473A404FF6FF777A
:1014200007EA05273A434FF6FF7707EA03373A43BF
:10143000D94FB8420ED0D94FB8420BD0B0F1804F3F
:1014400008D0D74FB84205D0D64FB84202D0D64FB9
:10145000B84206D14DF6FF77394046F480573943FC
:1014600005E047F6FF57394044F4805739438283FB
:101470000184F0BD828B4FF6F3731A408283828B16
:101480000A4382837047F0B50C46154600220021BE
:101490000026078C4FF6FF6C07EA0C070784828B47
:1014A000018C4FF6FF7707EA04264FF60C773A4097
:1014B0004FF6FF7707EA03172F433A43B64FB84278
:1014C0000ED0B64FB8420BD0B0F1804F08D0B44F19
:1014D000B84205D0B34FB84202D0B34FB84206D19C
:1014E0004FF6FF57394046F48077394305E04FF215
:1014F000FF57394044F48077394382830184F0BD3B
:10150000028B4FF2FF331A400283028B4FF6FF73B8
:1015100003EA01231A4302837047F0B50C461546CF
:10152000002200210026078C4FF6EF7C07EA0C070B
:101530000784028B018C4FF6FF7707EA041640F60A
:10154000FF473A404FF6FF7707EA03373A434FF633
:10155000FF7707EA05273A438F4FB8420ED08F4FE7
:10156000B8420BD0B0F1804F08D08D4FB84205D0B3
:101570008C4FB84202D08C4FB84206D14FF6DF777D
:10158000394046F01007394305E04FF65F773940A0
:1015900044F01007394302830184F0BD028B4FF6FB
:1015A000F3731A400283028B0A4302837047F0B53B
:1015B0000C46154600220021068C4FF6FE773E4071
:1015C0000684028B018C4FF60C7632407E1C06EAB4
:1015D00003162E433243704EB0420ED06F4EB042CF
:1015E0000BD0B0F1804F08D06D4EB04205D06D4E9B
:1015F000B04202D06C4EB04206D14FF6FD7631407B
:1016000044F00106314305E04FF6F576314044F0F1
:101610000106314302830184F0BD70B505460C46D6
:101620005D4885420ED05D4885420BD0B5F1804FB4
:1016300008D05B48854205D05A48854202D05A48B6
:10164000854200D100E000BF208850B92389A288DC
:1016500061882846FFF7ABFFE1882846FFF79EFF29
:1016600025E0208804280AD12389A2886188284699
:10167000FFF753FFE1882846FFF742FF17E0208875
:1016800008280AD12389A28861882846FFF7FBFE33
:10169000E1882846FFF7EEFE09E02389A2886188E9
:1016A0002846FFF7A6FEE1882846FFF795FE70BDA5
:1016B0002DE9F04105460C4600260127608808B94F
:1016C000022600E00026A088012801D1022700E0C0
:1016D00001272088A0B92389A28861882846FFF7BE
:1016E00066FFE1882846FFF759FF23893A463146CD
:1016F0002846FFF712FFE1882846FFF701FF13E0B5
:101700002389A28861882846FFF707FFE1882846D9
:10171000FFF7F6FE23893A4631462846FFF747FF92
:10172000E1882846FFF73AFFBDE8F0810A884B8838
:101730001A438B881A43CB881A430B891A434B8967
:101740001A438B891A43A0F8442070474FF6FF7163
:10175000818000210180C180418001727047002199
:10176000018041808180C180018141818181C1816D
:101770007047002101804180012181800021C180CA
:10178000018170470021018041808180C1800181F9
:101790004181818170470000002C014000340140EC
:1017A0000004004000080040000C004021B1028805
:1017B00042F00102028004E002884FF6FE731A40F4
:1017C0000280704731B1B0F8442042F40042A0F8E2
:1017D000442005E0B0F84420C2F30E02A0F84420F3
:1017E00070471AB183890B43838102E083898B435D
:1017F000838170478182704741EA0203A0F8483034
:1018000070471AB183890B43838102E083898B433C
:101810008381704701894FF6F8721140018170474A
:101820000A46002101894FF68F7319401143018147
:10183000704730B504460D4629462046FFF7F0FFB5
:10184000208940F00700208130BD2DE9F041044699
:101850000D4616461F46602D06D13B4601223146F5
:101860002046FFF75AFE05E03B460122314620465E
:10187000FFF79DFE29462046FFF7D2FF208940F062
:1018800007002081BDE8F08130B50C4600210189B8
:10189000C9B24FF6FF7505EA0325154325432943D1
:1018A000018130BD2DE9F04105460E4617469846A8
:1018B000002443463A4631462846FFF7E5FF2C8987
:1018C0004FF6F870044044F007044FF68F70044060
:1018D00044F070042C81BDE8F081F0B504460D465B
:1018E00016461F463B46324629462046FFF7CCFFA8
:1018F000208940F480402081F0BD018582827047BC
:101900000A46002101884FF68F7319401143018068
:101910007047F0B50C4615461E46002100220023F4
:101920000189028B038C4FF6F877394021434FF63B
:10193000FC473A4040F201173A434FF6DD773B400F
:101940004FF6FF7707EA06172F433B4301810283D7
:101950000384F0BD0A460021018B4FF68F731940B6
:101960001143018370470A460021018B48F6FF733B
:1019700019404FF6FF7303EA0223194301837047AE
:101980000A460021818B4FF68F73194011438183E2
:1019900070470A460021818B48F6FF7319404FF6C5
:1019A000FF7303EA022319438183704721B1028840
:1019B00042F08002028004E002884FF67F731A40F2
:1019C0000280704721B1828842F00402828004E0E4
:1019D00082884FF6FB731A408280704721B182885B
:1019E00042F00802828004E082884FF6F7731A40C2
:1019F0008280704721B1828842F00102828004E037
:101A000082884FF6FE731A40828070470A46002192
:101A1000018B4FF6F77319401143018370470A4653
:101A20000021018B4FF2FF7319404FF6FF7303EA59
:101A300002231943018370470A460021818B4FF628
:101A4000F77319401143818370470A460021818B47
:101A50004FF2FF7319404FF6FF7303EA0223194355
:101A6000818370470A460021018B4FF6FB731940B2
:101A70001143018370470A460021018B4FF6FF3363
:101A800019404FF6FF7303EA02231943018370479D
:101A90000A460021818B4FF6FB7319401143818365
:101AA00070470A460021818B4FF6FF3319404FF6ED
:101AB000FF7303EA02231943818370470A4600211A
:101AC000018B4FF67F7319401143018370470A461B
:101AD0000021018BC1F30E014FF6FF7303EA0223CD
:101AE0001943018370470A460021818B4FF67F73AB
:101AF00019401143818370470A460021818BC1F34D
:101B00000E014FF6FF7303EA0223194381837047E6
:101B10000A460021018C4FF6FD73194011430184E0
:101B200070470A460021018C4FF6F77319401143A4
:101B3000018470470A460021018C4FF6DF7319407B
:101B40004FF6FF7303EA02131943018470470A46F4
:101B50000021018C4FF67F7319404FF6FF7303EAA3
:101B600002131943018470470A460021018C4FF685
:101B7000FF5319404FF6FF7303EA02231943018410
:101B800070470A460021018C4FF2FF7319404FF64F
:101B9000FF7303EA02231943018470470A460021B8
:101BA000018C4DF6FF7319404FF6FF7303EA0233C1
:101BB00019430184704730B5002301248C40A3B23F
:101BC000048C9C430484048C02FA01F5ADB22C43CE
:101BD000048430BD30B5002304248C40A3B2048CAF
:101BE0009C430484048C02FA01F5ADB22C430484B6
:101BF00030BD70B50346002000241846183001257A
:101C00008D40ACB21D8CA5431D8409B1082909D1B2
:101C100000EB6100056825F0700505600568154357
:101C200005600EE00D1FC5F34E052844056825F438
:101C3000E045056005684FF6FF7606EA0226354363
:101C4000056070BD21B1028842F00202028004E00A
:101C500002884FF6FD731A400280704721B1028856
:101C600042F00402028004E002884FF6FB731A403F
:101C70000280704721B1828842F08002828004E0B5
:101C800082884FF67F731A408280704702884FF631
:101C9000F7731A40028002880A43028070478288E4
:101CA0004FF68F731A40828082880A438280704781
:101CB00002894FF6F8731A40028102890A430281B1
:101CC000704702894FF67F731A40028102890A43E6
:101CD0000281704781847047818570478186704793
:101CE0000187704781877047A0F8401070470288CD
:101CF0004FF6FF431A40028002880A430280704771
:101D00000146888E70470146088F70470146888FCC
:101D100070470146B1F8400070470146888C704713
:101D20000146088D704702460020138A0B400BB114
:101D3000012000E000207047CA430282704730B59E
:101D40000246002000230024158A05EA0103958934
:101D500005EA010413B10CB1012000E0002030BD00
:101D6000CA4302827047000010B50446FB48844213
:101D700009D101218803FEF719FF00214FF48040AB
:101D8000FEF714FF32E0F648844209D101214804ED
:101D9000FEF719FF00214FF40030FEF714FF25E095
:101DA000F048844209D101218804FEF70CFF00218C
:101DB0004FF48020FEF707FF18E0EB48844209D17A
:101DC0000121C804FEF7FFFE00214FF40020FEF7BA
:101DD000FAFE0BE0E548844208D101210805FEF730
:101DE000F2FE00214FF48010FEF7EDFE10BD2DE94C
:101DF000F04786B005460E460024A24600BFA14625
:101E00000027B08900B100BF2F462C8A4CF6FF7026
:101E10000440F08804432C82AC894EF6F310044051
:101E2000B08831890843718908430443AC81AC8A86
:101E30004FF6FF400440B0890443AC8201A8FEF78E
:101E40002EFEC648874202D1DDF810A001E0DDF881
:101E50000CA0A88900F4004040B10AEBCA0000EBD6
:101E60000A1031684900B0FBF1F807E00AEBCA003C
:101E700000EB0A1031688900B0FBF1F86420B8FB70
:101E8000F0F004012009642101FB1089A88900F405
:101E9000004040B1322000EBC900B0FBF1F000F08F
:101EA0000700044308E0322000EB09106421B0FB76
:101EB000F1F000F00F0004432C8106B0BDE8F0877C
:101EC0004FF41651016000218180C18001810C21F5
:101ED000418100218181704710B502460020108A9F
:101EE0004FF2FF0318400B884C8823438C88234310
:101EF000CC8823431843108210BD0021018041800B
:101F00008180C180704721B1828942F40052828170
:101F100004E082894DF6FF731A4082817047F0B564
:101F20000346002400260025002040F66A17B94227
:101F300000D100BF1846C1F3421401F01F0601276B
:101F400007FA06F5012C01D10C3004E0022C01D176
:101F5000103000E014301AB107682F43076002E028
:101F60000768AF430760F0BD1AB1838A0B438382D1
:101F700002E0838A8B4383827047028A4FF6F073B4
:101F80001A400282028A0A430282704782894FF213
:101F9000FF731A40828182890A438281704721B18E
:101FA000828942F00202828104E082894FF6FD7349
:101FB0001A4082817047028A4FF6DF731A4002820C
:101FC000028A0A430282704721B1028A42F48042A7
:101FD000028204E0028A4BF6FF731A4002827047C5
:101FE000C1F308028280704701468888C0F3080068
:101FF0007047818941F0010181817047028BD2B223
:102000000283028B42EA012202837047028B02F4B0
:102010007F420283028B0A430283704721B1828A86
:1020200042F02002828204E0828A4FF6DF731A4077
:102030008282704721B1828A42F01002828204E0DB
:10204000828A4FF6EF731A408282704721B1828AEA
:1020500042F00802828204E0828A4FF6F7731A4047
:102060008282704721B1828942F40042828103E07A
:102070008289C2F30E028281704721B1828A42F4C2
:102080000062828204E0828A4FF2FF731A408282E9
:102090007047828A4FF6FB731A408282828A0A4313
:1020A0008282704721B1828A42F00202828204E079
:1020B000828A4FF6FD731A408282704702460020E2
:1020C000B1F5007F00D100BF13880B400BB1012098
:1020D00000E00020704701F40072B2F5007F00D1EB
:1020E00000BFCA430280704770B502460024002337
:1020F0000025002040F66A16B14200D100BFC1F3AE
:10210000421501F01F03012606FA03F3012D02D147
:102110009689334006E0022D02D1168A334001E051
:10212000968A33400C12012606FA04F416883440CD
:1021300013B10CB1012000E0002070BD10B50022E9
:10214000002340F66A14A14200D100BF0A12012404
:102150009440A3B2DC43048010BD0000003801406D
:102160000044004000480040004C00400050004047
:1021700000F07AFC00F0F8FF4FF4165000F083FDF9
:1021800008220021062000F080FE322000F0A9FC89
:10219000C22205210F2000F078FE41F2883000F0C5
:1021A000A0FC00F0ABFB00BFFEE7704700BFFEE7FE
:1021B00000BFFEE700BFFEE700BFFEE770477047C5
:1021C000704770470CE0042107E0712201E0531EC4
:1021D000DAB2002AFBDC4B1ED9B20029F5DC401E26
:1021E0000028F0D1704710B50421FD48FEF7B7FA7A
:1021F00040F6FF70FFF7E6FF0421F948FEF7ADFA5D
:1022000040F6FF70FFF7DEFF10BD10B54FF4807190
:10221000F448FEF7A2FA0421F148FEF79EFA10BD39
:1022200010B54FF48071EF48FEF799FA40F6FF7051
:10223000FFF7C8FF4FF48071EA48FEF78EFA40F6C8
:10224000FF70FFF7BFFF10BD10B54FF48071E54878
:10225000FEF785FA0421E248FEF781FA40F6FF70A6
:10226000FFF7B0FF4FF48071DE48FEF776FA0421E5
:10227000DB48FEF772FA40F6FF70FFF7A3FF10BDD0
:1022800010B54FF48071D748FEF769FA40F6FF7039
:10229000FFF798FF0421D248FEF761FA40F6FF707D
:1022A000FFF790FF4FF48071CE48FEF756FA40F6E4
:1022B000FF70FFF787FF0421C948FEF74EFA40F68A
:1022C000FF70FFF77FFF10BD10B50446062C13D238
:1022D000DFE804F0120306090C0FFFF7D1FF0CE052
:1022E000FFF7B2FF09E0FFF79BFF06E0FFF78DFF66
:1022F00003E0FFF778FF00E000BF00BF10BD10B59E
:10230000044600BF0221B848FEF7E9FD0028F9D0D5
:102310002146B548FEF790FD00BF0121B248FEF707
:10232000DEFD0028F9D0B048FEF788FDC0B210BD30
:1023300070B504461021AB48FEF711FA4FF4005176
:10234000AA48FEF70CFA0520FFF7D9FF2046FFF751
:10235000D6FF0020FFF7D3FF05461021A148FEF766
:10236000FCF9284670BD10B5C520FFF7E1FF10BD90
:1023700030B500210022002300BF0BE0002206E060
:10238000C82300BF1C00A3F10103FBD1521C8242F1
:10239000F6D3491C0529F1D330BD10B54FF40041E7
:1023A0009248FEF7DAF96420FFF7E2FF4FF40041AC
:1023B0008E48FEF7D4F96420FFF7DAFF4FF40041AE
:1023C0008A48FEF7CAF96420FFF7D2FF102185483A
:1023D000FEF7C5F96420FFF7CBFF10218148FEF717
:1023E000BCF96420FFF7C4FF10BD70B505460C466C
:1023F00010217C48FEF7B3F94FF400517B48FEF7FB
:10240000AEF90420FFF77BFF2846FFF778FF204650
:10241000FFF775FF10217348FEF79FF970BD70B587
:10242000002500240BE0B220FFF782FF212801D114
:10243000012506E00A20FFF79BFF601CC4B20A2CAE
:10244000F1DB00BF284670BD10B543213520FFF7F2
:10245000CCFF09211C20FFF7C8FF2021BD20FFF77A
:10246000C4FF01210820FFF7C0FF0520FFF780FF10
:1024700000210820FFF7B9FF0520FFF779FFFFF7DC
:10248000CEFF08B9002010BDFF21B220FFF7ADFF3D
:1024900006213720FFF7A9FF06213720FFF7A5FF08
:1024A0000520FFF765FF0B211C20FFF79EFF102181
:1024B0002920FFF79AFF0021BD20FFF796FF01209A
:1024C000E1E770B59CB06422494903A800F052FED0
:1024D00048A103C9CDE901010126002441E0FFF72D
:1024E0009EFF08B900263EE001A8015DC120FFF76C
:1024F0007CFF0021C320FFF778FF04210820FFF7AD
:1025000074FF0120FFF734FF00210820FFF76DFF63
:102510000120FFF72DFF002512E004EB840003A942
:1025200001EB8000405D00B90CE004EB840003AADD
:1025300002EB8000415D0520FFF757FF681CC5B224
:10254000142DEADB00BF2946B920FFF74EFFFF211B
:10255000B220FFF74AFF04213720FFF746FF601C37
:10256000C4B2052CBBDB00BF30461CB070BD10B53B
:102570000620FFF7DDFE35211720FFF736FF052087
:10258000FFF7F6FE0620FFF7D3FE03218920FFF7B1
:102590002CFF0520FFF7ECFE4321CF20FFF725FF9E
:1025A0000520FFF7E5FE0221CB20FFF71EFF0A21E1
:1025B0001120FFF71AFF11480078402820D1002190
:1025C0001E20FFF712FF0F211920FFF70EFF182121
:1025D0001B20FFF70AFF2C211D20FFF706FF1FE03D
:1025E000001401400008014000300140000C01408F
:1025F000DC3100080102030405000000290000206E
:1026000000211E20FFF7F1FE3F211920FFF7EDFE0C
:1026100048211B20FFF7E9FE1F211D20FFF7E5FEE3
:102620000520FFF7A5FE0421CD20FFF7DEFE4C219B
:102630001720FFF7DAFE0120FFF79AFE0021B920EC
:10264000FFF7D3FE4F21CF20FFF7CFFEFF216F20F2
:10265000FFF7CBFE10BD10B50820FC490870FFF74E
:1026600086FF0021BD20FFF7C0FE48211720FFF79D
:10267000BCFE0520FFF77CFE80213C20FFF7B5FE65
:1026800007213E20FFF7B1FEFF213820FFF7ADFE06
:1026900007213A20FFF7A9FE00214020FFF7A5FE01
:1026A00008214220FFF7A1FE00214420FFF79DFEF4
:1026B00008214620FFF799FE0120FFF759FE10BDC3
:1026C00010B5FFF7C8FF10BD70B50024002500BF8E
:1026D0001DE0FFF7F5FF6420FFF74AFEFFF7F1FE6C
:1026E00028B9FFF75AFE3220FFF742FE0DE00A201C
:1026F000FFF73EFEFFF7A8FE28B9FFF74EFE322097
:10270000FFF736FE01E0012503E0601CC4B2052C92
:10271000DFDB00BF284670BD08B501212420FEF78D
:102720002BFA4FF48070ADF8000003208DF8020002
:1027300010208DF803006946C548FDF761FF0420AD
:10274000ADF800006946C348FDF75AFF4FF48071A9
:10275000BF48FEF704F80421BE48FEF700F840F633
:10276000FF70FFF72FFD4FF48071B948FDF7F5FFBB
:102770000421B848FDF7F1FF08BD00B587B001217D
:102780000803FEF7F9F901210C20FEF7F5F94020C6
:10279000ADF8040003208DF8060018208DF807001E
:1027A00001A9AB48FDF72CFF8020ADF8040001A97A
:1027B000A748FDF725FF2020ADF8040001A9A44893
:1027C000FDF71EFF4FF40050ADF8040003208DF814
:1027D000060010208DF8070001A99F48FDF710FFA3
:1027E00010219B48FDF7B9FF00219C48FEF7F3FA42
:1027F0000020ADF808004FF48270ADF80A00002008
:10280000ADF80C000220ADF80E000020ADF810006D
:102810004FF40070ADF812002820ADF8140000202D
:10282000ADF816000720ADF8180002A98B48FEF796
:102830002DFA01218948FEF7CEFA07B000BD1FB579
:1028400001210846FEF798F901210820FEF794F9C6
:102850004FF48050ADF8000004208DF803000320F1
:102860008DF8020069467C48FDF7CAFE0C21012064
:10287000FDF7DCFF4FF48050029000208DF80C0033
:102880000C208DF80D0001208DF80E0002A8FDF738
:10289000D7FD28208DF8040001208DF805008DF863
:1028A00006008DF8070001A8FDF753FD1FBD08B510
:1028B00001210C20FEF760F91020ADF80000032084
:1028C0008DF8020010208DF8030069466048FDF77E
:1028D00097FE4FF40040ADF8000069465E48FDF7F2
:1028E0008FFE08BD10B5FFF7E2FFFFF7A8FFFFF767
:1028F00044FFFFF711FFFFF750FD10BD0024FFF765
:10290000F1FF00205649087037E05548007810283C
:1029100015D003DC48B1012826D104E0112824D0C9
:10292000312821D100E000BF23E001204C4908708C
:10293000FFF7CAFE10B931204949087019E0FFF7C6
:1029400012FD0446062C08D2DFE804F00703040554
:10295000060804E003E002E001E000BF00BF00BFA2
:1029600000203F49087004E000BF00203C49087087
:1029700000BF00BF2046FFF7A7FCC6E710B5002444
:102980002B20FFF7D5FC3749087000212920FFF7DD
:102990002CFD00210220FFF728FD3248007800F0CE
:1029A0001000C8B1B220FFF7C3FC212814D1BF200A
:1029B000FFF7BEFC35280FD1BA20FFF7B9FC04465B
:1029C000002C05DD042C03DC10202549087006E0EE
:1029D00011202349087002E01120214908700021CC
:1029E0002B20FFF702FD00211C20FFF7FEFC002139
:1029F0002920FFF7FAFC00210220FFF7F6FC002156
:102A00002B20FFF7F2FC0021BA20FFF7EEFC00219B
:102A1000BC20FFF7EAFC01210820FFF7E6FC0021BB
:102A20000820FFF7E2FC10BD10B54FF48050FDF711
:102A30006DFD48B1FFF7A2FF4FF48050FDF762FD36
:102A40004FF48050FDF773FD10BD000029000020F9
:102A50000008014000140140000C0140003001401A
:102A6000280000202A00002010B56FF00400FDF7B8
:102A7000BAFC2E4800682E49B0FBF1F02D490870D1
:102A80000846007800EB4001C1EBC0104FF6FF7123
:102A900001EAC0002849088010BD0146254A127885
:102AA0004A434FF0E0235A6100229A611A461269A4
:102AB00042F001021A6100BF4FF0E022106900F0FD
:102AC00001021AB100F48032002AF5D04FF0E02262
:102AD000126922F001024FF0E0231A6100229A618C
:102AE00070470146144A12884A434FF0E0235A6166
:102AF00000229A611A46126942F001021A6100BF6F
:102B00004FF0E022106900F001021AB100F48032A7
:102B1000002AF5D04FF0E022126922F001024FF0B6
:102B2000E0231A6100229A61704700000000002033
:102B300000127A002C0000202E0000201FB5012179
:102B40000846FEF726F801A8FEF700FE0020ADF8C3
:102B500006000820ADF804000120ADF8080001A926
:102B60008007FEF7C7FA1C208DF8000001208DF8C1
:102B700001008DF802008DF803006846FDF7E9FBBF
:102B80000821C806FFF782F81FBD10B5012188078C
:102B9000FFF7E6F84FF08040008A20F001004FF088
:102BA0008041088201202E49087000218007FEF72D
:102BB000FDFD002201218807FEF713FE10BD10B5B0
:102BC00004460020264908704FF080410885200502
:102BD000000C888501212348FEF7E8FD4FF0804076
:102BE000808A40F001004FF0804188820846008AC8
:102BF00020F001000882012211469007FEF7F1FD46
:102C000001218807FEF7D2FD00BF15480078002893
:102C1000FBD010BD10B5044600201149087040F2E9
:102C2000E7304FF0804108852005000C8885084674
:102C3000808A40F0010088820846008A20F0010066
:102C40000882012211469007FEF7CBFD012188077B
:102C5000FEF7ACFD00BF024800780028FBD010BD95
:102C60003000002000100040014600BF704700BF48
:102C7000FE4A128802F04002002AF9D0C2B2FB4B91
:102C80001B1D1A80704710B586B00446012144F21E
:102C90000400FDF771FF25208DF8140003208DF846
:102CA00015008DF8160001208DF8170005A8FDF716
:102CB00050FB4FF40070ADF8100018208DF8130091
:102CC00003208DF8120004A9E948FDF799FC4FF4A0
:102CD0008060ADF8100004208DF8130004A9E548C9
:102CE000FDF78EFC00940020ADF80400ADF806005E
:102CF000ADF80800ADF80C000C20ADF80A006946EC
:102D0000DA48FFF774F80121D848FFF7FCF80122F0
:102D100040F22551D548FFF702F92021D348FFF7AB
:102D20005FF900BF4021D148FFF7C8F90028F9D06A
:102D300006B010BD10B586B0044601210420FDF791
:102D40001BFF01214804FDF724FFCB48FFF70CF8D7
:102D50000420ADF8140003208DF8160018208DF81B
:102D6000170005A9C248FDF74BFC0820ADF8140078
:102D700004208DF8170005A9BD48FDF741FC262069
:102D80008DF8000000208DF801008DF80200012070
:102D90008DF803006846FDF7DCFA01940020ADF8D9
:102DA0000800ADF80A00ADF80C00ADF810000C20DA
:102DB000ADF80E0001A9B048FFF719F8012240F262
:102DC0002551AD48FFF7ABF80121AB48FFF79BF861
:102DD0002021A948FFF704F900BF4021A648FFF7CA
:102DE0006DF90028F9D006B010BD70B504460D4647
:102DF00000260DE014F8011B9F48FFF7F1F800BF13
:102E000080219D48FFF75AF90028F9D0701CC6B2FE
:102E1000AE42EFDB70BD70B504460D4600260DE0F6
:102E200014F8011B9148FFF7DBF800BF80218F48A1
:102E3000FFF744F90028F9D0701CC6B2AE42EFDBB0
:102E400070BD00208D49087009E000208C498B4A34
:102E50001278885489480078401C8849087087484F
:102E600000781428F1DB00208449087070470022A4
:102E7000012105E08348405C104482B2481CC1B285
:102E80000729F7DB504280B270472DE9F041054633
:102E90000E4617467B48C57001464E718F71FFF78D
:102EA000E6FF80464FEA18207649C87181F808800D
:102EB00000240DE07348015D6C48FFF791F800BFF6
:102EC00080216A48FFF7FAF80028F9D0601CC4B2E4
:102ED0000A2CEFDBBDE8F081FFB503461446DFF8AE
:102EE000A8C19CE8E0108DE8E010002003E0FF2579
:102EF000664E3554401C0A28F9DBFF25644E3570B8
:102F0000FF2B08D035462D786D1C6DB235705F4DA6
:102F100096F90060AB55002912DA0D1E01DB2E4632
:102F200000E06E4231465A4D2D786D1C6DB2584E00
:102F30003570FA26554D564F97F90070EE550CE056
:102F400059B9534D2D786D1C6DB2514E3570C82551
:102F50004E4E4F4F97F90070F55503202BE0132983
:102F60001ADD5DF8205091FBF5F25DF8205002FB70
:102F70001511002A1EDD464D2D786D1C6DB2444E94
:102F80003570451C05EB850502EB45053F4E404F6E
:102F900097F90070F5550DE000290BDD3C4D2D78BB
:102FA0006D1C6DB23A4E3570384E394F97F900703E
:102FB000F1550021401E0028D1DAFF2C09D0344DF4
:102FC0002D786D1C6DB2324E3570304D96F9006023
:102FD000AC5500252E4E357001252E4E3570FFBDA7
:102FE00010B52A482A4991F90010405CFF2801D009
:102FF000012000E00020264991F900100A2901DA99
:10300000012100E000210840C0B1224800780128D9
:1030100014D11E481E4991F90010425C1E480178E7
:103020000F20FFF732FF1A480078401C40B21849C1
:103030000870FFF706FF00201649087010BD1649FA
:103040000870704710B50948008800F0200038B3B8
:103050000648FEF7C9FF114908700846007808497C
:10306000064A12788854054800781AE00038014072
:1030700000080140000C0140004400403C000020DA
:10308000E80100203F0000204032000849000020F5
:1030900053000020540000203E0000203D0000208E
:1030A0000CE0401C2949087029480078EF2806D018
:1030B0000846007813280BDDFFF7C3FE08E025481B
:1030C000C0783D2802D1012023490870FFF7B9FEDE
:1030D00010BD10B540F225512048FFF705F810B398
:1030E0001E48FEF781FFC4B21D48008800F400406E
:1030F000C8B91B48008800F4804060B10A2C03D096
:1031000000201749088020E01548008840F400405E
:103110001349088019E00D2C06D11148008840F4AD
:1031200080400F49088010E00D480088C0F30D0072
:103130000C490C540A480088401C0949088008467C
:103140000088C72801DD0020088010BD3C00002059
:103150003D000020E8010020540000200044004011
:103160003A0000202001002010B54FF4A060FDF7C8
:10317000EBF810BD40EA01039B0703D009E008C942
:10318000121F08C0042AFAD203E011F8013B00F82C
:10319000013B521EF9D27047064C074D06E0E0682D
:1031A00040F0010394E8070098471034AC42F6D38E
:1031B000FCF7C2FF503200087032000802E008C875
:1031C000121F08C1002AFAD170477047002001E0A1
:1031D00001C1121F002AFBD1704700006C697520E5
:1031E0007368756900000000000000000000000026
:1031F0007368616E207368756F0000000000000046
:103200000000000074696E67207A686900000000A1
:1032100000000000000000007175616E206D69659E
:103220000000000000000000000000006B61692049
:10323000736869000000000000000000000000004A
:10324000010000000A00000064000000E803000024
:10325000703200080000002058000000BC31000857
:10326000C832000858000020A8050000CC31000832
:1032700000A24A0400000000000000000102030454
:10328000060708090000000001020304010203040C
:1032900006070809020406080000000000000000FC
:1032A0000000000000000000000000000000017E9F
:1032B000FF06000000000000EFFFFFFFFFFFFFFF21
:0832C000FFFFFF000000000009
:0400000508000131BD
:00000001FF
