:020000040800F2
:100000003004002045010008A9130008AB130008C4
:10001000AF130008B3130008B71300080000000076
:10002000000000000000000000000000BB130008FA
:10003000BD13000800000000BF130008C113000832
:100040005F0100085F0100085F0100085F01000810
:100050005F0100085F0100085F0100085F01000800
:100060005F0100085F0100085F0100085F010008F0
:100070005F0100085F0100085F0100085F010008E0
:100080005F0100085F0100085F0100085F010008D0
:100090005F0100085F0100085F0100085F010008C0
:1000A0005F0100085F0100085F0100085F010008B0
:1000B0005F0100085F0100085F0100085F010008A0
:1000C0005F0100085F0100085F0100085F01000890
:1000D0005F010008C3130008E31300085F01000874
:1000E0008B1E00085F0100085F0100085F01000827
:1000F0005F0100085F0100085F0100085F01000860
:100100005F0100085F0100085F0100085F0100084F
:100110005F0100085F0100085F0100085F0100083F
:100120005F0100085F0100085F0100085F0100082F
:10013000DFF80CD001F0EEFE00480047771300080E
:10014000300400200648804706480047FEE7FEE7E7
:10015000FEE7FEE7FEE7FEE7FEE7FEE7FEE7FEE777
:1001600047020008310100080CB500200190009002
:100170006C48006840F480306A49086000BF6948F4
:10018000006800F4003000900198401C0190009835
:1001900018B90198B0F5A06FF1D16248006800F479
:1001A000003010B10120009001E000200090009884
:1001B000012843D15C48006840F010005A490860AB
:1001C0000846006820F0030008600846006840F018
:1001D0000200086053484068524948600846406839
:1001E00048600846406840F48060486008464068BF
:1001F00020F47C1048600846406840F4E8104860ED
:100200000846006840F08070086000BF45480068FC
:1002100000F000700028F9D04248406820F0030048
:10022000404948600846406840F00200486000BF0E
:100230003C48406800F00C000828F9D10CBD10B50E
:10024000FFF792FF10BD10B53648006840F001007E
:1002500034490860084640683449084031494860DC
:1002600008460068324908402E4908600846006880
:1002700020F4802008600846406820F4FE004860B2
:100280004FF41F008860FFF7DAFF4FF00060294944
:10029000086010BD10B5002100200022214B5B68D2
:1002A00003F00C0121B1042906D0082928D107E068
:1002B000214B224C236027E01F4B204C236023E07E
:1002C000184B5B6803F47010164B5B6803F48032C4
:1002D000022303EB904022B9194B4343174C236090
:1002E0000DE0104B5B6803F4003323B1144B434320
:1002F000124C236003E0104B4343104C236003E097
:100300000D4B0E4C236000BF00BF064B5B68C3F370
:1003100003130C4CE15C094B1B68CB40074C23607A
:1003200010BD000000100240002002400000FFF855
:10033000FFFFF6FE08ED00E000127A00000000204A
:1003400000093D000400002031490143314A116099
:10035000704770B5002100230F22C47804B32D4CE0
:10036000246804F4E064C4F5E064210AC1F10403E4
:10037000CA40447804FA03F1847814402143090107
:10038000254C0678A155047804F01F050124AC40E3
:1003900005786D11AD0005F1E025C5F8004109E0D3
:1003A000047804F01F050124AC401C4D067876113A
:1003B00045F8264070BD1A4A0A400243154B1B1FE0
:1003C0001A60704739B1134A121D12680243114B6B
:1003D0001B1D1A6006E00F4A121D126882430D4B66
:1003E0001B1D1A607047042808D14FF0E0210969ED
:1003F00041F004014FF0E022116107E04FF0E021ED
:10040000096921F004014FF0E022116170470000FA
:100410000000FA050CED00E000E400E080E100E0FF
:1004200080FFFF1F002044490860091D0860091D66
:100430000860091D086041483F4914310860704751
:1004400000213D498279002A3AD00A4612680368A1
:100450009A430B461A600A1D126803689A430B1DE3
:100460001A60027911440A6803681A430A60324A22
:100470000832126803689A432F4B08331A601A1D1A
:10048000126803689A432C4B0C331A604279102A85
:100490000ED11A1F126803681A43274B08331A60DB
:1004A0001A1D126803681A43234B0C331A600DE0BF
:1004B0002149427911440A6803681A430A6005E039
:1004C000027911440A6803689A430A607047002160
:1004D000016001710C214171002181717047164941
:1004E000103109680143144A103211607047014607
:1004F0000020114A143212680A400AB1012000E0BB
:10050000002070470C4914310860704701460020F4
:100510000022094B1B6803EA0102074B14331B68D6
:100520000B4013B10AB1012000E0002070470249DE
:10053000143108607047000000040140FFFF0F0005
:1005400010B50446CC48844208D10121042000F0B3
:100550002DFB0021042000F029FB46E0C74884421F
:1005600008D10121082000F021FB0021082000F023
:100570001DFB3AE0C248844208D10121102000F05E
:1005800015FB0021102000F011FB2EE0BD48844235
:1005900008D10121202000F009FB0021202000F0DB
:1005A00005FB22E0B848844208D10121402000F038
:1005B000FDFA0021402000F0F9FA16E0B348844229
:1005C00008D10121802000F0F1FA0021802000F004
:1005D000EDFA0AE0AE48844207D10121801500F00F
:1005E000E5FA0021A01500F0E1FA10BD10B50121D7
:1005F000084600F0DBFA0021012000F0D7FA10BD18
:100600002DE9F041024600250026002000230024A9
:10061000002791F803C00CF00F0591F803C00CF00F
:10062000100CBCF1000F03D091F802C04CEA050594
:1006300091F800C0BCF1000F31D0146800202BE00D
:100640004FF0010C0CFA00F3B1F800C00CEA0306FD
:100650009E4220D183004FF00F0C0CFA03F7BC43ED
:1006600005FA03FC4CEA040491F803C0BCF1280F1E
:1006700006D14FF0010C0CFA00FCC2F814C00AE0DD
:1006800091F803C0BCF1480F05D14FF0010C0CFAF2
:1006900000FCC2F810C0401C0828D1D31460B1F887
:1006A00000C0BCF1FF0F34DD546800202EE000F1E3
:1006B000080C4FF0010808FA0CF3B1F800C00CEA7E
:1006C00003069E4221D183004FF00F0C0CFA03F772
:1006D000BC4305FA03FC4CEA040491F803C0BCF1E6
:1006E000280F05D100F1080C08FA0CF8C2F81480A4
:1006F00091F803C0BCF1480F07D100F1080C4FF08E
:10070000010808FA0CF8C2F81080401C0828CED363
:100710005460BDE8F0814FF6FF71018002218170C5
:100720000421C17070470246002093680B400BB152
:10073000012000E0002070470146886880B27047C1
:1007400002460020D3680B400BB1012000E00020DE
:1007500070470146C86880B27047016170474161C7
:1007600070470AB1016100E041617047C1607047A4
:100770004FF480320A4382618161826182698269B9
:10078000704702460020434B18684FF680731840AC
:1007900040EA021008433F4B186070473E49C86169
:1007A0007047F0B50A46002300240021002500F020
:1007B0000046B6F1004F02D1364EF16901E0354EE8
:1007C0007168C0F3034583B200F44016B6F5401FCC
:1007D00008D121F070612F4E766826F070662D4F9B
:1007E0007E6012E000F48016B6F5801F06D1032665
:1007F00006FA05F4A14341F0706106E0460D3601AA
:1008000003FA06F6B14341F0706122B1460D36019C
:1008100003FA06F6314300F00046B6F1004F02D16C
:100820001C4EF16101E01B4E7160F0BD30B500223D
:100830008B071C0F0F2303FA04F2164B08338C109E
:1008400053F824309343134C08348D1044F825306A
:1008500023468C1053F824308C07240F00FA04F43C
:1008600023430C4C08348D1044F8253030BD0A4920
:10087000DC3108607047000000080140000C0140B6
:10088000001001400014014000180140001C01400C
:10089000002001400000014000002042DF480068C5
:1008A00040F00100DD49086008464068DC49084026
:1008B000DA49486008460068DA490840D7490860C4
:1008C0000846006820F4802008600846406820F44C
:1008D000FE0048604FF41F0088607047CF490968E8
:1008E00021F48031CD4A11601146096821F480213C
:1008F0001160B0F5803F03D0B0F5802F0ED106E037
:10090000C649096841F48031C44A116007E0C3490F
:10091000096841F4A021C14A116000E000BF00BF96
:10092000704710B501460022002300204A11012A19
:1009300002D1BA4C236806E0022A02D1B74C236ADE
:1009400001E0B64C636A01F01F02012494401C4090
:100950000CB1012000E0002010BD38B5002000904F
:100960000024002500BF3120FFF7DBFF054600987B
:10097000401C00900098B0F5A06F01D0002DF2D07F
:100980003120FFF7CEFF08B1012400E0002420460B
:1009900038BD01460020A14A106820F0F80040EA66
:1009A000C10010607047A0490860704702460020EF
:1009B0009A4B586820F47C1042EA01031843974B85
:1009C0005860704798490866704701460020934A6E
:1009D000506820F003000843506070478F4840681B
:1009E00000F00C007047014600208C4A506820F04F
:1009F000F00008435060704701460020874A506865
:100A000020F4E06008435060704701460020834AAC
:100A1000506820F4605040EAC1005060704729B12E
:100A20007E4A527A02437D4B5A7204E07B4A527AE4
:100A300082437A4B5A7270477B49D83108607047BD
:100A400001460020754A506820F440400843506039
:100A500070470021714A20321170704A82F82010CC
:100A6000012802D004280AD104E001216B4A203277
:100A7000117005E00521694A2032117000E000BFC5
:100A800000BF70476949086070476449096A0143BB
:100A9000624A11627047654944390860704730B551
:100AA00000210022002400235C4D6D6805F00C013C
:100AB00021B1042905D0082923D105E05C4D05604A
:100AC00022E05B4D05601FE0544D6D6805F4701227
:100AD000524D6D6805F48034022505EB92421CB935
:100AE000544D554305600BE04C4D6D6805F40035E1
:100AF0001DB1504D5543056002E04D4D5543056015
:100B000002E04B4D056000BF00BF444D6D6805F02D
:100B1000F0010909484D6B5C0568DD4045603F4DBB
:100B20006D6805F4E061090A434D6B5C4568DD4082
:100B300085603A4D6D6805F46051C90A3E4D6B5CA5
:100B40004568DD40C560354D6D6805F44041890B51
:100B50003A4D6B5CC568B5FBF3F5056130BD29B155
:100B60002E4A526902432D4B5A6104E02B4A5269C6
:100B700082432A4B5A61704729B1284A926902433D
:100B8000264B9A6104E0254A92698243234B9A617D
:100B9000704729B1214AD2690243204BDA6104E04F
:100BA0001E4AD26982431D4BDA61704729B11B4A44
:100BB000D2680243194BDA6004E0184AD2688243D3
:100BC000164BDA60704729B1144A12690243134B7D
:100BD0001A6104E0114A12698243104B1A6170478E
:100BE00012494039086070470F49C86470470B4983
:100BF000C87170470948406A40F0807007494862F0
:100C0000704701460020054A92680A400AB1012057
:100C100000E00020704701498872704700100240D0
:100C20000000FFF8FFFFF6FE00004242800442424F
:100C300000127A0000093D0014000020240000206A
:100C400010B50446BE48844208D101218014FFF744
:100C5000ADFF0021A014FFF7A9FF16E0B9488442B8
:100C600008D101210014FFF7AEFF00212014FFF787
:100C7000AAFF0AE0B448844207D10121C013FFF75C
:100C8000A2FF0021E013FFF79EFF10BD10B5002268
:100C9000028802F441520B884C8823438C882343FA
:100CA000CC8823430C8923434C8923438C892343D9
:100CB000CC8923431A430280838B4FF2FF74234075
:100CC00083830B8A038210BD2DE9F04F85B0054662
:100CD0000C464FF0000902274FF000084FF0010BBF
:100CE0000026B246A88B4FF240010840A88302209C
:100CF0002884B5F81C90A068022801D100BF38E014
:100D0000A08810B94FF0010B01E04FF0020B8D48A5
:100D1000854200D100E000BF6846FFF7C0FEDDF865
:100D200000A0E088B0F5007F0AD14FEA1A2000EB5E
:100D300080004000A168B0FBF1F0401D86B20BE0DE
:100D40004FEA4B10BAFBF0F000EB80004000A168C6
:100D5000B0FBF1F0401D86B20A20B6FBF0F606F0BB
:100D60000108A6EB0800C0F34F074FF6FF7000EA3A
:100D70000828022F01DBFF2F02DD02274FF00008B9
:100D8000E08840EA080038432884A088A189084305
:100D9000618808432188084340F4006040EA09095B
:100DA000A5F81C9005B0BDE8F08F002101804180BE
:100DB0008180C180018141818181C18107210182BE
:100DC00070470021018041808180C18002218160C3
:100DD00000218181704721B1028842F040020280E7
:100DE00004E002884FF6BF731A400280704721B1B9
:100DF000828B42F48062828304E0828B4FF6FF3361
:100E00001A408283704730B5002400230C1101255D
:100E1000A540ABB21AB185881D43858002E0858864
:100E20009D43858030BD1AB183880B43838002E0E7
:100E300083888B438380704781817047014688890E
:100E400070474FF6FF62914204D0028842F48072EC
:100E5000028004E002884FF6FF631A400280704768
:100E600021B1828842F00402828004E082884FF639
:100E7000FB731A408280704702884FF2FF731A405A
:100E8000028002880A4302807047018841F4805141
:100E90000180704721B1028842F40052028004E0D0
:100EA00002884DF6FF731A40028070470246002008
:100EB000012901D0108B00E0908A70470146088A12
:100EC0007047B1F5804F04D1028842F4804202801D
:100ED00004E002884BF6FF731A4002807047024616
:100EE000002013890B400BB1012000E00020704767
:100EF000CA4302817047F0B5024600200024002357
:100F0000002501F00F070126BE40B4B20B110126E7
:100F10009E40B3B2968806EA03051689264016B1AC
:100F20000DB1012000E00020F0BD10B5002201F05D
:100F30000F040123A3409AB2D343038110BD0000E4
:100F40000030014000380040003C004010B504462D
:100F5000FB48844209D101218803FFF727FE0021C5
:100F60004FF48040FFF722FE32E0F648844209D178
:100F700001214804FFF727FE00214FF40030FFF75E
:100F800022FE25E0F048844209D101218804FFF7C0
:100F90001AFE00214FF48020FFF715FE18E0EB4801
:100FA000844209D10121C804FFF70DFE00214FF44E
:100FB0000020FFF708FE0BE0E548844208D101213C
:100FC0000805FFF700FE00214FF48010FFF7FBFD3E
:100FD00010BD2DE9F04786B005460E460024A24616
:100FE00000BFA1460027B08900B100BF2F462C8A60
:100FF0004CF6FF700440F08804432C82AC894EF616
:10100000F3100440B08831890843718908430443D0
:10101000AC81AC8A4FF6FF400440B0890443AC82F7
:1010200001A8FFF73CFDC648874202D1DDF810A0B9
:1010300001E0DDF80CA0A88900F4004040B10AEB03
:10104000CA0000EB0A1031684900B0FBF1F807E074
:101050000AEBCA0000EB0A1031688900B0FBF1F816
:101060006420B8FBF0F004012009642101FB108921
:10107000A88900F4004040B1322000EBC900B0FB69
:10108000F1F000F00700044308E0322000EB091003
:101090006421B0FBF1F000F00F0004432C8106B096
:1010A000BDE8F0874FF41651016000218180C180B6
:1010B00001810C21418100218181704710B50246D8
:1010C0000020108A4FF2FF0318400B884C882343FE
:1010D0008C882343CC8823431843108210BD002101
:1010E000018041808180C180704721B1828942F4B2
:1010F0000052828104E082894DF6FF731A4082819A
:101100007047F0B50346002400260025002040F675
:101110006A17B94200D100BF1846C1F3421401F06A
:101120001F06012707FA06F5012C01D10C3004E057
:10113000022C01D1103000E014301AB107682F439F
:10114000076002E00768AF430760F0BD1AB1838A09
:101150000B43838202E0838A8B4383827047028A37
:101160004FF6F0731A400282028A0A4302827047E5
:1011700082894FF2FF731A40828182890A438281F9
:10118000704721B1828942F00202828104E08289A3
:101190004FF6FD731A4082817047028A4FF6DF7363
:1011A0001A400282028A0A430282704721B1028AEF
:1011B00042F48042028204E0028A4BF6FF731A4036
:1011C00002827047C1F30802828070470146888816
:1011D000C0F308007047818941F0010181817047A7
:1011E000028BD2B20283028B42EA01220283704751
:1011F000028B02F47F420283028B0A430283704710
:1012000021B1828A42F02002828204E0828A4FF673
:10121000DF731A408282704721B1828A42F0100245
:10122000828204E0828A4FF6EF731A40828270470E
:1012300021B1828A42F00802828204E0828A4FF65B
:10124000F7731A408282704721B1828942F40042CA
:10125000828103E08289C2F30E028281704721B14C
:10126000828A42F40062828204E0828A4FF2FF7333
:101270001A4082827047828A4FF6FB731A4082823C
:10128000828A0A438282704721B1828A42F0020236
:10129000828204E0828A4FF6FD731A408282704790
:1012A00002460020B1F5007F00D100BF13880B403B
:1012B0000BB1012000E00020704701F40072B2F58C
:1012C000007F00D100BFCA430280704770B502465C
:1012D000002400230025002040F66A16B14200D108
:1012E00000BFC1F3421501F01F03012606FA03F304
:1012F000012D02D19689334006E0022D02D1168AD3
:10130000334001E0968A33400C12012606FA04F4B9
:101310001688344013B10CB1012000E0002070BDEC
:1013200010B50022002340F66A14A14200D100BF8C
:101330000A1201249440A3B2DC43048010BD0000D3
:10134000003801400044004000480040004C00408C
:10135000005000400CE0042107E0712201E0531E20
:10136000DAB2002AFBDC4B1ED9B20029F5DC401EA4
:101370000028F0D1704700F05FF803A000F0DCFD1A
:1013800000F05CFC00BFFEE70D0A20BFAACABCD477
:10139000CBD0D04C4433333230B2E2CAD4B3CCD009
:1013A000F2200D0A00000000704700BFFEE700BFFA
:1013B000FEE700BFFEE700BFFEE7704770477047DB
:1013C000704710B540F225510E48FFF77FFF38B146
:1013D0000C48FFF7FBFEC4B221460BA000F0ACFDA9
:1013E00010BD10B540F225510848FFF76FFF38B126
:1013F0000648FFF7EBFEC4B2214603A000F09CFDB7
:1014000010BD00000038014025630000004400408A
:1014100008B54FF4E060FEF797FF25208DF8000037
:1014200000208DF8010001208DF802008DF80300E6
:101430006846FEF78EFF08BD00B585B00121880320
:10144000FFF79AFB01210420FFF796FB4FF4007091
:10145000ADF8100018208DF8130003208DF812004D
:1014600004A92648FFF7CCF84FF48060ADF81000CF
:1014700004208DF8130004A92048FFF7C1F84FF4A9
:10148000E13000900020ADF80400ADF80600ADF8A2
:101490000800ADF80C000C20ADF80A0069461848A9
:1014A000FFF797FD012240F225511548FFF729FE6D
:1014B00001211348FFF719FEFFF7AAFF05B000BD91
:1014C00070B504460D46E1B20D48FFF77BFE00BF44
:1014D00040210B48FFF7E4FE0028F9D0204670BDFC
:1014E00010B5044600BF20210548FFF7D9FE0028AB
:1014F000F9D00348FFF76AFE10BD00000008014064
:10150000003801400CE0042107E0712201E0531E85
:10151000DAB2002AFBDC4B1ED9B20029F5DC401EF2
:101520000028F0D1704710B50421FD48FFF717F9E6
:1015300040F6FF70FFF7E6FF0421F948FFF70DF9C9
:1015400040F6FF70FFF7DEFF10BD10B54FF480715D
:10155000F448FFF702F90421F148FFF7FEF810BD47
:1015600010B54FF48071EF48FFF7F9F840F6FF70BF
:10157000FFF7C8FF4FF48071EA48FFF7EEF840F636
:10158000FF70FFF7BFFF10BD10B54FF48071E54845
:10159000FFF7E5F80421E248FFF7E1F840F6FF70B5
:1015A000FFF7B0FF4FF48071DE48FFF7D6F8042153
:1015B000DB48FFF7D2F840F6FF70FFF7A3FF10BD3E
:1015C00010B54FF48071D748FFF7C9F840F6FF70A7
:1015D000FFF798FF0421D248FFF7C1F840F6FF70EB
:1015E000FFF790FF4FF48071CE48FFF7B6F840F652
:1015F000FF70FFF787FF0421C948FFF7AEF840F6F8
:10160000FF70FFF77FFF10BD10B50446062C13D204
:10161000DFE804F0120306090C0FFFF7D1FF0CE01E
:10162000FFF7B2FF09E0FFF79BFF06E0FFF78DFF32
:1016300003E0FFF778FF00E000BF00BF10BD10B56A
:10164000044600BF0221B848FFF749FC0028F9D042
:101650002146B548FFF7F0FB00BF0121B248FFF774
:101660003EFC0028F9D0B048FFF7E8FBC0B210BD3F
:1016700070B504461021AB48FFF771F84FF40051E4
:10168000AA48FFF76CF80520FFF7D9FF2046FFF7BF
:10169000D6FF0020FFF7D3FF05461021A148FFF732
:1016A0005CF8284670BD10B5C520FFF7E1FF10BDFE
:1016B00030B500210022002300BF0BE0002206E02D
:1016C000C82300BF1C00A3F10103FBD1521C8242BE
:1016D000F6D3491C0529F1D330BD10B54FF40041B4
:1016E0009248FFF73AF86420FFF7E2FF4FF4004119
:1016F0008E48FFF734F86420FFF7DAFF4FF400411B
:101700008A48FFF72AF86420FFF7D2FF10218548A6
:10171000FFF725F86420FFF7CBFF10218148FFF782
:101720001CF86420FFF7C4FF10BD70B505460C46D9
:1017300010217C48FFF713F84FF400517B48FFF766
:101740000EF80420FFF77BFF2846FFF778FF2046BE
:10175000FFF775FF10217348FEF7FFFF70BD70B5EE
:10176000002500240BE0B220FFF782FF212801D1E1
:10177000012506E00A20FFF79BFF601CC4B20A2C7B
:10178000F1DB00BF284670BD10B543213520FFF7BF
:10179000CCFF09211C20FFF7C8FF2021BD20FFF747
:1017A000C4FF01210820FFF7C0FF0520FFF780FFDD
:1017B00000210820FFF7B9FF0520FFF779FFFFF7A9
:1017C000CEFF08B9002010BDFF21B220FFF7ADFF0A
:1017D00006213720FFF7A9FF06213720FFF7A5FFD5
:1017E0000520FFF765FF0B211C20FFF79EFF10214E
:1017F0002920FFF79AFF0021BD20FFF796FF012067
:10180000E1E770B59CB06422494903A800F05AFB97
:1018100048A103C9CDE901010126002441E0FFF7F9
:101820009EFF08B900263EE001A8015DC120FFF738
:101830007CFF0021C320FFF778FF04210820FFF779
:1018400074FF0120FFF734FF00210820FFF76DFF30
:101850000120FFF72DFF002512E004EB840003A90F
:1018600001EB8000405D00B90CE004EB840003AAAA
:1018700002EB8000415D0520FFF757FF681CC5B2F1
:10188000142DEADB00BF2946B920FFF74EFFFF21E8
:10189000B220FFF74AFF04213720FFF746FF601C04
:1018A000C4B2052CBBDB00BF30461CB070BD10B508
:1018B0000620FFF7DDFE35211720FFF736FF052054
:1018C000FFF7F6FE0620FFF7D3FE03218920FFF77E
:1018D0002CFF0520FFF7ECFE4321CF20FFF725FF6B
:1018E0000520FFF7E5FE0221CB20FFF71EFF0A21AE
:1018F0001120FFF71AFF11480078402820D100215D
:101900001E20FFF712FF0F211920FFF70EFF1821ED
:101910001B20FFF70AFF2C211D20FFF706FF1FE009
:10192000001401400008014000300140000C01405B
:1019300030210008010203040500000029000020F6
:1019400000211E20FFF7F1FE3F211920FFF7EDFED9
:1019500048211B20FFF7E9FE1F211D20FFF7E5FEB0
:101960000520FFF7A5FE0421CD20FFF7DEFE4C2168
:101970001720FFF7DAFE0120FFF79AFE0021B920B9
:10198000FFF7D3FE4F21CF20FFF7CFFEFF216F20BF
:10199000FFF7CBFE10BD10B50820FE490870FFF719
:1019A00086FF0021BD20FFF7C0FE48211720FFF76A
:1019B000BCFE0520FFF77CFE80213C20FFF7B5FE32
:1019C00007213E20FFF7B1FEFF213820FFF7ADFED3
:1019D00007213A20FFF7A9FE00214020FFF7A5FECE
:1019E00008214220FFF7A1FE00214420FFF79DFEC1
:1019F00008214620FFF799FE0120FFF759FE10BD90
:101A000010B5FFF7C8FF10BD70B50024002500BF5A
:101A10001DE0FFF7F5FF6420FFF74AFEFFF7F1FE38
:101A200028B9FFF75AFE3220FFF742FE0DE00A20E8
:101A3000FFF73EFEFFF7A8FE28B9FFF74EFE322063
:101A4000FFF736FE01E0012503E0601CC4B2052C5F
:101A5000DFDB00BF284670BD08B501212420FFF759
:101A60008BF84FF48070ADF8000003208DF8020071
:101A700010208DF803006946C748FEF7C1FD042019
:101A8000ADF800006946C548FEF7BAFD4FF4807115
:101A9000C148FEF764FE0421C048FEF760FE40F630
:101AA000FF70FFF72FFD4FF48071BB48FEF755FE26
:101AB0000421BA48FEF751FE08BD00B587B00121E8
:101AC0000803FFF759F801210C20FFF755F84020D3
:101AD000ADF8040003208DF8060018208DF80700EB
:101AE00001A9AD48FEF78CFD8020ADF8040001A9E6
:101AF000A948FEF785FD2020ADF8040001A9A648FD
:101B0000FEF77EFD4FF40050ADF8040003208DF881
:101B1000060010208DF8070001A9A148FEF770FD0E
:101B200010219D48FEF719FE00219E48FFF753F94A
:101B30000020ADF808004FF48270ADF80A000020D4
:101B4000ADF80C000220ADF80E000020ADF810003A
:101B50004FF40070ADF812002820ADF814000020FA
:101B6000ADF816000720ADF8180002A98D48FFF760
:101B70008DF801218B48FFF72EF907B000BD1FB586
:101B800001210846FEF7F8FF01210820FEF7F4FFC7
:101B90004FF48050ADF8000004208DF803000320BE
:101BA0008DF8020069467E48FEF72AFD0C210120CF
:101BB000FEF73CFE4FF48050029000208DF80C00A0
:101BC0000C208DF80D0001208DF80E0002A8FEF704
:101BD00037FC28208DF8040001208DF805008DF8D1
:101BE00006008DF8070001A8FEF7B3FB1FBD08B57E
:101BF00001210C20FEF7C0FF1020ADF800000320EB
:101C00008DF8020010208DF8030069466248FEF747
:101C1000F7FC4FF40040ADF8000069466048FEF75D
:101C2000EFFC08BD10B5FFF7E2FFFFF7A8FFFFF7D5
:101C300044FFFFF711FFFFF750FD10BD0024FFF731
:101C4000F1FF59A000F078F95AA000F075F95CA0F6
:101C500000F072F95DA000F06FF95FA000F06CF980
:101C60000020604908704AE05E480078102815D0CE
:101C700003DC48B1012839D104E0112837D03128DC
:101C800034D100E000BF36E0012056490870FFF76C
:101C9000BBFE10B93120534908702CE0FFF703FD5B
:101CA0000446214650A000F047F9062C18D2DFE880
:101CB00004F01703070B0F134EA000F03DF910E0DE
:101CC00052A000F039F90CE056A000F035F908E018
:101CD0005AA000F031F904E05EA000F02DF900BF39
:101CE00000BF00BF00203F49087004E000BF002093
:101CF0003C49087000BF00BF2046FFF785FCB3E7F2
:101D000010B500242B20FFF7B3FC584908700021C0
:101D10002920FFF70AFD00210220FFF706FD5348A6
:101D2000007800F01000C8B1B220FFF7A1FC212814
:101D300014D1BF20FFF79CFC35280FD1BA20FFF744
:101D400097FC0446002C05DD042C03DC10202549FB
:101D5000087006E011202349087002E01120214993
:101D6000087000212B20FFF7E0FC00211C20FFF76A
:101D7000DCFC00212920FFF7D8FC00210220FFF71E
:101D8000D4FC00212B20FFF7D0FC0021BA20FFF764
:101D9000CCFC6DE029000020000801400014014047
:101DA000000C01400030014031A1A2C1F7CBAEB51B
:101DB000C60D0A0032A1A2C9C1CBB80D0A000000AD
:101DC00033A1A2CDA3D6B90D0A00000034A1A2C848
:101DD000ABC3F00D0A00000035A1A2BFAACABC0D1A
:101DE0000A000000280000200D0ACAB6B1F0C2EBBC
:101DF0003A25640020C1F7CBAEB5C620D6B8C1EEF7
:101E0000CAB6B1F0B3C9B9A60D0A000020C9C1CB4A
:101E1000B820D6B8C1EECAB6B1F0B3C9B9A60D0A9A
:101E20000000000020CDA3D6B920D6B8C1EECAB6B6
:101E3000B1F0B3C9B9A60D0A0000000020C8ABC3B9
:101E4000F020D6B8C1EECAB6B1F0B3C9B9A60D0A32
:101E50000000000020BFAACABC20D6B8C1EECAB696
:101E6000B1F0B3C9B9A60D0A000000002A00002095
:101E70000021BC20FFF759FC01210820FFF755FC89
:101E800000210820FFF751FC10BD10B54FF4805021
:101E9000FEF73CFB60B1FFF733FF06A000F04CF803
:101EA0004FF48050FEF72EFB4FF48050FEF73FFBBF
:101EB00010BD0000BDF8C8EBD6D0B6CF31320D0A48
:101EC0000000000040EA01039B0703D009E008C9B5
:101ED000121F08C0042AFAD203E011F8013B00F8EF
:101EE000013B521EF9D2704730B50B460146002027
:101EF0002022012409E021FA02F59D4205D303FACC
:101F000002F5491B04FA02F52844151EA2F101024C
:101F1000F1DC30BD064C074D06E0E06840F00103FF
:101F200094E8070098471034AC42F6D3FEF704F962
:101F300094210008B42100080FB4054B10B503A983
:101F4000044A029800F018F810BC5DF814FB000079
:101F5000C11400082C00002002E008C8121F08C1AC
:101F6000002AFAD170477047002001E001C1121F1A
:101F7000002AFBD1704700002DE9FF4F8BB09A4635
:101F80000F460546002606E025280BD052460D993F
:101F900090476D1C761C28780028F5D10FB030468C
:101FA000BDE8F08F0024A0460122604900E0044310
:101FB00015F8013F203B02FA03F00842F7D12878D8
:101FC0002E2817D115F8010F44F004042A280ED04A
:101FD0006FF02F022878A0F1300109290AD808EB08
:101FE000880102EB410100EB01086D1CF2E757F894
:101FF000048B6D1C287869283ED006DC0028CDD0E3
:1020000063280BD0642804D136E0732810D07528DB
:102010004BD052460D999047761C85E017F8040B7B
:102020008DF8000000208DF80100E946012003E052
:1020300057F8049B4FF0FF3061074FF0000401D4C4
:102040000AE0641C44450DDA8442FADB19F80410F6
:102050000029F6D106E0641C8442FCDB19F8041068
:102060000029F8D1264404E019F8010B52460D99D5
:102070009047641EF8D257E001CF4FF00A0B0028BA
:1020800002DA40422D2102E0210504D52B218DF8F2
:102090002410012103E0E10705D02021F7E70DF12D
:1020A000200908910CE00021F9E701CF4FF00A0B5D
:1020B000F9E75946FFF718FF01F1300209F8012D41
:1020C0000028F6D1ADEB090000F1200B600701D428
:1020D0004FF00108D84502DDA8EB0B0000E000201E
:1020E0008046002406E009A85246005D0D999047FD
:1020F000641C761C08988442F5DB04E030205246CC
:102100000D999047761CB8F10001A8F10108F5DCA3
:1021100005E019F8010B52460D999047761CBBF16A
:102120000001ABF1010BF4DC6D1C34E70928010060
:102130006C6975207368756900000000000000007C
:10214000000000007368616E207368756F00000006
:10215000000000000000000074696E67207A686962
:102160000000000000000000000000007175616EBA
:10217000206D696500000000000000000000000004
:102180006B616920736869000000000000000000B6
:1021900000000000B4210008000000203000000012
:1021A000581F0008E421000830000020000400004F
:1021B000681F000800A24A040000000000000000A0
:1021C00001020304060708090000000001020304DD
:1021D00001020304060708090204060800000000C3
:0421E00000000000FB
:0400000508000131BD
:00000001FF
