:020000040800F2
:1000000060080020190D0008C1020008C3020008A2
:10001000C7020008CB020008CF0200080000000061
:10002000000000000000000000000000D3020008F3
:10003000D502000800000000D7020008D90200081D
:10004000330D0008330D0008330D0008330D000890
:10005000330D0008330D0008330D0008330D000880
:10006000330D0008330D0008330D0008330D000870
:10007000330D0008330D0008330D0008330D000860
:10008000330D0008330D0008330D0008330D000850
:10009000330D0008330D0008330D0008330D000840
:1000A000330D0008330D0008330D0008330D000830
:1000B000330D0008330D0008330D0008330D000820
:1000C000330D0008330D0008330D0008330D000810
:1000D000330D00080B0C0008850C0008330D0008D8
:1000E000330D0008330D0008330D0008330D0008F0
:1000F000330D0008330D0008330D0008330D0008E0
:10010000330D0008330D0008330D0008330D0008CF
:10011000330D0008330D0008330D0008330D0008BF
:10012000330D0008330D0008330D0008330D0008AF
:1001300000F002F800F03AF80AA090E8000C8244BF
:100140008344AAF10107DA4501D100F02FF8AFF29C
:10015000090EBAE80F0013F0010F18BFFB1A43F0A5
:10016000010318474C1800006C180000103A24BF17
:1001700078C878C1FAD8520724BF30C830C144BF0C
:1001800004680C607047000000230024002500264E
:10019000103A28BF78C1FBD8520728BF30C148BFEA
:1001A0000B6070471FB51FBD10B510BD01F0C9FB36
:1001B0001146FFF7F7FF00F009F801F0E7FB03B481
:1001C000FFF7F2FF03BC01F0EBFB000000F048FA80
:1001D00000F0B0FA4FF4614000F0B2FA4FF4614021
:1001E00000F0FEFA00F06AF900F084F94FF40051D3
:1001F000314800F0BEFE322000F06FFA4FF400519B
:100200002D4800F0B8FE322000F067FA4FF400519C
:10021000294800F0AEFE322000F05FFA4FF40051A2
:10022000254800F0A8FE4FF40051234800F0A1FE3D
:100230000121032000F004FCD021012000F02CFC5F
:1002400039E041F2883000F048FA4FF400511A4882
:1002500000F091FE194A2821012000F04AFC42F2E8
:1002600010722821022000F044FC42F2107000F0CD
:1002700034FA4FF40051104800F07BFE41F2883010
:1002800000F02BFA4FF400510B4800F074FE42F2DC
:1002900010722821012000F02CFC084A282102209D
:1002A00000F027FC42F2107000F017FA4FF40051F2
:1002B000014800F05EFEC4E700100140F0D8FFFFE7
:1002C000704700BFFEE700BFFEE700BFFEE700BFCC
:1002D000FEE7704770477047704700000CB500207C
:1002E000019000906C48006840F480306A490860D2
:1002F00000BF6948006800F4003000900198401C7D
:100300000190009818B90198B0F5A06FF1D162483A
:10031000006800F4003010B10120009001E00020DE
:1003200000900098012843D15C48006840F010001C
:100330005A4908600846006820F003000860084633
:10034000006840F002000860534840685249486025
:100350000846406848600846406840F4806048604D
:100360000846406820F47C1048600846406840F425
:10037000E81048600846006840F08070086000BFE0
:100380004548006800F000700028F9D042484068F5
:1003900020F00300404948600846406840F00200F1
:1003A000486000BF3C48406800F00C000828F9D1C4
:1003B0000CBD10B5FFF792FF10BD10B536480068B0
:1003C00040F001003449086008464068344908405C
:1003D0003149486008460068324908402E490860A3
:1003E0000846006820F4802008600846406820F431
:1003F000FE0048604FF41F008860FFF7DAFF4FF0FF
:1004000000602949086010BD10B5002100200022BD
:10041000214B5B6803F00C0121B1042906D00829A7
:1004200028D107E0214B224C236027E01F4B204CB2
:10043000236023E0184B5B6803F47010164B5B6875
:1004400003F48032022303EB904022B9194B43435B
:10045000174C23600DE0104B5B6803F4003323B1AD
:10046000144B4343124C236003E0104B4343104CA6
:10047000236003E00D4B0E4C236000BF00BF064B12
:100480005B68C3F303130C4CE15C094B1B68CB4066
:10049000074C236010BD0000001002400020024005
:1004A0000000FFF8FFFFF6FE08ED00E000127A0002
:1004B0000000002000093D000400002008B50121D3
:1004C000102000F065FF4FF40050ADF80000102040
:1004D0008DF8030003208DF802006946044800F0FF
:1004E0009BFC4FF40051024800F043FD08BD0000A2
:1004F0000010014008B50121082000F049FFA120AB
:10050000ADF8000010208DF8030003208DF80200E4
:1005100069464C4800F080FC4FF40070ADF80000D4
:1005200028208DF8030003208DF802006946454815
:1005300000F072FC0120444908604449C1F8800180
:1005400041490839086008BD2DE9F04104460125FC
:100550000026002725E004F0010018B101203A49E7
:10056000086002E000203849086064100A2000F0AA
:1005700090F8002034491C3908600A2000F089F8FE
:100580003248D0F8240108B17019C6B26806050EC9
:1005900001202D491C3908600A2000F07AF8781CE7
:1005A000C7B2072FD7DD012027490860322000F0AD
:1005B00070F83046BDE8F081002004E00021244AB4
:1005C0001154411CC8B20928F8DB704770B50024EB
:1005D0000025FFF7F1FF00201B490839086000BF24
:1005E00007E01C49485DFFF7AFFF19494855681CF3
:1005F000C5B2092DF5DB01201349083908601448FC
:10060000C0781349097940EA012013490880002481
:100610000FE0124810F81400401E012101FA00F00A
:100620000D490988084010B9601CC0B270BD601C3B
:10063000C4B2102CEDDB0020F8E701460448405C12
:1006400070470000000C01409C8121420080214243
:10065000600000201800002014000020220000206C
:1006600010B56FF0040001F04AF92E4800682E49D9
:10067000B0FBF1F02D4908700846007800EB40010E
:10068000C1EBC0104FF6FF7101EAC0002849088095
:1006900010BD0146254A12784A434FF0E0235A61C3
:1006A00000229A611A46126942F001021A6100BFE3
:1006B0004FF0E022106900F001021AB100F480321C
:1006C000002AF5D04FF0E022126922F001024FF02B
:1006D000E0231A6100229A6170470146144A128889
:1006E0004A434FF0E0235A6100229A611A46126988
:1006F00042F001021A6100BF4FF0E022106900F0E1
:1007000001021AB100F48032002AF5D04FF0E02245
:10071000126922F001024FF0E0231A6100229A616F
:10072000704700000000002000127A004200002004
:100730004400002010B54FF4A06001F091F810BD06
:1007400010B586B00446012144F2040000F020FEFA
:10075000FE4800F081FE4FF40070ADF81400032055
:100760008DF8160018208DF8170005A9F84800F03C
:1007700053FB4FF48060ADF8140004208DF817008F
:1007800005A9F34800F048FB25208DF80000012062
:100790008DF8010000208DF8020001208DF8030083
:1007A000684601F062F801940020ADF80800ADF849
:1007B0000A00ADF80C00ADF810000C20ADF80E00EA
:1007C00001A9E24800F08BFE012240F22551DF48EA
:1007D00000F01DFF0121DD4800F00DFF06B010BD47
:1007E00010B586B004460121042000F0D1FD01219E
:1007F000480400F0DAFDD74800F02EFE0420ADF8E2
:10080000140003208DF8160018208DF8170005A994
:10081000CF4800F001FB0820ADF8140004208DF84B
:10082000170005A9CA4800F0F7FA26208DF8000045
:1008300000208DF801008DF8020001208DF80300E2
:10084000684601F012F801940020ADF80800ADF8F8
:100850000A00ADF80C00ADF810000C20ADF80E0049
:1008600001A9BC4800F03BFE012240F22551B948E5
:1008700000F0CDFE0121B74800F0BDFE06B010BD6E
:10088000F0B503460D461646002729460A2E03D02A
:10089000002008702846F0BD33B9302001F8010B64
:1008A000002008702846F6E7002B03DA2D2001F817
:1008B000010B5B4242F210720DE093FBF2F404B9BB
:1008C00037B104F1300001F8010B04FB12330127AA
:1008D0000A2092FBF0F2002AEFDC00200870284684
:1008E000D9E70FB470B586B006460CA8019073E046
:1008F0000B9800785C281CD10B98401C0B9000785A
:100900006E2809D072280FD10D21304600F0E0FE8C
:100910000B98401C0B900BE00A21304600F0D8FEEB
:100920000B98401C0B9003E00B98401C0B9000BFF1
:100930004BE00B980078252840D10B98401C0B9079
:100940000078642818D0732833D1019810C801901A
:100950000BE02178304600F0BBFE00BF402130465E
:1009600000F024FF0028F9D0641C20780028F0D182
:100970000B98401C0B9020E0019820C801900A229F
:1009800002A92846FFF77CFF02AC0BE02178304635
:1009900000F09EFE00BF4021304600F007FF002817
:1009A000F9D0641C20780028F0D10B98401C0B90E3
:1009B00003E00B98401C0B9000BF06E00B9810F86A
:1009C000011B0B90304600F083FE00BF40213046F3
:1009D00000F0ECFE0028F9D00B980078002887D1B1
:1009E00006B070BC5DF814FB70B504460D460026D9
:1009F0000DE014F8011B574800F06AFE00BF80218B
:100A0000544800F0D3FE0028F9D0701CC6B2AE42A4
:100A1000EFDB70BD70B504460D4600260DE014F8FE
:100A2000011B4A4800F054FE00BF8021474800F0F7
:100A3000BDFE0028F9D0701CC6B2AE42EFDB70BD1F
:100A400038B504460D4600208DF800008DF80100F1
:100A50008DF802509DF800009DF8011008449DF8A3
:100A600002100844C0B28DF80300012C04D1042107
:100A70006846FFF7CFFF0EE0022C04D10421684640
:100A8000FFF7B2FF07E004216846FFF7C3FF042128
:100A90006846FFF7A9FF38BD38B504460D46022069
:100AA0008DF8000000208DF801008DF802509DF8AF
:100AB00000009DF8011008449DF802100844C0B2DF
:100AC0008DF80300012C04D104216846FFF7A2FF32
:100AD0000EE0022C04D104216846FFF785FF07E0F1
:100AE00004216846FFF796FF04216846FFF77CFF64
:100AF00038BDFEB505460F461446B80341F2707185
:100B000090FBF1F006B250208DF80800200E8DF811
:100B10000900200C8DF80A009DF808009DF80910C6
:100B200008449DF80A100844C0B28DF80B00052057
:100B30008DF80400200A8DF80500E0B28DF806005B
:100B40009DF804009DF80510084405E000380140B8
:100B500000080140004400409DF806100844C0B25F
:100B60008DF807001D208DF80000300A8DF8010077
:100B7000F0B28DF802009DF800009DF801100844C5
:100B80009DF802100844C0B28DF80300002D3BD040
:100B9000012D04D0022D0FD0032D33D119E00421F3
:100BA00002A8FFF737FF042101A8FFF733FF042154
:100BB0006846FFF72FFF26E0042102A8FFF714FF85
:100BC000042101A8FFF710FF04216846FFF70CFF7E
:100BD00019E0042102A8FFF71DFF042102A8FFF776
:100BE00003FF042101A8FFF715FF042101A8FFF767
:100BF000FBFE04216846FFF70DFF04216846FFF75E
:100C0000F3FE00E000BF00BFFEBD10B540F225516D
:100C10003B4800F0E1FD10B3394800F05DFDC4B27F
:100C20003848008800F40040C8B93648008800F40D
:100C3000804060B10A2C03D000203249088020E0B7
:100C40003048008840F400402E49088019E00D2CFF
:100C500006D12C48008840F480402A49088010E0E2
:100C600028480088C0F30D0027490C542548008807
:100C7000401C2449088008460088C72801DD002060
:100C8000088010BD10B540F22551204800F0A4FDA9
:100C900010B31E4800F020FDC4B21D48008800F4C7
:100CA0000040C8B91A48008800F4804060B10A2C9E
:100CB00003D000201649088020E01548008840F441
:100CC00000401349088019E00D2C06D11048008817
:100CD00040F480400E49088010E00D480088C0F3C1
:100CE0000D000C490C540A480088401C0849088033
:100CF00008460088C72801DD0020088010BD0000DC
:100D000000380140460000206900002000440040F7
:100D10004800002031010020094880470948004769
:100D2000FEE7FEE7FEE7FEE7FEE7FEE7FEE7FEE79B
:100D3000FEE7FEE704480549054A064B70470000F8
:100D4000BB03000831010008600200206008002099
:100D5000600400206004002010B50446CC488442A2
:100D600008D10121042000F02DFB0021042000F017
:100D700029FB46E0C748844208D10121082000F041
:100D800021FB0021082000F01DFB3AE0C24884420C
:100D900008D10121102000F015FB0021102000F0E7
:100DA00011FB2EE0BD48844208D10121202000F033
:100DB00009FB0021202000F005FB22E0B848844216
:100DC00008D10121402000F0FDFA0021402000F070
:100DD000F9FA16E0B348844208D10121802000F0DE
:100DE000F1FA0021802000F0EDFA0AE0AE488442DA
:100DF00007D10121801500F0E5FA0021A01500F0CF
:100E0000E1FA10BD10B50121084600F0DBFA00211F
:100E1000012000F0D7FA10BD2DE9F041024600256F
:100E20000026002000230024002791F803C00CF0C6
:100E30000F0591F803C00CF0100CBCF1000F03D0AB
:100E400091F802C04CEA050591F800C0BCF1000F12
:100E500031D0146800202BE04FF0010C0CFA00F3A5
:100E6000B1F800C00CEA03069E4220D183004FF087
:100E70000F0C0CFA03F7BC4305FA03FC4CEA04041C
:100E800091F803C0BCF1280F06D14FF0010C0CFA09
:100E900000FCC2F814C00AE091F803C0BCF1480F8E
:100EA00005D14FF0010C0CFA00FCC2F810C0401C38
:100EB0000828D1D31460B1F800C0BCF1FF0F34DDB5
:100EC000546800202EE000F1080C4FF0010808FAE9
:100ED0000CF3B1F800C00CEA03069E4221D1830056
:100EE0004FF00F0C0CFA03F7BC4305FA03FC4CEA75
:100EF000040491F803C0BCF1280F05D100F1080CDF
:100F000008FA0CF8C2F8148091F803C0BCF1480F3D
:100F100007D100F1080C4FF0010808FA0CF8C2F8EC
:100F20001080401C0828CED35460BDE8F0814FF6F5
:100F3000FF710180022181700421C1707047024657
:100F4000002093680B400BB1012000E000207047A7
:100F50000146886880B2704702460020D3680B4083
:100F60000BB1012000E0002070470146C86880B244
:100F7000704701617047416170470AB1016100E04B
:100F800041617047C16070474FF480320A4382610B
:100F90008161826182698269704702460020434B09
:100FA00018684FF68073184040EA021008433F4B20
:100FB000186070473E49C8617047F0B50A46002383
:100FC00000240021002500F00046B6F1004F02D1B8
:100FD000364EF16901E0354E7168C0F3034583B2C6
:100FE00000F44016B6F5401F08D121F070612F4E75
:100FF000766826F070662D4F7E6012E000F4801651
:10100000B6F5801F06D1032606FA05F4A14341F088
:10101000706106E0460D360103FA06F6B14341F071
:10102000706122B1460D360103FA06F6314300F035
:101030000046B6F1004F02D11C4EF16101E01B4E9B
:101040007160F0BD30B500228B071C0F0F2303FA2F
:1010500004F2164B08338C1053F824309343134C8E
:1010600008348D1044F8253023468C1053F8243072
:101070008C07240F00FA04F423430C4C08348D1021
:1010800044F8253030BD0A49DC3108607047000063
:1010900000080140000C0140001001400014014014
:1010A00000180140001C01400020014000000140E8
:1010B00000002042DF48006840F00100DD49086080
:1010C00008464068DC490840DA494860084600683C
:1010D000DA490840D74908600846006820F48020B3
:1010E00008600846406820F4FE0048604FF41F0086
:1010F00088607047CF49096821F48031CD4A11607A
:101100001146096821F480211160B0F5803F03D0B9
:10111000B0F5802F0ED106E0C649096841F4803150
:10112000C44A116007E0C349096841F4A021C14ADB
:10113000116000E000BF00BF704710B501460022FB
:10114000002300204A11012A02D1BA4C236806E08C
:10115000022A02D1B74C236A01E0B64C636A01F05F
:101160001F02012494401C400CB1012000E000202B
:1011700010BD38B5002000900024002500BF3120AC
:10118000FFF7DBFF05460098401C00900098B0F583
:10119000A06F01D0002DF2D03120FFF7CEFF08B1B3
:1011A000012400E00024204638BD01460020A14A69
:1011B000106820F0F80040EAC10010607047A049B4
:1011C00008607047024600209A4B586820F47C1053
:1011D00042EA01031843974B5860704798490866E4
:1011E000704701460020934A506820F003000843EE
:1011F000506070478F48406800F00C00704701460F
:1012000000208C4A506820F0F0000843506070477E
:1012100001460020874A506820F4E060084350608F
:10122000704701460020834A506820F4605040EA2D
:10123000C1005060704729B17E4A527A02437D4B0B
:101240005A7204E07B4A527A82437A4B5A72704750
:101250007B49D8310860704701460020754A5068C4
:1012600020F440400843506070470021714A20320A
:101270001170704A82F82010012802D004280AD187
:1012800004E001216B4A2032117005E00521694A12
:101290002032117000E000BF00BF7047694908604C
:1012A00070476449096A0143624A1162704765499F
:1012B00044390860704730B5002100220024002323
:1012C0005C4D6D6805F00C0121B1042905D0082999
:1012D00023D105E05C4D056022E05B4D05601FE019
:1012E000544D6D6805F47012524D6D6805F48034EC
:1012F000022505EB92421CB9544D554305600BE0A5
:101300004C4D6D6805F400351DB1504D55430560D9
:1013100002E04D4D5543056002E04B4D056000BFB6
:1013200000BF444D6D6805F0F0010909484D6B5C44
:101330000568DD4045603F4D6D6805F4E061090AD0
:10134000434D6B5C4568DD4085603A4D6D6805F442
:101350006051C90A3E4D6B5C4568DD40C560354D46
:101360006D6805F44041890B3A4D6B5CC568B5FB6F
:10137000F3F5056130BD29B12E4A526902432D4B68
:101380005A6104E02B4A526982432A4B5A617047E2
:1013900029B1284A92690243264B9A6104E0254A02
:1013A00092698243234B9A61704729B1214AD269DD
:1013B0000243204BDA6104E01E4AD26982431D4B8E
:1013C000DA61704729B11B4AD2680243194BDA60CF
:1013D00004E0184AD2688243164BDA60704729B19C
:1013E000144A12690243134B1A6104E0114A12694C
:1013F0008243104B1A6170471249403908607047A8
:101400000F49C86470470B49C87170470948406A62
:1014100040F0807007494862704701460020054A45
:1014200092680A400AB1012000E00020704701499B
:1014300088727047001002400000FFF8FFFFF6FEC0
:10144000000042428004424200127A0000093D003E
:101450004A0000205A00002010B50446FB48844290
:1014600009D101218803FFF7ADFF00214FF480402F
:10147000FFF7A8FF32E0F648844209D10121480471
:10148000FFF7ADFF00214FF40030FFF7A8FF25E084
:10149000F048844209D101218804FFF7A0FF002110
:1014A0004FF48020FFF79BFF18E0EB48844209D1FE
:1014B0000121C804FFF793FF00214FF40020FFF73C
:1014C0008EFF0BE0E548844208D101210805FFF7B3
:1014D00086FF00214FF48010FFF781FF10BD2DE93A
:1014E000F04786B005460E460024A24600BFA1463E
:1014F0000027B08900B100BF2F462C8A4CF6FF7040
:101500000440F08804432C82AC894EF6F31004406A
:10151000B08831890843718908430443AC81AC8A9F
:101520004FF6FF400440B0890443AC8201A8FFF7A6
:10153000C2FEC648874202D1DDF810A001E0DDF806
:101540000CA0A88900F4004040B10AEBCA0000EBEF
:101550000A1031684900B0FBF1F807E00AEBCA0055
:1015600000EB0A1031688900B0FBF1F86420B8FB89
:10157000F0F004012009642101FB1089A88900F41E
:10158000004040B1322000EBC900B0FBF1F000F0A8
:101590000700044308E0322000EB09106421B0FB8F
:1015A000F1F000F00F0004432C8106B0BDE8F08795
:1015B0004FF41651016000218180C18001810C210E
:1015C000418100218181704710B502460020108AB8
:1015D0004FF2FF0318400B884C8823438C88234329
:1015E000CC8823431843108210BD00210180418024
:1015F0008180C180704721B1828942F4005282818A
:1016000004E082894DF6FF731A4082817047F0B57D
:101610000346002400260025002040F66A17B94240
:1016200000D100BF1846C1F3421401F01F06012784
:1016300007FA06F5012C01D10C3004E0022C01D18F
:10164000103000E014301AB107682F43076002E041
:101650000768AF430760F0BD1AB1838A0B438382EA
:1016600002E0838A8B4383827047028A4FF6F073CD
:101670001A400282028A0A430282704782894FF22C
:10168000FF731A40828182890A438281704721B1A7
:10169000828942F00202828104E082894FF6FD7362
:1016A0001A4082817047028A4FF6DF731A40028225
:1016B000028A0A430282704721B1028A42F48042C0
:1016C000028204E0028A4BF6FF731A4002827047DE
:1016D000C1F308028280704701468888C0F3080081
:1016E0007047818941F0010181817047028BD2B23C
:1016F0000283028B42EA012202837047028B02F4CA
:101700007F420283028B0A430283704721B1828A9F
:1017100042F02002828204E0828A4FF6DF731A4090
:101720008282704721B1828A42F01002828204E0F4
:10173000828A4FF6EF731A408282704721B1828A03
:1017400042F00802828204E0828A4FF6F7731A4060
:101750008282704721B1828942F40042828103E093
:101760008289C2F30E028281704721B1828A42F4DB
:101770000062828204E0828A4FF2FF731A40828202
:101780007047828A4FF6FB731A408282828A0A432C
:101790008282704721B1828A42F00202828204E092
:1017A000828A4FF6FD731A408282704702460020FB
:1017B000B1F5007F00D100BF13880B400BB10120B1
:1017C00000E00020704701F40072B2F5007F00D104
:1017D00000BFCA430280704770B502460024002350
:1017E0000025002040F66A16B14200D100BFC1F3C7
:1017F000421501F01F03012606FA03F3012D02D161
:101800009689334006E0022D02D1168A334001E06A
:10181000968A33400C12012606FA04F416883440E6
:1018200013B10CB1012000E0002070BD10B5002202
:10183000002340F66A14A14200D100BF0A1201241D
:101840009440A3B2DC43048010BD00000038014086
:101850000044004000480040004C00400050004060
:1018600031490143314A1160704770B500210023AE
:101870000F22C47804B32D4C246804F4E064C4F54A
:10188000E064210AC1F10403CA40447804FA03F178
:101890008478144021430901254C0678A155047829
:1018A00004F01F050124AC4005786D11AD0005F171
:1018B000E025C5F8004109E0047804F01F05012483
:1018C000AC401C4D0678761145F8264070BD1A4A8A
:1018D0000A400243154B1B1F1A60704739B1134A67
:1018E000121D12680243114B1B1D1A6006E00F4ABD
:1018F000121D126882430D4B1B1D1A60704704288D
:1019000008D14FF0E021096941F004014FF0E022D5
:10191000116107E04FF0E021096921F004014FF067
:10192000E0221161704700000000FA050CED00E0B4
:1019300000E400E080E100E080FFFF1F7047704797
:101940007047754600F028F8AE46050069465346D4
:1019500020F00700854618B020B5FFF7EBF9BDE889
:1019600020404FF000064FF000074FF000084FF006
:10197000000B21F00701AC46ACE8C009ACE8C00997
:10198000ACE8C009ACE8C0098D4670470446AFF327
:1019900000802046FEF713FC00487047FC01002041
:1019A00001491820ABBEFEE7260002007047000088
:1019B000D019000800000020600000006C01000841
:1019C000301A0008600000200008000088010008AC
:1019D00000A24A040000000000000000010203040D
:1019E0000607080900000142014200000000000053
:1019F00000000100020003000400050006000700CB
:101A0000080009000A000B000C000D000E000F007A
:101A100010000000000000000000000000000102B3
:101A20000304010203040607080902040608000073
:0400000508000131BD
:00000001FF
